:1000000025C23FC23EC23DC23CC23BC23AC239C217
:1000100038C237C236C235C234C233C232C231C22C
:1000200030C22FC22EC255C45EC467C46FC485C41B
:100030008EC4A1C4EFC446C57BC551C68DC6EEC6ED
:1000400092C715C80D54303D000D445041545445DD
:10005000524E0A54303D000D46696E633D000D4618
:10006000656E643D000D4673746172743D000D53FE
:1000700057454550000D46323D000D46313D000DBF
:1000800044544D46000D545620564944454F0A00ED
:100090004348455353424F415244004C4154544904
:1000A000434500564552544943414C204241525326
:1000B000000D546F66663D000D5466616C6C3D002A
:1000C0000D546F6E3D000D54726973653D00573AD3
:1000D0004600573A5200543A4600543A52000D50E6
:1000E000554C534520000D4849474820535045453D
:1000F000440020453D4C0020453D480020443D0043
:100100000D50574D000D5351554152452057415602
:1001100045000D4E4F49534520000D4E4444532099
:10012000564552302E31370A5349474E414C2047ED
:10013000454E455241544F52000D45434720000D56
:10014000545249414E474C4520000D52534157549B
:100150004F4F544820000D534157544F4F5448209F
:10016000000D53494E452000494A4B4B4A494949E5
:100170004948474544434343444443413E3D3B395A
:10018000383737363636373737373737363533320D
:100190003131343D4D6584A9CFEEFFFEEAC69A6D3C
:1001A000442511050001060D141C242D34393D4051
:1001B00041424344444546474747474747474748E6
:1001C000484849494A4B4B4C4D4E4F50515253545D
:1001D00056585B5D60626466686B6D707376797BA0
:1001E0007D7E7F7F7F7F7F7E7D7C797774716D6977
:1001F00066625F5C595754514F4D4C4B4A494846D3
:1002000045444343434444444545454545454546A7
:10021000474849494A4A4B4B4B4B4B4B4A4A494941
:10022000494948484847474747474747464646455C
:10023000454545454646464544444343434342427B
:1002400042414141414141414140403F3F404041A5
:100250004141414141414040404040404040414196
:100260004142434445474849808386898C8F929513
:10027000989C9FA2A5A8ABAEB0B3B6B9BCBFC1C491
:10028000C7C9CCCED1D3D5D8DADCDEE0E2E4E6E8EB
:10029000EAECEDEFF0F2F3F5F6F7F8F9FAFBFCFC17
:1002A000FDFEFEFFFFFFFFFFFFFFFFFFFFFFFEFE64
:1002B000FDFCFCFBFAF9F8F7F6F5F3F2F0EFEDECE4
:1002C000EAE8E6E4E2E0DEDCDAD8D5D3D1CECCC988
:1002D000C7C4C1BFBCB9B6B3B0AEABA8A5A29F9C02
:1002E0009895928F8C898683807C797673706D6AFD
:1002F0006763605D5A5754514F4C494643403E3BFB
:10030000383633312E2C2A272523211F1D1B191780
:10031000151312100F0D0C0A090807060504030334
:1003200002010100000000000000000000000101C7
:100330000203030405060708090A0C0D0F10121327
:100340001517191B1D1F212325272A2C2E31333663
:10035000383B3E404346494C4F5154575A5D6063C9
:10036000676A6D707376797C00E8030000E803002B
:1003700000E8030000E8030000E8030000E80300D1
:1003800000E8030000320040420F006400000064F7
:10039000000000640000006400000000000000B9DC
:1003A000020000B904000014000000204E00000C00
:1003B0000000000A0000000120543D002E2E2E0AED
:1003C0003A005245500042524B000A282B2F2D294B
:1003D000207832000D463D000D4558542053594EAB
:1003E000433A20004C4F570048494748004E4F00C1
:1003F0000D547269676765723A200046414C4C2083
:10040000005249534520004E4F000A282B2F2D291A
:1004100020004E44000D4E3D000A282B2F2D292090
:1004200000250A282B2F2D2920312520000D44439B
:100430003D000D463D000A282B2F2D2920004F4658
:10044000460A004F4E200A00487A000011241FBEC1
:10045000CFE5D4E0DEBFCDBF10E0A0E6B0E0EAE833
:10046000FFE102C005900D92A637B107D9F720E051
:10047000A6E7B0E001C01D92A63CB207E1F7CCD1DF
:1004800082CDBECD2F933F93F1E0E0E022273327CA
:10049000260F371FE81F008002BA9C99F9CF3F91C1
:1004A0003F910895F4E0E0E02227332708B2260FB9
:1004B000371FE81F08F40F2608BA9C99F8CF089553
:1004C000AF93BF931F930F93F92FE82FA089B189A2
:1004D000E894BB2319F4AA2309F46894408151815C
:1004E000628173810027112722273327040F151FEC
:1004F000261F371F20F032BB9C99F8CF39C02FEF51
:1005000022BB4481558166817781002711272227EC
:100510003327040F151F261F371F20F000009C995A
:10052000F8CF26C040855185628573850FEF1FEF98
:100530002FEF3FEF041B150B260B370B20F032BBC0
:100540009C99F8CF15C04485558566857785002729
:10055000112722273327040F151F261F371F20F0CE
:1005600012BA9C99F8CF04C016F0119709F0B6CFD3
:100570000F911F91BF91AF910895AF93BF931F93B8
:100580000F93FF92EF9212BAF1E0E0E0BF2FAE2F8F
:10059000112D012DF12CE12C060F171FE81F0080F3
:1005A0000694902D069406949019E20EF31EA41F53
:1005B0005C915695590F52BB9C99EECFEF90FF90EE
:1005C0000F911F91BF91AF910895E0E0F1E0912D5F
:1005D000512DC29A960F571FE81F18F0008002BADB
:1005E000F9CF008002BA6E0D7F1D801F481748F1B9
:1005F00031F4371730F131F4261718F116C0000026
:1006000000000000000000000000960F571FE81FC8
:10061000960F571FE81F960F571FE81F960F571F7B
:10062000E81F960F571FE81F000039F4960F571F59
:10063000E81F000000000000F8CF008002BA9C997B
:10064000C9CFC2980895A598AD9AC298BA9A12BA1D
:100650008FEF81BB08951FBC1EBCF5CFCF92DF92F8
:10066000EF92FF921F93CF93DF936B017C01142FC6
:10067000D22F8FB582608FBD8EB588618EBD60E050
:1006800074E284EF90E0A701960110DB215031095C
:1006900041095109CEB5C87F2F3F8FEF380741057B
:1006A000510510F4C16005C0232F342F452F552765
:1006B000C46037BD26BDA12FB0E01ADB24E630E0D0
:1006C00040E050E0F3DA39BD28BDCEBD8FB5806281
:1006D0008FBDD13059F49C9B16C09D9B03C08FB534
:1006E000806202C08FB58F7D8FBDF5CFD23059F4B7
:1006F0009C9B09C09D9903C08FB5806202C08FB5D5
:100700008F7D8FBDF5CFDF91CF911F91FF90EF903F
:10071000DF90CF9008959EB581E0911101C080E0F7
:1007200008956091760080E091E0F8CB883011F078
:10073000823021F4809176008F5F09C0813049F4C6
:1007400080917600811102C08EE001C081508093BB
:100750007600089540E051E0BC0180E091E0B6CB26
:100760009F92AF92BF92CF92DF92EF92FF920F9340
:100770001F93CF93DF93EB018A01C59889D480E062
:10078000B1D5688179818A819B813BD59FD4982E90
:1007900080E1981224C098D4488159816A817B8174
:1007A000C801CDDBBEDF81E09DD5688179818A817A
:1007B0009B8120E030E040E059E0AADAA12CE4E29D
:1007C000BE2EF4EFCF2ED12CE12CF12C00E010E066
:1007D000C8DAB901CA0156DE36DF76D405C084E036
:1007E000981202C0CE014BD6892DDF91CF911F9177
:1007F0000F91FF90EF90DF90CF90BF90AF909F90C0
:1008000095CF20E090E0E92FF0E0E050FF4F20830B
:10081000280F9F5FC1F70895CF93DF93CDB7DEB761
:100820006E970FB6F894DEBF0FBECDBF0CDFBD9A3A
:10083000BB9A8FE185BB0FEF19EF20E0015010400C
:100840002040E1F700C0000082E39C991BC03FEF0D
:1008500041EE54E0315040405040E1F700C000000C
:10086000815099F780E122D440E550E068E673E0DA
:1008700086E790E02BDB40E550E060E071E086E742
:1008800090E03DDB82E383BD8AE185BD8FEF91EE91
:1008900004E0815090400040E1F700C00000D5D84E
:1008A000D0D840E550E060E071E086E790E017DBEB
:1008B000412C512C612CB0E97B2EE09176008E2FDB
:1008C00090E08F30910508F0D8C3FC01ED5EFF4F3A
:1008D000099488E692E03EDF41E051E067E770E08E
:1008E00081E691E008C081E08CDF45E051E06BE7F4
:1008F00070E086E591E034DFE0CF8FEF82DF49E002
:1009000051E06FE770E08AE491E0F5CF91E081E09B
:10091000E82FF0E0E050FF4F908387FD02C09E5F1C
:1009200001C092508F5FA1F7109200014DE051E09D
:1009300063E870E08FE391E0DECF88E691E00ADFC4
:1009400041E151E067E870E089E391E0D4CFC598D8
:1009500082E191E09DD380E0C5D4B8D3182F8031D7
:1009600009F05AC2B1D3DDDE81E0BCD49C9B45C204
:100970009EDA82BBFBCFC59A85E091E089D380E007
:10098000B1D460918B0070918C0080918D0090911A
:100990008E0037D49BD3382E10E1811333C094D30B
:1009A000C0DE40918B0050918C0060918D00709161
:1009B0008E0085E191E0C3DA81E094D460918B00F0
:1009C00070918C0080918D0090918E0020E030E03D
:1009D00040E059E09DD9A12CE4E2BE2EF4EFCF2EE9
:1009E000D12CE12CF12C00E010E0BBD949015A01D7
:1009F000C501B401660F771F881F991F53DD23DEE1
:100A000063D306C024E0821303C08BE890E037D59F
:100A1000832D31C3C59A17DE80E091E039D39EB5AE
:100A200081E0911101C080E05DD460918F007091F0
:100A300090008091910090919200E3D38CEF90E030
:100A400027D380919300D8D380919400813019F4FA
:100A500087EF90E004C0823019F482EF90E018D361
:100A600035D3182F8031F1F42FD38EB5882311F0B0
:100A7000F2DD24C081E036D460918F007091900047
:100A80008091910090919200209194004091930068
:100A9000E5DD47DE46E050E069E171E08FE890E097
:100AA0002EDA0CC0843051F48FE890E0E8D4EBD417
:100AB0008EB5811103C04ED6809394008EB58111FE
:100AC000FCCEAAC1C59A86EE90E0E2D280E00AD4BC
:100AD0006091950070919600809197009091980098
:100AE00090D3F4D2182F8031F1F4EED21ADE409177
:100AF00095005091960060919700709198008FE159
:100B000091E01DDA81E0EED360919500709196003E
:100B1000809197009091980020E042E39FDD9C999E
:100B2000FECF99DD6BC1843009F076C136D674C131
:100B3000C5988EED90E0ACD28091AB00813019F475
:100B40008AED90E004C0823019F486ED90E0A0D2E6
:100B500080E0C8D34091A1005091A2006091A30011
:100B60007091A4008091990090919A00A0919B00AF
:100B7000B0919C00480F591F6A1F7B1F80919D00F8
:100B800090919E00A0919F00B091A000480F591F26
:100B90006A1F7B1F8091A5009091A600A091A700DD
:100BA000B091A8008A019B01080F191F2A1F3B1F43
:100BB000C901B80174D38AD2182F803109F073C0EB
:100BC00083D2AFDD43E150E063E271E089E990E078
:100BD00096D98DE034D78091AB00813069F482EDF5
:100BE00090E056D29D9B05C09C99FCCF07C19C9B71
:100BF00005C19D9BFCCF09C0823039F48EEC90E09A
:100C000047D29D9B4AC09D994BC081E06BD32091F8
:100C1000990030919A0040919B0050919C00C30133
:100C2000B20144D829833A834B835C8320919D0091
:100C300030919E0040919F005091A000C301B201ED
:100C400035D82D833E834F8358872091A100309162
:100C5000A2004091A3005091A400C301B20126D884
:100C600029873A874B875C872091A5003091A600A1
:100C70004091A7005091A800C301B20117D82D8759
:100C80003E874F87588B8091A9009091AA009A8B3C
:100C9000898BCE01019614DCB0C09C99B2CFAEC056
:100CA0009C99B1CFABC0843009F0B6C066EC70E05F
:100CB00089E990E018D460EC70E08DE990E013D4FD
:100CC00068EB70E081EA90E00ED461EB70E085EAB9
:100CD00090E009D494D41BD58093AB009DC023EA47
:100CE00030E03A8329834BE950E05C834B8380E911
:100CF00090E09E838D83C5988091AC00833010F086
:100D00001092AC0085E890E0C3D18091AC00FE0168
:100D10003196E80FF11DE80FF11D80819181B8D166
:100D200080E0E0D2D3D1182F803169F4CDD1F9DC45
:100D30006091AC0086E391E0F1D881E0D3D280915C
:100D4000AC007BD75BC0843009F066C08091AC00FA
:100D50008F5F8093AC0060C0C5988FE790E098D11A
:100D600080E0C0D26091AD007091AE008091AF0084
:100D70009091B00046D280E283D16091B100709131
:100D8000B2008091B3009091B4003BD29FD1182F54
:100D90008031B1F599D1C5DC48E050E067E371E0FE
:100DA0008DEA90E0ACD881E09DD288E692E0D2DC7A
:100DB0008091B1009091B200A091B300B091B400C5
:100DC0007727662720EA3BE040E050E06FD76901D3
:100DD0007A018091AD009091AE00A091AF00B091EA
:100DE000B0007727662720EA3BE040E050E05ED77E
:100DF000CA01B901A7019601C0DB25DC65D10CC091
:100E0000843051F46DEA70E08AE790E078D261EBCB
:100E100070E085E790E073D2812F2DC1C5988EE6F2
:100E200090E036D180E05ED26091B5007091B6005E
:100E30008091B7009091B800E4D18EE321D1609108
:100E4000B9007091BA008091BB009091BC00D9D1DB
:100E50003DD1982E90E1891372C036D162DC88E6CC
:100E600092E078DC4CE050E06FE371E085EB90E0DD
:100E700046D881E037D26091BD007091BE0080916C
:100E8000BF009091C0000091B9001091BA0020916C
:100E9000BB003091BC000B8B1C8B2D8B3E8B2091AB
:100EA000B5003091B6004091B7005091B8002F8B3B
:100EB000388F498F5A8F20E030E040E059E028D742
:100EC000A12CE4E2BE2EF4EFCF2ED12CE12CF12C9C
:100ED00000E010E046D7822E332E242E5B8F6B89E4
:100EE0007C898D899E8920E030E040E059E010D770
:100EF00038D72B8B3C8F4D8F5E8F6F89788D898D86
:100F00009A8D20E030E040E059E002D72AD7B22F96
:100F1000A32FF42FE52FE82CF32C022D1B8D2B890A
:100F20003C8D4D8D5E8D6B2F7A2F8F2F9E2F4DDB3D
:100F30009C99A1CF88DB80E0D5D1C6D012C034E027
:100F400083130FC065EB70E085E690E0D8D169EBC4
:100F500070E08EE590E0D3D16DEB70E087E590E036
:100F6000CED1892D88C0C59ABA98C29889E490E0FC
:100F70008FD06091C1007091C2008091C3009091A8
:100F8000C4008DD180E0AED1A1D0182F803109F0FE
:100F90005DC09AD040E051E060E070E080E091E018
:100FA0009ED7BFDB4091C1005091C2006091C30049
:100FB0007091C4008BE491E0C2D781E093D140915D
:100FC000C1005091C2006091C3007091C4001FBC69
:100FD00094E0440F551F661F771F9A95D1F7415033
:100FE0005109610971094F3F8FEF5807610571057C
:100FF00018F499E09EBD06C00CE00EBD452F562F9B
:10100000672F77275BBD4ABD80E0E82FF0E0E05016
:10101000FF4F90819038C1F39923A1F014F0BA9852
:1010200009C0BA9A919506C09C9B0CC008B604FEF4
:10103000FBCF9150992321F028B7206128BFF6CF2C
:101040008F5FE3CFBA981EBC3FD008C0843031F424
:1010500064E470E081EC90E046D2FDD3812F66DB42
:10106000809176008D3009F428CCEDDA26CC8AE127
:1010700091E00ED02BD05ADB20CC109276001DCC04
:101080008D3009F4DEC48A3011F480E4D8C4DBC4A6
:10109000CF93DF93FC018491EF012196882319F00F
:1010A000EFDFFE01F8CFDF91CF91089593B398233E
:1010B00051F42FEF39EF90E0215030409040E1F7AC
:1010C00000C00000F3CF089580E1F0CF0F931F938D
:1010D000CF93DF931F92CDB7DEB715B304B384B3BC
:1010E000807E84BB85B38F6185BB999B02C09C9930
:1010F000FCCF8FE19EE40197F1F700C000009999C1
:1011000002C09C99FCCF9C9915C085E09FEF21EE11
:1011100034E0915020403040E1F700C000009C993D
:1011200004C0815099F784E001C080E18983CCDF5D
:10113000898105C0989B02C082E001C081E015BB97
:1011400004BB0F90DF91CF911F910F9108958F9263
:101150009F92AF92BF92DF92EF92FF920F931F93F5
:10116000CF93DF93CDB7DEB72C970FB6F894DEBFE1
:101170000FBECDBFD42E022F10E03AE0832E912C6B
:10118000A12CB12C1F5FEE24E394F12CEC0EFD1E7C
:10119000E10EF11CA501940189D5605DF701608322
:1011A000B901CA01611571058105910559F701174A
:1011B00070F4E1E0F0E0EC0FFD1FE10FF11D808124
:1011C0005FDF1D1102C08EE23ED41150F0CF2C968D
:1011D0000FB6F894DEBF0FBECDBFDF91CF911F9148
:1011E0000F91FF90EF90DF90BF90AF909F908F9006
:1011F000089520E040E0ABCF682F70E080E090E001
:10120000F8CFCF93DF93603127E272078105910514
:1012100058F420917600273001F5693E23E07207EB
:1012200081059105D0F01FC0603A26E8720721E0E1
:101230008207910538F420917600DBE4273081F0B5
:10124000C1E013C0603422E472072FE082079105E9
:1012500050F0DDE4C4E047E009C0D0E0C0E001C0E8
:10126000C3E040E003C0DBE4C2E044E02C2F6FDFCA
:10127000DD2311F08D2F04DF88E494E009DF61E0C5
:1012800070E080E090E0CC2339F0AAE0B0E09B0170
:10129000AC012ED5C150F7CFDF91CF910895CF93F8
:1012A000DF93683E23E072078105910550F0DDE68B
:1012B000603127E272078105910540F0C4E622E023
:1012C00007C0D5E7C1E020E040E003C0CAE021E06C
:1012D00044E03DDF8D2FD4DE83E7B5D38C2FDF9143
:1012E000CF910895CF93C82F8DE0A9D3CC2319F0C7
:1012F00083E494E002C08EE394E0CF91C9CE2F92B4
:101300003F924F925F926F927F928F929F92AF9295
:10131000BF92CF92DF92EF92FF920F931F93CF93E2
:10132000DF9300D000D0CDB7DEB71C018B01DB010D
:10133000CD90DD90ED90FC90812C912C540180910A
:10134000760086508630A0F490E0FC01EE0FFF1F7F
:101350008E0F9F1FFC01EC59FF4F80819181A2816C
:101360009C014A2F50E029833A834B835C8308C059
:1013700087E092EBA1E0B0E089839A83AB83BC83E2
:10138000C10186DEC701B6013CDF2B013C01C7016C
:10139000B601A30192018AD4C61AD70AE80AF90A4B
:1013A00084149504A604B70410F45301420186E3A3
:1013B00094E06EDEC501B40124DF88DE813051F493
:1013C0008C149D04AE04BF0468F5C818D908EA0857
:1013D000FB0828C049805A806B807C8048185908D7
:1013E0006A087B08823051F4C414D504E604F7047B
:1013F000C8F4C80CD91CEA1CFB1C14C0803181F451
:10140000AAE0B0E0A501940173D44B015C0146163B
:1014100057066806790630F4812C912C540102C0DD
:10142000843081F080917600873009F088CF73D9BD
:10143000882309F484CF20E040919300C701B601CE
:101440000DD97DCFD801CD92DD92ED92FC9213970C
:101450000F900F900F900F90DF91CF911F910F91F0
:10146000FF90EF90DF90CF90BF90AF909F908F90C4
:101470007F906F905F904F903F902F900895BC01A8
:1014800082E394E03CCFCF93C09193008DE294E04F
:10149000FFDD6C2F70E080E090E0ABDE81E294E055
:1014A000F7DD14DE813021F4C23050F0C15008C0A5
:1014B000823021F4C33620F4CF5F02C0843079F04B
:1014C0002AD9882319F360918F0070919000809140
:1014D00091009091920020E04C2FC0D8D7CFC093BC
:1014E0009300CF9108954F925F926F927F928F9267
:1014F0009F92AF92BF92CF92DF92EF92FF920F93A3
:101500001F93CF93DF93EC018B01C880D980EA80D1
:10151000FB80812C912C54018394C801B9DDC70153
:10152000B601BDDE482E512C612C712CC701B601CD
:10153000A3019201BBD3C61AD70AE80AF90A841498
:101540009504A604B70410F45301420189E194E024
:101550009FDDC501B401A3DEB9DD813079F4D50189
:10156000C4010296A11DB11DC816D906EA06FB06E4
:10157000A0F2C818D908EA08FB08CFCF8230A1F43E
:10158000C80CD91CEA1CFB1C81E4C81682E4D806EE
:101590008FE0E806F10408F280E4C82E82E4D82E39
:1015A0008FE0E82EF12CB9CF803189F4AAE0B0E0C9
:1015B000A50194019DD34B015C0181EA881686E860
:1015C000980681E0A806B10408F4A7CFA2CF843022
:1015D00009F0A3CFC882D982EA82FB82DF91CF9142
:1015E0001F910F91FF90EF90DF90CF90BF90AF9041
:1015F0009F908F907F906F905F904F900895FF9293
:101600000F931F93CF93DF93C091A900D091AA00AD
:1016100001E010E08AE0F82E85E194E039DD2097C2
:1016200029F0BE0180E090E0E4DD03C082E194E0B7
:101630002FDD8AE094E02CDDB80180E090E0D9DD78
:1016400045DD813031F4C017D10730F3C01BD10B19
:10165000E3CF823049F4C80180959095C817D90727
:10166000D8F6C00FD11FD8CF803171F4003187E296
:10167000180718F001E010E0CFCFC801F89E8001F4
:10168000F99E100D1124C8CF843031F6D093AA00F2
:10169000C093A900DF91CF911F910F91FF90089502
:1016A000AF92BF92CF92DF92EF92FF920F931F9370
:1016B000CF937C016B01C0E0042F10E001501109B1
:1016C000C701E6DCAC2EB12CF501EE0FFF1FEC0DCF
:1016D000FD1D80819181DCDCF9DC813021F4CC239B
:1016E00079F3C150EDCF823029F4A016B10644F74A
:1016F000CF5FE6CF843021F78C2FCF911F910F91D0
:10170000FF90EF90DF90CF90BF90AF900895CF9370
:10171000DF9300D000D000D0CDB7DEB787E094E0F3
:101720009A83898381E094E09C838B838BEF93E0A1
:101730009E838D8343E0BE016F5F7F4F80EF93E018
:10174000AFDF26960FB6F894DEBF0FBECDBFDF9198
:10175000CF910895CF93DF9300D000D000D0CDB7C4
:10176000DEB78DEE93E09A83898388EE93E09C83C5
:101770008B8384EE93E09E838D8343E0BE016F5F95
:101780007F4F88ED93E08CDF26960FB6F894DEBF8E
:101790000FBECDBFDF91CF910895CF92DF92EF9230
:1017A000FF92C0909500D0909600E0909700F09046
:1017B000980084ED93E06CDCC701B60122DD8AEC71
:1017C00093E066DC83DC813069F489E4C81688EE36
:1017D000D80681E0E806F10460F3F694E794D79424
:1017E000C794E7CF823061F4C11482E1D8068AE75A
:1017F000E806F104F0F6CC0CDD1CEE1CFF1CD9CF82
:101800008430B9F6C0929500D0929600E09297008D
:10181000F0929800FF90EF90DF90CF9008958111A3
:1018200003C086EC93E004C0803819F482EC93E0A6
:101830002FCC682F87FF07C0619570E080E090E0B3
:10184000D8DC8CE407C0062E000C770B880B990BB4
:10185000D0DC88E4F8C0CF92DF92EF92FF920F9332
:101860001F93CF93DF9340E051E060E070E080E0B1
:1018700091E035D312E000E0E4D0C02FD0E0CE01FB
:1018800080509F4F7C01FC018081C9DF111102C093
:101890008CE303C0113011F48EE3D5D0CE018F5FFD
:1018A0009E4F6C01FC018081BADF8CE2CCD0F70145
:1018B0008281B5DFF7018381B2DF8CEB93E0E8DB57
:1018C000602F669570E080E090E093DC88EB93E019
:1018D000DFDB2091C1003091C2004091C3005091E4
:1018E000C400F701A081A03809F4A0E00A2E000C82
:1018F000BB0BB7FF03C0B195A195B109F60190816B
:10190000903809F490E0892F990F990B97FF03C045
:10191000919581959109A80FB91FF4D1C0DCD6DB50
:10192000813059F4123011F40250A6CFC10FD11DED
:10193000C050DF4F888181500CC0823061F412307A
:1019400011F40E5F99CFC10FD11DC050DF4F8881B8
:101950008F5F888391CF803131F4111102C012E082
:101960008BCF115089CF843009F086CF40E051E011
:1019700060E070E080E091E0DF91CF911F910F91E6
:10198000FF90EF90DF90CF90BAC2C1980895C19AAE
:101990000895CF93DF93C82FD62F662311F0C09AF6
:1019A00001C0C098C7FF02C0A89A01C0A898C6FF8E
:1019B00002C0A99A01C0A998C5FF02C0AA9A01C095
:1019C000AA98C4FF02C0AB9A01C0AB9800C0DFDF89
:1019D00082E08A95F1F700C0D8DFC3FF02C0A89A61
:1019E00001C0A898C2FF02C0A99A01C0A998C1FF6E
:1019F00002C0AA9A01C0AA98C0FF02C0AB9A01C057
:101A0000AB9800C0C4DF92E09A95F1F700C0BDDF4B
:101A1000A89AA99AAA9AAB9AD11108C0C43030F4F6
:101A20008FE999E10197F1F700C003C095ED9A9510
:101A3000F1F70000DF91CF91089560E0AACF8058C0
:101A4000FCCF81E0FACF61E0A4CFB99AB89AA09A0E
:101A5000A19AA29AA39A99DFC098A89AA99AAA9A39
:101A6000AB9A8FE59AEE0197F1F700C00000A898B5
:101A7000A99800C08CDF92E09A95F1F700C085DF4D
:101A80008FE090E40197F1F700C0000080DF92E062
:101A90009A95F1F700C079DF8FE891E00197F1F7AF
:101AA00000C0000074DF92E09A95F1F700C06DDF8E
:101AB00085ED8A95F1F70000AB9800C068DF92E0F1
:101AC0009A95F1F700C061DF85ED8A95F1F7000086
:101AD000AB9800C05CDF92E09A95F1F700C055DF4B
:101AE00082E08A95F1F700C0A89A00C050DF92E02A
:101AF0009A95F1F700C049DF85ED8A95F1F700006E
:101B000088E09BDF9EDF86E098DF8CE096CF12BAFC
:101B100080EA8A95F1F78FE082BB8AE08A95F1F737
:101B200000C0089512BA8AE08A95F1F700C08FE0EC
:101B300082BB80EA8A95F1F7089512BA8AE18A9504
:101B4000F1F700C08FE082BB85E28A95F1F70000D3
:101B50000895CF93DF93C1E3D1E0EFDF83E382BB4E
:101B6000855090E29A95F1F78B30C9F785E08A9518
:101B7000F1F70000219789F7DF91CF910895AF9297
:101B8000BF92CF92DF92EF92FF920F931F93CF936A
:101B9000DF9300D01F92CDB7DEB791E3E92EFF248B
:101BA000F39423E3A22E10E00FE03FE0D32E3C2D70
:101BB0004B2D9A2D112339F416E2082E892F902DE2
:101BC0003FE04FE007C000001A950000382F0000EA
:101BD000492F0000C32EB42EA92E3A834B8389834C
:101BE000ACDF24E089814B813A8102BB0000000018
:101BF00032BB90E29A95F1F702BB0000000042BBB5
:101C000090E29A95F1F7215081F7D2BA91E0E91A62
:101C1000F10809F0CCCF0F900F900F90DF91CF918A
:101C20001F910F91FF90EF90DF90CF90BF90AF90FA
:101C3000089583E3A4CF8FE0A2CFCF93DF938130C9
:101C400031F040F0823079F5CBE1DEE005C0C9E14A
:101C5000DEE002C0C9EADDE012BA9C9B23C057DF78
:101C600056DF55DF54DF53DF5DDF5CDF5BDF5ADFBC
:101C700059DFFE01099556DF55DF54DF53DF52DF90
:101C800046DF45DF44DF43DF42DF4CDF4BDF4ADF27
:101C900049DFFE01099546DF45DF44DF43DF42DFD0
:101CA00041DFDBCF12BADF91CF910895A1E21A2E66
:101CB000AA1BBB1BFD010DC0AA1FBB1FEE1FFF1FF0
:101CC000A217B307E407F50720F0A21BB30BE40B40
:101CD000F50B661F771F881F991F1A9469F7609587
:101CE0007095809590959B01AC01BD01CF01089541
:101CF00082D0A59F900DB49F900DA49F800D911D43
:101D000011240895B7FFF4CFF3DF821B930B0895DE
:101D1000E894DF93CF93FC01DB016DD07F936F9349
:101D2000E9019A01AC01BF93AF933F932F93DF0179
:101D300062D026F46C1B7D0B820B930B9E01EB0192
:101D4000FC0165D0AF91BF912F913F9160D0BE0152
:101D5000CF01F9012F913F91CF91DF9108956894C0
:101D600001C0E8948F929F92CF93DF9305D0DF91CB
:101D7000CF919F908F90089588249924F401E401D5
:101D8000B0E41B2ED4019D158E049F04E007F107DB
:101D900038F4FC014B01CA01B901AD019E01169452
:101DA000220F331F441F551F661F771F881F991F5F
:101DB000881C991CEE1FFF1FCC1FDD1FAA1FBB1F15
:101DC0008A149B04EC05FD05CE05DF05A007B107CD
:101DD00048F08A189B08EC09FD09CE09DF09A00B21
:101DE000B10B21601A94E1F62EF49401AF01BE010B
:101DF000CD01000C0895A29FB001B39FC001A39F25
:101E000001D0B29F700D811D1124911D0895F3DF43
:101E1000460F571FC81FD91F08F4319608958F9297
:101E20009F92AF92BF92CF92DF92EF92FF92CF93A9
:101E3000DF93EC01688179818A819B81611571054D
:101E40008105910521F464E279ED8BE597E02DE1C0
:101E500033EF41E050E07BD049015A019B01AC01D6
:101E6000A7EAB1E445DF6B017C01ACEEB4EFA5015C
:101E700094014ADFDC01CB018C0D9D1DAE1DBF1D01
:101E8000B7FF03C00197A109B04888839983AA834B
:101E9000BB839F77DF91CF91FF90EF90DF90CF9042
:101EA000BF90AF909F908F900895B9DF089580E61E
:101EB00090E0B5DF0895A0E0B0E0809360009093DB
:101EC0006100A0936200B09363000895FB01DC0100
:101ED00002C005900D9241505040D8F70895DC01A2
:101EE000CB01FC01E199FECF06C0FFBBEEBBE09A3F
:101EF00031960DB20D9241505040B8F70895DC0173
:101F0000A40FB51F4150504040F0CB01840F951FE6
:101F10002E9105D041505040D8F70895262FE199D1
:101F2000FECF9FBB8EBBE09A01970DB2021631F037
:101F30002DBB0FB6F894E29AE19A0FBE089503966E
:101F4000272FEDDFEBDF252FEADF242FE8CF052E4B
:101F500097FB16F400940FD057FD05D0A7DE07FCC1
:101F600002D046F408C050954095309521953F4FDA
:101F70004F4F5F4F089590958095709561957F4F75
:0A1F80008F4F9F4F0895F894FFCF94
:101F8A000100000020A107A0860107B20107B201E3
:061F9A0007B20110270050
:00000001FF
