:1000000062C37CC37BC37AC379C378C377C376C327
:1000100075C374C373C372C371C370C36FC36EC33C
:100020006DC36CC36BC32CC87CC584C58DC595C519
:100030009DC5B1C50EC8CAC503C66BC6ABC60D4EBD
:1000400044445320564552302E31310A5349474ECD
:10005000414C2047454E455241544F52000D545695
:1000600020564944454F20000D546F66663D000DF3
:100070005466616C6C3D000D546F6E3D000D547202
:100080006973653D00573A4600573A52004E4F009B
:1000900075732054523A00543D000D50554C534551
:1000A00020000D4849474820535045454420002032
:1000B000453D4C0020453D480020443D000D505733
:1000C0004D20000D53515541524520574156452072
:1000D000000D4E4F49534520000D45434720000D6C
:1000E000545249414E474C4520000D5253415754FC
:1000F0004F544820000D534157544F544820000D91
:1001000053494E452000494A4B4B4A4949494948C1
:10011000474544434343444443413E3D3B393837DC
:10012000373636363737373737373635333231317A
:10013000343D4D6584A9CFEEFFFEEAC69A6D442595
:1001400011050001060D141C242D34393D40414297
:100150004344444546474747474747474748484839
:1001600049494A4B4B4C4D4E4F505152535456589F
:100170005B5D60626466686B6D707376797B7D7EB3
:100180007F7F7F7F7F7E7D7C797774716D6966620A
:100190005F5C595754514F4D4C4B4A494846454472
:1001A0004343434444444545454545454546474802
:1001B00049494A4A4B4B4B4B4B4B4A4A494949499F
:1001C00048484847474747474747464646454545C5
:1001D00045454646464544444343434342424241E3
:1001E0004141414141414140403F3F404041414107
:1001F00041414141404040404040404041414142F6
:1002000043444547484900020406080A0C0E1012F0
:100210001416181A1C1E20222426282A2C2E3032AE
:100220003436383A3C3E40424446484A4C4E50529E
:100230005456585A5C5E60626466686A6C6E70728E
:100240007476787A7C7E80828486888A8C8E90927E
:100250009496989A9C9EA0A2A4A6A8AAACAEB0B26E
:10026000B4B6B8BABCBEC0C2C4C6C8CACCCED0D25E
:10027000D4D6D8DADCDEE0E2E4E6E8EAECEEF0F24E
:10028000F4F6F8FAFCFEFFFDFBF9F7F5F3F1EFEFFA
:10029000EBE9E7E5E3E1DFDDDBD9D7D5D3D1CFCF9C
:1002A000CBC9C7C5C3C1BFBDBBB9B7B5B3B1AFAF8C
:1002B000ABA9A7A5A3A19F9D9B99979593918F8F7C
:1002C0008B89878583817F7D7B79777573716F6F6C
:1002D0006B69676563615F5D5B59575553514F4F5C
:1002E0004B49474543413F3D3B39373533312F2F4C
:1002F0002B29272523211F1D1B19171513110F0F3C
:100300000B0907050301FFFEFDFCFBFAF9F8F7F600
:10031000F5F4F3F2F1F0EFEEEDECEBEAE9E8E7E605
:10032000E5E4E3E2E1E0DFDEDDDCDBDAD9D8D7D6F5
:10033000D5D4D3D2D1D0CFCECDCCCBCAC9C8C7C6E5
:10034000C5C4C3C2C1C0BFBEBDBCBBBAB9B8B7B6D5
:10035000B5B4B3B2B1B0AFAEADACABAAA9A8A7A6C5
:10036000A5A4A3A2A1A09F9E9D9C9B9A99989796B5
:100370009594939291908F8E8D8C8B8A89888786A5
:100380008584838281807F7E7D7C7B7A7978777695
:100390007574737271706F6E6D6C6B6A6968676685
:1003A0006564636261605F5E5D5C5B5A5958575675
:1003B0005554535251504F4E4D4C4B4A4948474665
:1003C0004544434241403F3E3D3C3B3A3938373655
:1003D0003534333231302F2E2D2C2B2A2928272645
:1003E0002524232221201F1E1D1C1B1A1918171635
:1003F0001514131211100F0E0D0C0B0A0908070625
:1004000005040302010000010203040506070809B0
:100410000A0B0C0D0E0F10111213141516171819C4
:100420001A1B1C1D1E1F20212223242526272829B4
:100430002A2B2C2D2E2F30313233343536373839A4
:100440003A3B3C3D3E3F4041424344454647484994
:100450004A4B4C4D4E4F5051525354555657585984
:100460005A5B5C5D5E5F6061626364656667686974
:100470006A6B6C6D6E6F7071727374757677787964
:100480007A7B7C7D7E7F8081828384858687888954
:100490008A8B8C8D8E8F9091929394959697989944
:1004A0009A9B9C9D9E9FA0A1A2A3A4A5A6A7A8A934
:1004B000AAABACADAEAFB0B1B2B3B4B5B6B7B8B924
:1004C000BABBBCBDBEBFC0C1C2C3C4C5C6C7C8C914
:1004D000CACBCCCDCECFD0D1D2D3D4D5D6D7D8D904
:1004E000DADBDCDDDEDFE0E1E2E3E4E5E6E7E8E9F4
:1004F000EAEBECEDEEEFF0F1F2F3F4F5F6F7F8F9E4
:10050000FAFBFCFDFEFF808386898C8F9295989C78
:100510009FA2A5A8ABAEB0B3B6B9BCBFC1C4C7C992
:10052000CCCED1D3D5D8DADCDEE0E2E4E6E8EAEC02
:10053000EDEFF0F2F3F5F6F7F8F9FAFBFCFCFDFE4F
:10054000FEFFFFFFFFFFFFFFFFFFFFFFFEFEFDFCC3
:10055000FCFBFAF9F8F7F6F5F3F2F0EFEDECEAE868
:10056000E6E4E2E0DEDCDAD8D5D3D1CECCC9C7C42C
:10057000C1BFBCB9B6B3B0AEABA8A5A29F9C9895BD
:10058000928F8C898683807C797673706D6A6763BD
:10059000605D5A5754514F4C494643403E3B3836B4
:1005A00033312E2C2A272523211F1D1B1917151324
:1005B00012100F0D0C0A09080706050403030201B7
:1005C0000100000000000000000000000101020323
:1005D000030405060708090A0C0D0F10121315175E
:1005E000191B1D1F212325272A2C2E313336383B7A
:1005F0003E404346494C4F5154575A5D6063676AC9
:100600006D707376797C01E8030000E8030000E870
:10061000030000E8030000E8030000E8030000E82E
:10062000030000320040420F00640000006400003C
:100630000064000000640000000000000D455854F4
:100640002053594E433A20004C4F570048494748E1
:10065000004E4F000D547269676765723A2000467C
:10066000414C4C20005249534520004E4F000A286F
:100670002B2F2D2920004E44000D4E3D0075730098
:1006800075730A282B2F2D292000250A282B2F2DA2
:100690002920312520000D44433D004D487A0A2889
:1006A0002B2F2D29783220000D463D000A282B2FB4
:1006B0002D2920000D463D004F46460A004F4E2092
:1006C0000A00487A000011241FBECFE5D4E0DEBF47
:1006D000CDBF20E0A4E6B0E001C01D92AD39B20765
:1006E000E1F710E0A0E6B0E0E8EDFDE102C0059022
:1006F0000D92A436B107D9F7A5D16CCB81CC2F933D
:100700003F93F1E0E0E022273327260F371FE81F51
:10071000008002BA9C99F9CF3F913F9108952F93A1
:100720003F93F4E0E0E02227332708B2260F371F7B
:10073000E81F08F40F2608BA9C99F8CF3F913F9123
:100740000895AF93BF937F936F935F934F933F93BE
:100750002F93F92FE82FA089B189E894BB2319F4CE
:10076000AA2309F46894508161817281222733277A
:100770004427250F361F471F28F0000042BB9C99D5
:10078000F8CF34C02FEF22BB5481658176812227B8
:1007900033274427250F361F471F28F0000000008D
:1007A0009C99F8CF23C05085618572852FEF3FEF6C
:1007B0004FEF251B360B470B442329F0000042BBAB
:1007C0009C99F7CF13C054856585768522273327FA
:1007D0004427250F361F471F28F0000000009C9972
:1007E000F8CF04C016F0119709F0BDCF12BA2F91BF
:1007F0003F914F915F916F917F91BF91AF9108951C
:1008000017E81A95F1F708950F931F930AE0809562
:10081000089410F4C49802C0C49A0000F1DFF0DF1D
:1008200086950A95B1F71F910F9108950F931F9325
:1008300009E0B599FECFE4DFE3DFE2DF8894B59904
:1008400008940A9511F08795F7CF90E01F910F91CA
:100850000895CF92DF92EF92FF920F931F938B0137
:100860009C01C298BA9A80E28FBDC42ED12CE12C93
:10087000F12C0338110521053105C8F060E072E163
:100880008AE790E0A90198014ED921503109410928
:10089000510937BD26BDC701B60136D924E630E07F
:1008A00040E050E040D939BD28BD81E118C062E187
:1008B0007AE780E090E0A901980135D9215031090B
:1008C0004109510937BD26BDC701B6011DD924E62E
:1008D00030E040E050E027D939BD28BD84E18EBD2D
:1008E0001F910F91FF90EF90DF90CF900895AF92FE
:1008F000BF92CF92DF92EF92FF920F931F93CF930D
:10090000DF9312BA9C0140E050E060E070E080E0CC
:1009100090E000E180D9E0E2AE2EFBE1BF2EC12CD9
:10092000D12CE12CF12C00E010E02BD9B901CA0147
:10093000E6DE12BADF91CF911F910F91FF90EF90F9
:10094000DF90CF90BF90AF900895AF92BF92CF92BB
:10095000DF92EF92FF920F931F93CF93DF93C29892
:10096000BA9ADC01CB019C01AD0160E070E080E04F
:1009700090E000E150D9E0E9AE2EFDE0BF2EC12CA1
:10098000D12CE12CF12C00E010E0FBD8B901CA0118
:10099000C6DEC298BA98DF91CF911F910F91FF9058
:1009A000EF90DF90CF90BF90AF900895EF92FF92BD
:1009B0000F931F93CF93DF938B01EA01790177D3D4
:1009C00080E0D6D4688179818A819B8175D48BD36C
:1009D0008031F9F400D4488159816A817B81C70153
:1009E000CFD96091670080E090E0B9D981E0C0D4B0
:1009F00040E051E0B80180E091E089D98881998197
:100A000076DF80E1DF91CF911F910F91FF90EF9002
:100A1000E2C3883031F4809167008F5F8093670074
:100A20000AC0843041F4CE01DF91CF911F910F9124
:100A3000FF90EF90ACC4DF91CF911F910F91FF9089
:100A4000EF900895CF93DF93CDB7DEB762970FB6DF
:100A5000F894DEBF0FBECDBF28B381E090E001C0A7
:100A6000880F2A95EAF7886187BB88B380E388BB43
:100A700014BA8FE185BB12BA8FEF81BB0FEF19EF6C
:100A800020E0015010402040E1F700C000009A999A
:100A90001BC03FEF83E294EF315080409040E1F77C
:100AA00000C000009A9910C084E095D346E350E05E
:100AB00066E076E087E690E02AD946E350E060E021
:100AC00070E087E690E03CD9BB9A82E383BD8AE17F
:100AD00085BD0FEF11EE24E0015010402040E1F7FA
:100AE00000C0000033D72ED746E350E060E070E04E
:100AF00087E690E015D99924939417E0812E0BE0B6
:100B0000702E8AE0682E99E0592EE09167008E2FB2
:100B100090E08C30910508F0B7C2FC01ED5EFF4F0C
:100B2000099421E030E048E650E066E075E08FEFA0
:100B300090E008C025E030E04CE650E066E074E06C
:100B400085EF90E033DFE1CF29E030E040E750E08F
:100B500066E073E08AEE90E0F5CF2DE030E044E708
:100B600050E066E072E08FED90E0ECCF21E130E004
:100B700048E750E066E071E089ED90E017DF4091D2
:100B800078005091790060917A0070917B0081E14A
:100B900090E0F6D8BACF81ED90E089D280E0E8D33A
:100BA000A2D2803169F417D36091670080E090E0B1
:100BB000D6D881E0DDD39C9B5AC29AD882BBFBCFAA
:100BC000883009F0A2CF809367009FCF83EC90E03C
:100BD0006ED280E0CDD360917C0070917D008091D9
:100BE0007E0090917F0068D37ED28031E9F4F3D209
:100BF0006091670080E090E0B2D840917C00509115
:100C00007D0060917E0070917F0085E190E0B8D812
:100C100081E0AED360917C0070917D0080917E0078
:100C200090917F0092DE23C2883019F450926700C1
:100C30006CCF843009F069CF8CE790E0A8D365CF02
:100C40008DEB90E034D280E093D36091800070917E
:100C5000810080918200909183002ED389EB90E0F7
:100C600026D26091840070E080E090E040E0C1D244
:100C700080918500813019F484EB90E004C08230CB
:100C800019F48FEA90E013D22ED2803171F5A3D2FD
:100C90006091670080E090E062D846E050E069E152
:100CA00070E080E890E04CD881E062D360918000F1
:100CB0007091810080918200909183004091840026
:100CC000C8DD9C9B56C080918500813019F49D9BA6
:100CD00008C004C08230A9F79D9903C08FB5806217
:100CE00002C08FB58F7D8FBDECCF883019F4609234
:100CF00067000BCF843009F008CF80E890E047D33D
:100D0000809184003AD4809384009DD5809385009F
:100D1000FCCE82EA90E0CBD180E02AD360918600BD
:100D2000709187008091880090918900C5D2DBD1B5
:100D3000803121F550D26091670080E090E00FD8BB
:100D400040918600509187006091880070918900E1
:100D50008FE190E015D881E00BD36091860070910F
:100D60008700809188009091890042E372DD9C9910
:100D7000FECF1FBC1EBCC298BA9879C1883019F446
:100D800070926700C2CE843009F0BFCE86E890E052
:100D9000ACD3BBCE8AE990E08AD180E0E9D287E982
:100DA00090E085D140919200509193006091940021
:100DB0007091950080918A0090918B00A0918C0099
:100DC000B0918D00480F591F6A1F7B1F80918E00C4
:100DD00090918F00A0919000B0919100480F591F01
:100DE0006A1F7B1F8091960090919700A0919800B8
:100DF000B09199008A019B01080F191F2A1F3B1F00
:100E0000C901B80140E0F5D180E990E050D180916E
:100E10009C00813011F482E503C0823019F486E42D
:100E200036D103C08DE890E042D15DD1803109F028
:100E3000EFC0D1D16091670080E090E090D743E1AE
:100E400050E063E270E08AE890E07AD78DE078D5F0
:100E500080919C00813069F489E890E028D19D9BC5
:100E600005C09C99FCCF03C19C9B01C19D9BFCCFFD
:100E700009C0823039F485E890E019D19D9BC2C049
:100E80009D99C3C081E074D280918A0090918B00BB
:100E9000A0918C00B0918D005C016D019C01A601B8
:100EA00060E070E080E090E000E1B5D6A12CE0E9E0
:100EB000BE2EC12CD12CE12CF12C00E010E061D62B
:100EC00059016A017B018C0120E030E040E051E0F3
:100ED00060E070E080E090E054D629833A834B8351
:100EE0005C8380918E0090918F00A0919000B091D2
:100EF00091005C016D019C01A60160E070E080E062
:100F000090E000E188D6A12CF0E9BF2EC12CD12CB5
:100F1000E12CF12C00E010E034D659016A017B018C
:100F20008C0120E030E040E051E060E070E080E0E3
:100F300090E027D62D833E834F835887809192007F
:100F400090919300A0919400B09195005C016D0187
:100F50009C01A60160E070E080E090E000E15BD6DB
:100F6000A12CA0E9BA2EC12CD12CE12CF12C00E04F
:100F700010E007D659016A017B018C0120E030E0C6
:100F800040E051E060E070E080E090E0FAD5298731
:100F90003A874B875C878091960090919700A0914B
:100FA0009800B09199005C016D019C01A60160E080
:100FB00070E080E090E000E12ED6A12CB0E9BB2EDD
:100FC000C12CD12CE12CF12C00E010E0DAD5590134
:100FD0006A017B018C0120E030E040E051E060E0FC
:100FE00070E080E090E0CDD52D873E874F87588B0D
:100FF00080919A0090919B009A8B898BCE010196EB
:10100000A0DB35C09C993ACF32C09C9939CF2FC014
:10101000883019F48092670078CD843009F075CD5E
:101020006DE770E08AE890E0CAD267E770E08EE88A
:1010300090E0C5D26FE670E082E990E0C0D268E649
:1010400070E086E990E0BBD24BD3DAD380939C006A
:101050005CCD8DE590E02BD080E08AD144D080310A
:1010600049F4B9D081E084D18AE29DE020D580E1C5
:10107000B2D04BCD883009F048CD1092670045CDF5
:101080008EE390E014D02FD0909267003ECDCF93A6
:10109000C82F8D3011F456D407C08A3021F480E473
:1010A0004FD4C0E201C050D48C2FCF91ADCBCF93A1
:1010B000DF93FC018491EF012196882319F0E7DF8B
:1010C000FE01F8CFDF91CF91089588E091E0292FBC
:1010D0002F7119F023B3292321F0990F8150B9F70B
:1010E0000895892F0895EF92FF920F931F93CF9346
:1010F000DF93C5B3D4B384B3807E84BB85B38F61E3
:1011000085BB8FE39FE10197F1F700C0000012E07B
:1011100009E1FF24F39483E0E82E9FEF29EF80E0BC
:10112000915020408040E1F700C0000080916600AF
:10113000882319F08150809366008091650081308A
:1011400071F028F08230A9F0833049F141C0BDDF51
:1011500080936400882309F3F0926500DECF93B397
:10116000809164008923A1F51093650000936600C7
:10117000D4CF93B380916400982339F090916600A6
:10118000992319F01092650018C093B3892329F6AA
:10119000809166008111C1CFE0926500BECF809141
:1011A0006600811115C093B380916400892311F00A
:1011B0001092650085E080936600C5BBD4BB80912A
:1011C0006400DF91CF911F910F91FF90EF900895F0
:1011D00010926500A2CF93B3982351F42FEF39EF0B
:1011E00090E0215030409040E1F700C00000F3CF84
:1011F00008958F929F92AF92BF92CF92DF92EF921B
:10120000FF920F931F93CF93DF93CDB7DEB729974C
:101210000FB6F894DEBF0FBECDBFD42E8E01075F90
:101220001F4F9E012F5F3F4F79012AE0822E912CA4
:10123000A12CB12CA501940176D4605DF8016083E6
:10124000B901CA01015011090E151F0599F7FE01D8
:10125000329610E01F5F8191803331F089E0882E53
:10126000912CCD2CD12C03C01830A1F7F7CFA12E93
:10127000B12CF701EA0DFB1D808109DFC4018A1939
:101280009B098C159D0511F48CE201DF1F5F19305D
:1012900071F729960FB6F894DEBF0FBECDBFDF9170
:1012A000CF911F910F91FF90EF90DF90CF90BF9063
:1012B000AF909F908F900895CF92DF92EF92FF9220
:1012C0000F931F93CF93DF93603127E2720781055D
:1012D000910558F420916700293011F5693E23E00B
:1012E00072078105910528F51BC0603A26E8720750
:1012F00021E08207910540F4209167002930A1F098
:10130000CAE0D0E01BE40AC0603422E472072FE098
:101310008207910570F0C0E1D7E21DE403E00DC043
:10132000C1E0D0E010E003C0C8EED3E01BE400E071
:1013300004C0C4E6D0E01BE402E06E01E12CF12C15
:10134000A7019601F0D3CA01B901402F52DF112342
:1013500011F0812F9CDE82EC96E0A9DECE01DF91B8
:10136000CF911F910F91FF90EF90DF90CF90089554
:10137000CF93C82F8DE0E4D2CC2329F08DE044DA5E
:101380008DEB96E002C088EB96E0CF9190CE4F9225
:101390005F926F927F928F929F92AF92BF92CF9205
:1013A000DF92EF92FF920F931F93CF93DF9300D0C2
:1013B00000D0CDB7DEB78C01DC01CD90DD90ED9093
:1013C000FC9080916700893039F0883051F087E0D7
:1013D00092EBA1E0B0E009C080EA96E8A1E0B0E0BD
:1013E00004C080E291EAA7E0B0E089839A83AB83EE
:1013F000BC83812C912C540184EB96E058DEC7010C
:10140000B6015ADF2C01612C712CC701B601A30172
:10141000920189D3C61AD70AE80AF90A81149104FD
:10142000A104B10411F4530142018CEA96E03FDEBD
:10143000C501B40141DF57DE823079F4D501C40122
:101440000196A11DB11D8C159D05AE05BF05A0F629
:10145000C818D908EA08FB08CFCF813099F48981F0
:101460009A81AB81BC8188199909AA09BB09C81660
:10147000D906EA06FB0608F0BFCFC80CD91CEA1C47
:10148000FB1CBACF883099F490EA891696E8990641
:1014900091E0A906B10418F053014201ADCFAAE0D2
:1014A000B0E0A501940161D34B015C01A5CF84306C
:1014B00009F0A2CFD801CD92DD92ED92FC92139764
:1014C0000F900F900F900F90DF91CF911F910F9180
:1014D000FF90EF90DF90CF90BF90AF909F908F9054
:1014E0007F906F905F904F900895CF92DF92EF9230
:1014F000FF920F931F93CF938C01FC016081718148
:101500008281938120E432E44FE050E00CD3C22F7B
:101510002150283008F0C1E088EA96E0C8DDCC2EE2
:10152000D12CE12CF12C40E0C701B60162DE8BE941
:1015300096E0BDDDD8DD823021F4C13069F3C69577
:10154000EBCF813021F4C83038F7CC0FE5CF8430B1
:1015500019F7A701960160E472E48FE090E0D4D21D
:10156000F8016083718382839383CF911F910F91E0
:10157000FF90EF90DF90CF900895CF93C82F86E92A
:1015800096E095DD8C2F90E0A0E0B0E040E0BC015B
:10159000CD012FDE8AE896E08ADDA5DD823021F4D8
:1015A000C23068F3C150EBCF813021F4C33638F735
:1015B000CF5FE5CF843019F78C2FCF9108954F92EC
:1015C0005F926F927F928F929F92AF92BF92CF92D3
:1015D000DF92EF92FF920F931F93CF93DF93EC0173
:1015E0008B01C880D980EA80FB8081E4C81682E440
:1015F000D8068FE0E806F10428F032E0C32ED12CA3
:10160000E12CF12C412C512C3201439420E4822E08
:1016100022E4922E2FE0A22EB12CC80148DD40E03A
:10162000C701B601E6DD80E896E041DD40E0C30198
:10163000B201DFDD8DE796E03ADD55DD823079F4E9
:10164000D301C2010296A11DB11D8C159D05AE05E9
:10165000BF0518F7C418D508E608F708DECF8130B3
:1016600081F4D501C40184199509A609B709C816E2
:10167000D906EA06FB0688F6C40CD51CE61CF71C46
:10168000CCCF8830A9F480E4481682E458068FE075
:101690006806710428F0412C512C32014394BDCFCF
:1016A000AAE0B0E0A301920160D22B013C01B5CFCA
:1016B000843009F0B2CFC882D982EA82FB82DF91FE
:1016C000CF911F910F91FF90EF90DF90CF90BF903F
:1016D000AF909F908F907F906F905F904F90089504
:1016E0001F93CF93DF93C1E0D0E01AE089E796E043
:1016F000DEDC60919A0070919B006115710529F004
:1017000080E090E040E075DD03C086E796E0CFDC46
:101710008EE696E0CCDCCE01A0E0B0E040E0BC017B
:10172000CD0167DDE0DC823051F480919A00909128
:101730009B008C179D07D0F28C1B9D0B0EC0813037
:1017400089F480919A0090919B009E01209530959C
:101750008217930758F68C0F9D1F90939B008093E0
:101760009A00C4CF883071F4C03187E2D80718F0EE
:10177000C1E0D0E0BBCFCE01189FE001199FD00D92
:101780001124B4CF843009F0B1CFDF91CF911F91F4
:101790000895AF92BF92CF92DF92EF92FF920F9394
:1017A0001F93CF937C016B01C0E0042F10E0015028
:1017B0001109C7017CDCAC2EB12CF501EE0FFF1F27
:1017C000EC0DFD1D8081918172DC8DDC823021F475
:1017D000CC2379F3C150EDCF813029F4A016B106A6
:1017E00044F7CF5FE6CF843021F78C2FCF911F9144
:1017F0000F91FF90EF90DF90CF90BF90AF90089542
:10180000CF93DF9300D000D000D0CDB7DEB78BE60A
:1018100096E09A83898385E696E09C838B838FE5A7
:1018200096E09E838D8343E0BE016F5F7F4F84E52A
:1018300096E0AFDF26960FB6F894DEBF0FBECDBFA1
:10184000DF91CF910895CF93DF9300D000D000D0E7
:10185000CDB7DEB781E596E09A8389838CE496E084
:101860009C838B8388E496E09E838D8343E0BE0156
:101870006F5F7F4F8CE396E08CDF26960FB6F8946F
:10188000DEBF0FBECDBFDF91CF910895C1980895FF
:10189000C19A0895CF93DF93C82FD62F662311F0F6
:1018A000C09A01C0C098C7FF02C0A89A01C0A898FA
:1018B000C6FF02C0A99A01C0A998C5FF02C0AA9A92
:1018C00001C0AA98C4FF02C0AB9A01C0AB9800C087
:1018D000DFDF82E08A95F1F700C0D8DFC3FF02C0E6
:1018E000A89A01C0A898C2FF02C0A99A01C0A998ED
:1018F000C1FF02C0AA9A01C0AA98C0FF02C0AB9A59
:1019000001C0AB9800C0C4DF92E09A95F1F700C027
:10191000BDDFA89AA99AAA9AAB9AD11108C0C4307F
:1019200030F48FE999E10197F1F700C003C095ED1C
:101930009A95F1F70000DF91CF91089560E0AACF6A
:101940008058FCCF81E0FACF61E0A4CFB99AB89A71
:10195000A09AA19AA29AA39A99DFC098A89AA99A44
:10196000AA9AAB9A8FE59AEE0197F1F700C00000B2
:10197000A898A99800C08CDF92E09A95F1F700C072
:1019800085DF8FE090E40197F1F700C0000080DF71
:1019900092E09A95F1F700C079DF8FE891E0019726
:1019A000F1F700C0000074DF92E09A95F1F700C0F3
:1019B0006DDF85ED8A95F1F70000AB9800C068DF18
:1019C00092E09A95F1F700C061DF85ED8A95F1F715
:1019D0000000AB9800C05CDF92E09A95F1F700C080
:1019E00055DF82E08A95F1F700C0A89A00C050DF69
:1019F00092E09A95F1F700C049DF85ED8A95F1F7FD
:101A0000000088E09BDF9EDF86E098DF8CE096CFC9
:101A100012BA80EA8A95F1F78FE082BB8AE08A9554
:101A2000F1F700C0089512BA8AE08A95F1F700C074
:101A30008FE082BB80EA8A95F1F7089512BA8AE1B5
:101A40008A95F1F700C08FE082BB85E28A95F1F7B5
:101A500000000895FF920F931F93CF93DF93C1E38C
:101A6000D1E01EE10FE083E3F82EE8DF12BB8AE24B
:101A70008A95F1F700C002BB8AE48A95F1F700C0AD
:101A8000F2BA8AE28A95F1F700C002BB8AE48A952D
:101A9000F1F700C012BB8AE28A95F1F700C02197E6
:101AA00021F7DF91CF911F910F91FF900895CF9370
:101AB000DF93EC0112BA9C9B23C0AADFA9DFA8DF49
:101AC000A7DFA6DFB0DFAFDFAEDFADDFACDFFE014B
:101AD0000995A9DFA8DFA7DFA6DFA5DF99DF98DFDB
:101AE00097DF96DF95DF9FDF9EDF9DDF9CDFFE01A6
:101AF000099599DF98DF97DF96DF95DF94DFDBCFDD
:101B000012BADF91CF910895DB018F939F932DD06F
:101B1000BF91AF91A29F800D911DA39F900DB29F89
:101B2000900D11240895A1E21A2EAA1BBB1BFD01E2
:101B30000DC0AA1FBB1FEE1FFF1FA217B307E407AC
:101B4000F50720F0A21BB30BE40BF50B661F771F04
:101B5000881F991F1A9469F76095709580959095E4
:101B60009B01AC01BD01CF0108956ED0A59F900DE2
:101B7000B49F900DA49F800D911D11240895689429
:101B800001C0E8948F929F92CF93DF9305D0DF91AD
:101B9000CF919F908F90089588249924F401E401B7
:101BA000B0E41B2ED4019D158E049F04E007F107BD
:101BB00038F4FC014B01CA01B901AD019E01169434
:101BC000220F331F441F551F661F771F881F991F41
:101BD000881C991CEE1FFF1FCC1FDD1FAA1FBB1FF7
:101BE0008A149B04EC05FD05CE05DF05A007B107AF
:101BF00048F08A189B08EC09FD09CE09DF09A00B03
:101C0000B10B21601A94E1F62EF49401AF01BE01EC
:101C1000CD01000C08950F93083090F0982F872F76
:101C2000762F652F542F432F322F22270850F4CFC1
:101C3000220F331F441F551F661F771F881F991FD0
:101C40000A95B2F70F910895A29FB001B39FC0010A
:101C5000A39F01D0B29F700D811D1124911D089585
:101C60008F929F92AF92BF92CF92DF92EF92FF92AC
:101C7000CF93DF93EC01688179818A819B81611523
:101C800071058105910521F464E279ED8BE597E01A
:101C90002DE133EF41E050E07BD049015A019B0137
:101CA000AC01A7EAB1E461DF6B017C01ACEEB4EFFB
:101CB000A50194018BD0DC01CB018C0D9D1DAE1DC7
:101CC000BF1DB7FF03C00197A109B048888399835E
:101CD000AA83BB839F77DF91CF91FF90EF90DF9036
:101CE000CF90BF90AF909F908F900895B9DF0895E7
:101CF00080E690E0B5DF0895A0E0B0E0809360005A
:101D000090936100A0936200B09363000895FB017B
:101D1000DC0102C005900D9241505040D8F7089563
:101D2000DC01CB01FC01E199FECF06C0FFBBEEBB9D
:101D3000E09A31960DB20D9241505040B8F7089597
:101D4000DC01A40FB51F4150504040F0CB01840F7F
:101D5000951F2E9105D041505040D8F70895262F59
:101D6000E199FECF9FBB8EBBE09A01970DB20216A0
:101D700031F02DBB0FB6F894E29AE19A0FBE0895A8
:101D80000396272FEDDFEBDF252FEADF242FE8CFA7
:101D9000052E97FB16F400940FD057FD05D0C3DE37
:101DA00007FC02D046F408C0509540953095219527
:101DB0003F4F4F4F5F4F0895909580957095619577
:101DC0007F4F8F4F9F4F0895B7FFCFCECEDE821B40
:081DD000930B0895F894FFCF76
:041DD8000100000006
:00000001FF
