:1000000077C391C390C38FC38EC38DC38CC38BC37F
:100010008AC389C388C387C386C385C384C383C394
:1000200082C381C380C394C59CC5A5C5ADC5B5C5F4
:10003000BDC511C8CFC51EC67CC6B4C645C80D4EC9
:1000400044445320564552302E31340A5349474ECA
:10005000414C2047454E455241544F52000D545695
:1000600020564944454F0A004348455353424F41A7
:100070005244004C4154544943450056455254495A
:1000800043414C2042415253000D546F66663D007F
:100090000D5466616C6C3D000D546F6E3D000D5447
:1000A000726973653D00573A4600573A5200543A18
:1000B0004600543A520075732000543D000D5055CF
:1000C0004C534520000D484947482053504545446E
:1000D000200020453D4C0020453D480020443D0087
:1000E0000D50574D20000D53515541524520574159
:1000F000564520000D4E4F49534520000D454347BE
:1001000020000D545249414E474C4520000D52539A
:100110004157544F544820000D534157544F5448B1
:1001200020000D53494E452000494A4B4B4A49494E
:10013000494948474544434343444443413E3D3B8A
:100140003938373736363637373737373736353346
:10015000323131343D4D6584A9CFEEFFFEEAC69AB7
:100160006D442511050001060D141C242D34393D64
:10017000404142434444454647474747474747472E
:1001800048484849494A4B4B4C4D4E4F50515253A9
:100190005456585B5D60626466686B6D7073767907
:1001A0007B7D7E7F7F7F7F7F7E7D7C797774716DA5
:1001B0006966625F5C595754514F4D4C4B4A4948F0
:1001C00046454443434344444445454545454545E8
:1001D00046474849494A4A4B4B4B4B4B4B4A4A4985
:1001E0004949494848484747474747474746464699
:1001F00045454545454646464544444343434342B9
:100200004242414141414141414140403F3F4040E4
:1002100041414141414141404040404040404041D6
:1002200041414243444547484900020406080A0C3C
:100230000E10121416181A1C1E20222426282A2CEE
:100240002E30323436383A3C3E40424446484A4CDE
:100250004E50525456585A5C5E60626466686A6CCE
:100260006E70727476787A7C7E80828486888A8CBE
:100270008E90929496989A9C9EA0A2A4A6A8AAACAE
:10028000AEB0B2B4B6B8BABCBEC0C2C4C6C8CACC9E
:10029000CED0D2D4D6D8DADCDEE0E2E4E6E8EAEC8E
:1002A000EEF0F2F4F6F8FAFCFEFFFDFBF9F7F5F3D9
:1002B000F1EFEFEBE9E7E5E3E1DFDDDBD9D7D5D31C
:1002C000D1CFCFCBC9C7C5C3C1BFBDBBB9B7B5B30C
:1002D000B1AFAFABA9A7A5A3A19F9D9B99979593FC
:1002E000918F8F8B89878583817F7D7B79777573EC
:1002F000716F6F6B69676563615F5D5B59575553DC
:10030000514F4F4B49474543413F3D3B39373533CB
:10031000312F2F2B29272523211F1D1B19171513BB
:10032000110F0F0B0907050301FFFEFDFCFBFAF996
:10033000F8F7F6F5F4F3F2F1F0EFEEEDECEBEAE9B5
:10034000E8E7E6E5E4E3E2E1E0DFDEDDDCDBDAD9A5
:10035000D8D7D6D5D4D3D2D1D0CFCECDCCCBCAC995
:10036000C8C7C6C5C4C3C2C1C0BFBEBDBCBBBAB985
:10037000B8B7B6B5B4B3B2B1B0AFAEADACABAAA975
:10038000A8A7A6A5A4A3A2A1A09F9E9D9C9B9A9965
:100390009897969594939291908F8E8D8C8B8A8955
:1003A0008887868584838281807F7E7D7C7B7A7945
:1003B0007877767574737271706F6E6D6C6B6A6935
:1003C0006867666564636261605F5E5D5C5B5A5925
:1003D0005857565554535251504F4E4D4C4B4A4915
:1003E0004847464544434241403F3E3D3C3B3A3905
:1003F0003837363534333231302F2E2D2C2B2A29F5
:100400002827262524232221201F1E1D1C1B1A19E4
:100410001817161514131211100F0E0D0C0B0A09D4
:100420000807060504030201000001020304050693
:100430000708090A0B0C0D0E0F10111213141516D4
:100440001718191A1B1C1D1E1F20212223242526C4
:100450002728292A2B2C2D2E2F30313233343536B4
:100460003738393A3B3C3D3E3F40414243444546A4
:100470004748494A4B4C4D4E4F5051525354555694
:100480005758595A5B5C5D5E5F6061626364656684
:100490006768696A6B6C6D6E6F7071727374757674
:1004A0007778797A7B7C7D7E7F8081828384858664
:1004B0008788898A8B8C8D8E8F9091929394959654
:1004C0009798999A9B9C9D9E9FA0A1A2A3A4A5A644
:1004D000A7A8A9AAABACADAEAFB0B1B2B3B4B5B634
:1004E000B7B8B9BABBBCBDBEBFC0C1C2C3C4C5C624
:1004F000C7C8C9CACBCCCDCECFD0D1D2D3D4D5D614
:10050000D7D8D9DADBDCDDDEDFE0E1E2E3E4E5E603
:10051000E7E8E9EAEBECEDEEEFF0F1F2F3F4F5F6F3
:10052000F7F8F9FAFBFCFDFEFF808386898C8F9239
:1005300095989C9FA2A5A8ABAEB0B3B6B9BCBFC1FD
:10054000C4C7C9CCCED1D3D5D8DADCDEE0E2E4E64C
:10055000E8EAECEDEFF0F2F3F5F6F7F8F9FAFBFC68
:10056000FCFDFEFEFFFFFFFFFFFFFFFFFFFFFFFEA3
:10057000FEFDFCFCFBFAF9F8F7F6F5F3F2F0EFED0F
:10058000ECEAE8E6E4E2E0DEDCDAD8D5D3D1CECCA2
:10059000C9C7C4C1BFBCB9B6B3B0AEABA8A5A29F12
:1005A0009C9895928F8C898683807C797673706D08
:1005B0006A6763605D5A5754514F4C494643403E09
:1005C0003B383633312E2C2A272523211F1D1B199A
:1005D00017151312100F0D0C0A090807060504035E
:1005E0000302010100000000000000000000000103
:1005F000010203030405060708090A0C0D0F101277
:10060000131517191B1D1F212325272A2C2E3133C3
:1006100036383B3E404346494C4F5154575A5D6033
:1006200063676A6D707376797C00E8030000E80305
:100630000000E8030000E8030000E8030000E8030E
:100640000000E8030000320040420F006400000098
:10065000640000006400000064000000000000006E
:100660000D463D00384D487A00344D487A00324DF1
:10067000487A00314D487A000D4558542053594E60
:10068000433A20004C4F570048494748004E4F001E
:100690000D547269676765723A200046414C4C20E0
:1006A000005249534520004E4F000A282B2F2D2978
:1006B00020004E44000D4E3D0075730075730A28EE
:1006C0002B2F2D292000250A282B2F2D29203125DD
:1006D00020000D44433D000A282B2F2D2920000D1A
:1006E000463D004F46460A004F4E200A00487A0019
:1006F00011241FBECFE5D4E0DEBFCDBF20E0A4E6CD
:10070000B0E001C01D92AE39B207E1F710E0A0E6FB
:10071000B0E0E6E0FFE102C005900D92A436B1071B
:10072000D9F7A4D1EECB6CCC2F933F93F1E0E0E06E
:1007300022273327260F371FE81F008002BA9C9913
:10074000F9CF3F913F9108952F933F93F4E0E0E07C
:100750002227332708B2260F371FE81F08F40F2679
:1007600008BA9C99F8CF3F913F910895AF93BF93FA
:100770007F936F935F934F933F932F93F92FE82FBE
:10078000A089B189E894BB2319F4AA2309F46894D9
:10079000508161817281222733274427250F361F1C
:1007A000471F28F0000042BB9C99F8CF34C02FEFC0
:1007B00022BB548165817681222733274427250F68
:1007C000361F471F28F0000000009C99F8CF23C077
:1007D0005085618572852FEF3FEF4FEF251B360B5C
:1007E000470B442329F0000042BB9C99F7CF13C06C
:1007F000548565857685222733274427250F361FA4
:10080000471F28F0000000009C99F8CF04C016F0A4
:10081000119709F0BDCF12BA2F913F914F915F917F
:100820006F917F91BF91AF91089517E81A95F1F7F5
:1008300008950F931F930AE08095089410F4C498CC
:1008400002C0C49A0000F1DFF0DF86950A95B1F787
:100850001F910F9108950F931F9309E0B599FECF53
:10086000E4DFE3DFE2DF8894B59908940A9511F09C
:100870008795F7CF90E01F910F910895CF92DF9267
:10088000EF92FF92CF93DF936B017C01D42FC22FA5
:10089000C298BA9A60E074E284EF90E0A7019601F2
:1008A000D9D921503109410951098FB582608FBDD5
:1008B0008EB588618EBD8DE2C81681E0D806E10450
:1008C000F104E8F037BD26BD80916700893049F416
:1008D000DA01C901B695A7959795879599BD88BD09
:1008E0000AC0AD2FB0E0D8D924E630E040E050E0B7
:1008F000B1D939BD28BD8EB5887F816013C0232F43
:10090000342F452F552737BD26BDAD2FB0E0C4D9B4
:1009100024E630E040E050E09DD939BD28BD8EB5D9
:10092000887F84608EBD8FB580628FBDCC23F9F047
:10093000C13059F49C9B0BC09D9B03C08FB5806256
:1009400002C08FB58F7D8FBDF5CFC23051F01FBC77
:100950001EBCC298BA980BC09D9906C08FB5806224
:100960008FBD9C99F9CFF3CF8FB58F7DF9CFDF91F4
:10097000CF91FF90EF90DF90CF9008956091670046
:1009800080E090E083CA883011F0823021F48091B9
:1009900067008F5F09C0813049F480916700811141
:1009A00002C08BE001C081508093670008958F9250
:1009B0009F92AF92BF92CF92DF92EF92FF920F93EE
:1009C0001F93CF936B017A01590197D380E0F6D43E
:1009D000F701608171818281938194D4AAD3C82F59
:1009E000803191F580E11DD4F70140815181628110
:1009F0007381C5015CDAC2DF81E0E0D440E051E000
:100A0000B60180E091E01ADAF70180809180A2803F
:100A1000B3809401A50160E070E080E090E000E127
:100A200091D9E0E2AE2EFBE1BF2EC12CD12CE12CFE
:100A3000F12C00E010E03CD9B901CA0112BA74DE11
:100A400012BA80E1EED305C0843019F460E0C7012A
:100A5000C4D48C2FCF911F910F91FF90EF90DF9016
:100A6000CF90BF90AF909F908F908DCFCF93DF931B
:100A7000CDB7DEB762970FB6F894DEBF0FBECDBF1D
:100A800028B381E090E001C0880F2A95EAF78861D9
:100A900087BB88B380E388BB14BA8FE185BB12BAE9
:100AA0008FEF81BB0FEF19EF20E001501040204085
:100AB000E1F700C000009A991BC03FEF83E294EF7A
:100AC000315080409040E1F700C000009A9910C07A
:100AD00084E0A7D347E350E069E276E087E690E060
:100AE000ADD947E350E060E070E087E690E0BFD921
:100AF000BB9A82E383BD8AE185BD0FEF11EE24E04E
:100B0000015010402040E1F700C000005CD757D7EB
:100B100047E350E060E070E087E690E098D9912CE0
:100B20008BE7282E80E0382E93E7692E90E0792E0F
:100B300028E6422E20E0522EE09167008E2F90E0B2
:100B40008C30910508F0C6C2FC01ED5EFF4F0994A0
:100B500021E030E048E650E069E275E082E291E0B1
:100B600008C025E030E04CE650E069E274E088E13E
:100B700091E01DDFE1CF29E030E040E750E069E29D
:100B800073E08DE091E0F5CF2DE030E044E750E0F8
:100B900069E272E082E091E0ECCF21E130E048E7E9
:100BA00050E069E271E08CEF90E0E3CF84EF90E0F9
:100BB000A4D280E003D4BDD2182F803109F082C2C4
:100BC00080E12FD3DBDE81E0F9D39C9B71C227D972
:100BD00082BBFBCF86EE90E090D280E0EFD36091B5
:100BE0007C0070917D0080917E0090917F008AD37F
:100BF000A0D2882E30E1831335C080E112D3BEDE4F
:100C000040917C0050917D0060917E0070917F004A
:100C100085E190E04CD981E0D1D380917C00909126
:100C20007D00A0917E00B0917F005C016D019C0170
:100C3000A60160E070E080E090E000E183D810E978
:100C4000A12E0DE0B02EC12CD12CE12CF12C00E016
:100C500010E02ED8B901CA01C298BA9A75DDC298BF
:100C6000BA98D9C184E08812F4C160E08CE790E0C2
:100C7000B4D3EFC180EE90E040D2892D9FD3609134
:100C800080007091810080918200909183003AD31E
:100C90008CED90E032D26091840070E080E090E0D2
:100CA00040E0CDD280918500813019F487ED90E04D
:100CB00004C0823019F482ED90E01FD23AD2182F8E
:100CC000803119F580E1ADD2992029F01FBC1EBCFE
:100CD000C298BA982AC081E071D360918000709167
:100CE0008100809182009091830020918500409145
:100CF0008400C4DD43DE46E050E069E170E080E856
:100D000090E0B5D89924939417CF843061F4692D7D
:100D100080E890E062D3892D1ED491100DCF93D539
:100D20008093850002C0911007CF812F2CDE912C7B
:100D300003CF85EC90E0E1D180E040D36091860064
:100D4000709187008091880090918900DBD2F1D169
:100D5000182F803111F580E164D210DE40918600B9
:100D60005091870060918800709189008FE190E038
:100D70009ED881E023D36091860070918700809196
:100D800088009091890020E042E378DD9C99FECFB5
:100D90001FBC1EBCC298BA988BC1843009F092C1A6
:100DA00075D590C18DEB90E0A8D180E007D38AEB98
:100DB00090E0A3D1409192005091930060919400F3
:100DC0007091950080918A0090918B00A0918C0089
:100DD000B0918D00480F591F6A1F7B1F80918E00B4
:100DE00090918F00A0919000B0919100480F591FF1
:100DF0006A1F7B1F8091960090919700A0919800A8
:100E0000B09199008A019B01080F191F2A1F3B1FEF
:100E1000C901B80140E013D286EB90E06ED1809119
:100E20009C00813019F482EB90E004C0823019F408
:100E30008EEA90E062D17DD1882E10E18113EEC060
:100E400080E1EFD19BDD43E150E063E270E08AE8AE
:100E500090E00DD88DE0B1D580919C00813069F48F
:100E60008AEA90E04AD19D9B05C09C99FCCFD3C0F3
:100E70009C9BD1C09D9BFCCF09C0823039F486EA8F
:100E800090E03BD19D9BC2C09D99C3C081E096D2AA
:100E900080918A0090918B00A0918C00B0918D0080
:100EA0005C016D019C01A60160E070E080E090E0D3
:100EB00000E148D7A12CE0E9BE2EC12CD12CE12CB9
:100EC000F12C00E010E0F4D659016A017B018C019D
:100ED00020E030E040E051E060E070E080E090E051
:100EE000E7D629833A834B835C8380918E0090916F
:100EF0008F00A0919000B09191005C016D019C0168
:100F0000A60160E070E080E090E000E11BD7A12C3A
:100F1000F0E9BF2EC12CD12CE12CF12C00E010E027
:100F2000C7D659016A017B018C0120E030E040E026
:100F300051E060E070E080E090E0BAD62D833E831F
:100F40004F8358878091920090919300A0919400D4
:100F5000B09195005C016D019C01A60160E070E01C
:100F600080E090E000E1EED6A12CA0E9BA2EC12CE1
:100F7000D12CE12CF12C00E010E09AD659016A0145
:100F80007B018C0120E030E040E051E060E070E067
:100F900080E090E08DD629873A874B875C878091E7
:100FA000960090919700A0919800B09199005C01F3
:100FB0006D019C01A60160E070E080E090E000E13E
:100FC000C1D6A12CB0E9BB2EC12CD12CE12CF12C27
:100FD00000E010E06DD659016A017B018C0120E030
:100FE00030E040E051E060E070E080E090E060D60A
:100FF0002D873E874F87588B80919A0090919B0058
:101000009A8B898BCE010196B1DB05C09C993ACFB2
:1010100002C09C9939CF80E104D11BC024E0821327
:1010200018C06EE970E08AE890E0CAD268E970E022
:101030008EE890E0C5D260E970E082E990E0C0D22D
:1010400069E870E086E990E0BBD24BD3D9D38093B6
:101050009C00882D3DC03A8229827C826B825E8210
:101060004D8280919D00833010F010929D008DE59F
:1010700090E043D080919D00FE013196E80FF11D74
:10108000E80FF11D8081918138D080E097D151D057
:10109000182F803181F480E1C4D070DC60919D0014
:1010A00086E390E0F3D681E089D180919D0099D5C7
:1010B00080E1B7D007C0843029F480919D008F5F14
:1010C00080939D00812F04C08EE390E016D031D034
:1010D0005ADC32CD109267002FCDCF93C82F8D30C0
:1010E00011F46DD407C08A3021F480E466D4C0E2E4
:1010F00001C067D48C2FCF919CCBCF93DF93FC01A1
:101100008491EF012196882319F0E7DFFE01F8CFE3
:10111000DF91CF91089588E091E0292F2F7119F088
:1011200023B3292321F0990F8150B9F70895892F0E
:101130000895EF92FF920F931F93CF93DF93C5B360
:10114000D4B384B3807E84BB85B38F6185BB8FE3CA
:101150009FE10197F1F700C0000012E009E1FF24D0
:10116000F39483E0E82E9FEF29EF80E09150204038
:101170008040E1F700C0000080916600882319F0EC
:1011800081508093660080916500813071F028F075
:101190008230A9F0833049F141C0BDDF8093640003
:1011A000882309F3F0926500DECF93B38091640049
:1011B0008923A1F51093650000936600D4CF93B303
:1011C00080916400982339F090916600992319F07A
:1011D0001092650018C093B3892329F680916600A8
:1011E0008111C1CFE0926500BECF80916600811170
:1011F00015C093B380916400892311F010926500AB
:1012000082E080936600C5BBD4BB80916400DF910F
:10121000CF911F910F91FF90EF900895109265006C
:10122000A2CF93B3982351F42FEF39EF90E02150E0
:1012300030409040E1F700C00000F3CF08958F9256
:101240009F92AF92BF92CF92DF92EF92FF920F9355
:101250001F93CF93DF93CDB7DEB729970FB6F894DE
:10126000DEBF0FBECDBFD42E8E01075F1F4F9E0184
:101270002F5F3F4F79012AE0822E912CA12CB12CB7
:10128000A5019401E7D4605DF8016083B901CA014A
:10129000015011090E151F0599F7FE01329610E055
:1012A0001F5F8191803331F089E0882E912CCD2C05
:1012B000D12C03C01830A1F7F7CFA12EB12CF70124
:1012C000EA0DFB1D808109DFC4018A199B098C1579
:1012D0009D0511F48CE201DF1F5F193071F729962B
:1012E0000FB6F894DEBF0FBECDBFDF91CF911F9137
:1012F0000F91FF90EF90DF90CF90BF90AF909F90B5
:101300008F900895CF92DF92EF92FF920F931F93E9
:10131000CF93DF93603127E272078105910558F47E
:1013200020916700283011F5693E23E0720781059E
:10133000910528F51BC0603A26E8720721E0820774
:10134000910540F4209167002830A1F0CAE0D0E078
:101350001BE40AC0603422E472072FE08207910583
:1013600070F0C0E1D7E21DE403E00DC0C1E0D0E0C1
:1013700010E003C0C8EED3E01BE400E004C0C4E604
:10138000D0E01BE402E06E01E12CF12CA7019601F4
:1013900061D4CA01B901402F52DF112311F0812F0E
:1013A0009CDE8DEE96E0A9DECE01DF91CF911F91FC
:1013B0000F91FF90EF90DF90CF900895CF93C82FBB
:1013C0008DE0FBD2CC2329F08DE033DA88EE96E075
:1013D00002C083EE96E0CF9190CE2F923F924F9233
:1013E0005F926F927F928F929F92AF92BF92CF92B5
:1013F000DF92EF92FF921F93CF93DF9300D000D044
:10140000CDB7DEB71C01162FDC01CD90DD90ED903D
:10141000FC9080916700883039F0873051F087E088
:1014200092EBA1E0B0E009C080EA96E8A1E0B0E06C
:1014300004C080E291EAA7E0B0E089839A83AB839D
:10144000BC83812C912C54018FED96E056DEC701B0
:10145000B60158DF2C01612C712CC701B601A30124
:101460009201F8D3C61AD70AE80AF90A811491043E
:10147000A104B10411F45301420187ED96E03DDE71
:10148000C501B4013FDF55DE813079F4D501C401D7
:101490000196A11DB11D8C159D05AE05BF0580F5FA
:1014A000C818D908EA08FB082BC0823091F489815A
:1014B0009A81AB81BC8188199909AA09BB09C81610
:1014C000D906EA06FB06E0F4C80CD91CEA1CFB1C92
:1014D00017C0883081F490EA891696E8990691E061
:1014E000A906B10458F4AAE0B0E0A5019401D4D350
:1014F0004B015C0105C0843019F411C05301420155
:1015000080916700883009F09FCF112309F49CCFA8
:1015100020E040918400C701B601B0D995CFD10138
:10152000CD92DD92ED92FC9213970F900F900F9059
:101530000F90DF91CF911F91FF90EF90DF90CF90B0
:10154000BF90AF909F908F907F906F905F904F90E3
:101550003F902F900895CF93DF93D82FC0918400B0
:1015600082ED96E0CADD8C2F90E0A0E0B0E040E094
:10157000BC01CD0164DE86EC96E0BFDDDADD8130B2
:1015800021F4C23050F0C15008C0823021F4C3367B
:1015900020F4CF5F02C0843071F0DD2309F3609145
:1015A000800070918100809182009091830020E002
:1015B0004C2F64D9D5CFC0938400DF91CF9108958B
:1015C0004F925F926F927F928F929F92AF92BF9253
:1015D000CF92DF92EF92FF920F931F93CF93DF93FF
:1015E000EC018B01C880D980EA80FB8081E4C816B9
:1015F00082E4D8068FE0E806F10428F032E0C32E3A
:10160000D12CE12CF12C412C512C3201439420E4BB
:10161000822E22E4922E2FE0A22EB12CC8016DDD85
:1016200040E0C701B6010BDE8CEB96E066DD40E0E2
:10163000C301B20104DE89EB96E05FDD7ADD813023
:1016400079F4D301C2010296A11DB11D8C159D052F
:10165000AE05BF0518F7C418D508E608F708DECFB1
:10166000823081F4D501C40184199509A609B7090E
:10167000C816D906EA06FB0688F6C40CD51CE61C7B
:10168000F71CCCCF8830A9F480E4481682E45806D1
:101690008FE06806710428F0412C512C32014394EC
:1016A000BDCFAAE0B0E0A3019201F6D22B013C012C
:1016B000B5CF843009F0B2CFC882D982EA82FB82EA
:1016C000DF91CF911F910F91FF90EF90DF90CF901E
:1016D000BF90AF909F908F907F906F905F904F9052
:1016E0000895FF920F931F93CF93DF93C0919A00B9
:1016F000D0919B0001E010E08AE0F82E85EB96E0A7
:10170000FCDC209741F0CE01A0E0B0E040E0BC015D
:10171000CD0195DD03C082EB96E0EFDC8AEA96E02E
:10172000ECDCC801A0E0B0E040E0BC01CD0187DD09
:1017300000DD813031F4C017D10700F3C01BD10B9D
:10174000DDCF823049F4C80180959095C817D9073C
:10175000A8F6C00FD11FD2CF883071F4003187E2D4
:10176000180718F001E010E0C9CFC801F89E800109
:10177000F99E100D1124C2CF843009F0BFCFD09351
:101780009B00C0939A00DF91CF911F910F91FF9022
:101790000895AF92BF92CF92DF92EF92FF920F9394
:1017A0001F93CF937C016B01C0E0042F10E0015028
:1017B0001109C701A2DCAC2EB12CF501EE0FFF1F01
:1017C000EC0DFD1D8081918198DCB3DC813021F42A
:1017D000CC2379F3C150EDCF823029F4A016B106A5
:1017E00044F7CF5FE6CF843021F78C2FCF911F9144
:1017F0000F91FF90EF90DF90CF90BF90AF90089542
:10180000CF93DF9300D000D000D0CDB7DEB787EA0A
:1018100096E09A83898381EA96E09C838B838BE9A7
:1018200096E09E838D8343E0BE016F5F7F4F80E92A
:1018300096E0AFDF26960FB6F894DEBF0FBECDBFA1
:10184000DF91CF910895CF93DF9300D000D000D0E7
:10185000CDB7DEB78DE896E09A83898388E896E075
:101860009C838B8384E896E09E838D8343E0BE0156
:101870006F5F7F4F88E796E08CDF26960FB6F8946F
:10188000DEBF0FBECDBFDF91CF910895CF93DF9321
:10189000CDB7DEB728970FB6F894DEBF0FBECDBF29
:1018A00083E796E09A8389838EE696E09C838B8318
:1018B00089E696E09E838D8384E696E098878F8301
:1018C00044E0BE016F5F7F4F80E696E062DFA1E0FB
:1018D00001C0AA0F8A95EAF7B0E020E432E44FE0B5
:1018E00050E0DAD16093860070938700809388007F
:1018F0009093890028960FB6F894DEBF0FBECDBF37
:10190000DF91CF910895C1980895C19A0895CF931A
:10191000DF93C82FD62F662311F0C09A01C0C0985C
:10192000C7FF02C0A89A01C0A898C6FF02C0A99A22
:1019300001C0A998C5FF02C0AA9A01C0AA98C4FF15
:1019400002C0AB9A01C0AB9800C0DFDF82E08A958D
:10195000F1F700C0D8DFC3FF02C0A89A01C0A89861
:10196000C2FF02C0A99A01C0A998C1FF02C0AA9AE9
:1019700001C0AA98C0FF02C0AB9A01C0AB9800C0DA
:10198000C4DF92E09A95F1F700C0BDDFA89AA99A4A
:10199000AA9AAB9AD11108C0C43030F48FE999E10A
:1019A0000197F1F700C003C095ED9A95F1F700009B
:1019B000DF91CF91089560E0AACF8058FCCF81E0FD
:1019C000FACF61E0A4CFB99AB89AA09AA19AA29A44
:1019D000A39A99DFC098A89AA99AAA9AAB9A8FE578
:1019E0009AEE0197F1F700C00000A898A99800C0EE
:1019F0008CDF92E09A95F1F700C085DF8FE090E4EC
:101A00000197F1F700C0000080DF92E09A95F1F7AE
:101A100000C079DF8FE891E00197F1F700C0000086
:101A200074DF92E09A95F1F700C06DDF85ED8A953D
:101A3000F1F70000AB9800C068DF92E09A95F1F7EB
:101A400000C061DF85ED8A95F1F70000AB9800C01A
:101A50005CDF92E09A95F1F700C055DF82E08A954D
:101A6000F1F700C0A89A00C050DF92E09A95F1F714
:101A700000C049DF85ED8A95F1F7000088E09BDF23
:101A80009EDF86E098DF8CE096CF12BA80EA8A95D6
:101A9000F1F78FE082BB8AE08A95F1F700C00895E4
:101AA00012BA8AE08A95F1F700C08FE082BB80EA23
:101AB0008A95F1F7089512BA8AE18A95F1F700C084
:101AC0008FE082BB85E28A95F1F700000895FF92CE
:101AD0000F931F93CF93DF93C1E3D1E01EE10FE09B
:101AE00083E3F82EE8DF12BB8AE28A95F1F700C0A3
:101AF00002BB8AE48A95F1F700C0F2BA8AE28A95BD
:101B0000F1F700C002BB8AE48A95F1F700C012BB6E
:101B10008AE28A95F1F700C0219721F7DF91CF91F2
:101B20001F910F91FF900895CF92DF92FF920F9334
:101B30001F93CF93DF9300D01F92CDB7DEB792E310
:101B4000C92EDD24D39403E310E04FE0F42E91E09E
:101B5000C91AD10809F436C0112339F41CE4082E3F
:101B6000802F002D2FE03FE007C000001A950000F5
:101B7000282F0000302F000029833A838B839BDFBE
:101B8000298122BB90E49A95F1F7F2BA0000000097
:101B90003A8132BB90E49A95F1F7F2BA0000000066
:101BA00022BB90E49A95F1F7F2BA0000000032BB34
:101BB00090E49A95F1F7F2BA9AE09A95F1F700C09D
:101BC0008B81C5CF0F900F900F90DF91CF911F9118
:101BD0000F91FF90DF90CF90089583E3A5CF8FE022
:101BE000A3CFCF93DF93813031F040F0823079F58D
:101BF000CFEEDDE005C0CDEEDDE002C0C7E6DDE002
:101C000012BA9C9B23C041DF40DF3FDF3EDF3DDF58
:101C100047DF46DF45DF44DF43DFFE01099540DF54
:101C20003FDF3EDF3DDF3CDF30DF2FDF2EDF2DDF0C
:101C30002CDF36DF35DF34DF33DFFE01099530DF9F
:101C40002FDF2EDF2DDF2CDF2BDFDBCF12BADF9172
:101C5000CF910895A1E21A2EAA1BBB1BFD010DC056
:101C6000AA1FBB1FEE1FFF1FA217B307E407F5074C
:101C700020F0A21BB30BE40BF50B661F771F881F28
:101C8000991F1A9469F760957095809590959B01BE
:101C9000AC01BD01CF0108956ED0A59F900DB49FFA
:101CA000900DA49F800D911D11240895689401C08A
:101CB000E8948F929F92CF93DF9305D0DF91CF91DD
:101CC0009F908F90089588249924F401E401B0E452
:101CD0001B2ED4019D158E049F04E007F10738F4F4
:101CE000FC014B01CA01B901AD019E011694220FFE
:101CF000331F441F551F661F771F881F991F881C9D
:101D0000991CEE1FFF1FCC1FDD1FAA1FBB1F8A14CB
:101D10009B04EC05FD05CE05DF05A007B10748F0E3
:101D20008A189B08EC09FD09CE09DF09A00BB10B4D
:101D300021601A94E1F62EF49401AF01BE01CD01A9
:101D4000000C08950F93083090F0982F872F762F6E
:101D5000652F542F432F322F22270850F4CF220F04
:101D6000331F441F551F661F771F881F991F0A9531
:101D7000B2F70F910895A29FB001B39FC001A39F36
:101D800001D0B29F700D811D1124911D08958F9275
:101D90009F92AF92BF92CF92DF92EF92FF92CF933A
:101DA000DF93EC01688179818A819B8161157105DE
:101DB0008105910521F464E279ED8BE597E02DE151
:101DC00033EF41E050E07BD049015A019B01AC0167
:101DD000A7EAB1E461DF6B017C01ACEEB4EFA501D1
:101DE00094018BD0DC01CB018C0D9D1DAE1DBF1D60
:101DF000B7FF03C00197A109B04888839983AA83DC
:101E0000BB839F77DF91CF91FF90EF90DF90CF90D2
:101E1000BF90AF909F908F900895B9DF089580E6AE
:101E200090E0B5DF0895A0E0B0E08093600090936B
:101E30006100A0936200B09363000895FB01DC0190
:101E400002C005900D9241505040D8F70895DC0132
:101E5000CB01FC01E199FECF06C0FFBBEEBBE09ACF
:101E600031960DB20D9241505040B8F70895DC0103
:101E7000A40FB51F4150504040F0CB01840F951F77
:101E80002E9105D041505040D8F70895262FE19962
:101E9000FECF9FBB8EBBE09A01970DB2021631F0C8
:101EA0002DBB0FB6F894E29AE19A0FBE08950396FF
:101EB000272FEDDFEBDF252FEADF242FE8CF052EDC
:101EC00097FB16F400940FD057FD05D0C3DE07FC36
:101ED00002D046F408C050954095309521953F4F6B
:101EE0004F4F5F4F089590958095709561957F4F06
:101EF0008F4F9F4F0895B7FFCFCECEDE821B930B3F
:061F00000895F894FFCFE4
:041F060001000000D6
:00000001FF
