:100000001CC236C235C234C233C232C231C230C25F
:100010002FC22EC22DC22CC22BC22AC229C228C274
:1000200027C226C225C2B4C4BDC4C6C4CEC4E4C45B
:10003000EDC402C559C5BEC5F6C5ABC6E8C672C794
:100040002CC80D46696E633D000D46656E643D002B
:100050000D4673746172743D000D53574545502031
:10006000000D46323D000D46313D000D44544D46D5
:10007000000D545620564944454F0A004348455305
:1000800053424F415244004C415454494345005659
:100090004552544943414C2042415253000D546F44
:1000A00066663D000D5466616C6C3D000D546F6ECC
:1000B0003D000D54726973653D00573A4600573A4A
:1000C0005200543A4600543A520075732000543D91
:1000D000000D50554C534520000D484947482053CA
:1000E00050454544200020453D4C0020453D4800FA
:1000F00020443D000D50574D20000D5351554152A5
:1001000045205741564520000D4E4F49534520008C
:100110000D4E44445320564552302E31360A534931
:10012000474E414C2047454E455241544F52000DD9
:1001300045434720000D545249414E474C4520004D
:100140000D52534157544F4F544820000D534157BF
:10015000544F4F544820000D53494E452000494A02
:100160004B4B4A4949494948474544434343444422
:1001700043413E3D3B3938373736363637373737E8
:100180003737363533323131343D4D6584A9CFEEC2
:10019000FFFEEAC69A6D442511050001060D141CE8
:1001A000242D34393D404142434444454647474766
:1001B000474747474748484849494A4B4B4C4D4EAB
:1001C0004F505152535456585B5D60626466686B81
:1001D0006D707376797B7D7E7F7F7F7F7F7E7D7C78
:1001E000797774716D6966625F5C595754514F4DF0
:1001F0004C4B4A494846454443434344444445459F
:10020000454545454546474849494A4A4B4B4B4B6E
:100210004B4B4A4A49494949484848474747474755
:100220004747464646454545454546464645444476
:1002300043434343424242414141414141414140A4
:10024000403F3F40404141414141414140404040A9
:1002500040404040414141424344454748498083F2
:1002600086898C8F9295989C9FA2A5A8ABAEB0B3BF
:10027000B6B9BCBFC1C4C7C9CCCED1D3D5D8DADCDE
:10028000DEE0E2E4E6E8EAECEDEFF0F2F3F5F6F7B3
:10029000F8F9FAFBFCFCFDFEFEFFFFFFFFFFFFFF8E
:1002A000FFFFFFFFFEFEFDFCFCFBFAF9F8F7F6F599
:1002B000F3F2F0EFEDECEAE8E6E4E2E0DEDCDAD8D7
:1002C000D5D3D1CECCC9C7C4C1BFBCB9B6B3B0AE0B
:1002D000ABA8A5A29F9C9895928F8C898683807CE1
:1002E000797673706D6A6763605D5A5754514F4CED
:1002F000494643403E3B383633312E2C2A272523AE
:10030000211F1D1B1917151312100F0D0C0A0908B8
:1003100007060504030302010100000000000000BD
:100320000000000001010203030405060708090A92
:100330000C0D0F1012131517191B1D1F2123252734
:100340002A2C2E313336383B3E404346494C4F51E0
:1003500054575A5D6063676A6D707376797C00E804
:10036000030000E8030000E8030000E8030000E8E1
:10037000030000E8030000E8030000320040420FE1
:1003800000640000006400000064000000640000DD
:100390000000000000B9020000B9040000140000D1
:1003A00000204E00000A000000000D463D00384DC0
:1003B000487A00344D487A00324D487A00314D4831
:1003C0007A000D4558542053594E433A20004C4F63
:1003D000570048494748004E4F000D5472696767FF
:1003E00065723A200046414C4C200052495345204A
:1003F000004E4F000A282B2F2D2920004E44000DBF
:100400004E3D0075730075730A282B2F2D2920008F
:10041000250A282B2F2D2920312520000D44433D6E
:10042000000D463D000A282B2F2D2920004F46465F
:100430000A004F4E200A00487A0011241FBECFE563
:10044000D4E0DEBFCDBF10E0A0E6B0E0E8E4FEE11E
:1004500002C005900D92A637B107D9F720E0A6E7B4
:10046000B0E001C01D92A43CB207E1F72AD2EACC69
:10047000C7CD2F933F93F1E0E0E022273327260FEB
:10048000371FE81F008002BA9C99F9CF3F913F9136
:1004900008952F933F93F4E0E0E02227332708B23A
:1004A000260F371FE81F08F40F2608BA9C99F8CFCB
:1004B0003F913F910895AF93BF937F936F935F9365
:1004C0004F933F932F93F92FE82FA089B189E89498
:1004D000BB2319F4AA2309F46894508161817281C5
:1004E000222733274427250F361F471F28F00000F7
:1004F00042BB9C99F8CF34C02FEF22BB5481658159
:100500007681222733274427250F361F471F28F0DF
:10051000000000009C99F8CF23C05085618572854A
:100520002FEF3FEF4FEF251B360B470B442329F0EE
:10053000000042BB9C99F7CF13C054856585768532
:10054000222733274427250F361F471F28F0000096
:1005500000009C99F8CF04C016F0119709F0BDCFA8
:1005600012BA2F913F914F915F916F917F91BF91FF
:10057000AF910895AF93BF931F930F93FF92EF92A4
:1005800012BAF1E0E0E0BF2FAE2F112D012DF12CBA
:10059000E12C060F171FE81F00800694902D06948B
:1005A00006949019E20EF31EA41F5C915695590F04
:1005B00052BB9C99EECF12BAEF90FF900F911F9112
:1005C000BF91AF910895E0E0F1E0912D512DC29AD5
:1005D000960F571FE81F18F0008002BAF9CF00806D
:1005E00002BA6E0D7F1D801F481748F131F437178E
:1005F00030F131F4261718F116C000000000000099
:10060000000000000000960F571FE81F960F571FAD
:10061000E81F960F571FE81F960F571FE81F960FEA
:10062000571FE81F000039F4960F571FE81F0000FE
:1006300000000000F8CF008002BA9C99C9CFC29890
:100640000895CF92DF92EF92FF92CF93DF936B01E9
:100650007C01D42FC22FC298BA9A60E074E284EF72
:1006600090E0A701960197DA21503109410951091B
:100670008FB582608FBD8EB588618EBD8DE2C81644
:1006800081E0D806E104F104E8F037BD26BD809191
:100690007800883049F4DA01C901B695A795979595
:1006A000879599BD88BD0AC0AD2FB0E096DA24E6E3
:1006B00030E040E050E06FDA39BD28BD8EB5887F6C
:1006C000816013C0232F342F452F552737BD26BDFA
:1006D000AD2FB0E082DA24E630E040E050E05BDAB3
:1006E00039BD28BD8EB5887F84608EBD8FB5806290
:1006F0008FBDC13059F49C9B0DC09D9B03C08FB52D
:10070000806202C08FB58F7D8FBDF5CFC23081F47E
:100710009C9905C01FBC1EBCC298BA9809C09D997F
:1007200003C08FB5806202C08FB58F7D8FBDF0CFC3
:10073000DF91CF91FF90EF90DF90CF9008958F924F
:100740009F92AF92BF92CF92DF92EF92FF920F9360
:100750001F93CF93DF93EC01FB0180809180A280F7
:10076000B3809401A50160E070E080E090E000E1DA
:100770008ADAA12CE0E9BE2EC12CD12CE12CF12C7F
:1007800000E010E036DA59016A017B018C0120E0BB
:1007900030E040E051E060E070E080E090E029DA95
:1007A000288339834A835B83DF91CF911F910F9117
:1007B000FF90EF90DF90CF90BF90AF909F908F9081
:1007C00008956091780080E090E001CB883011F0CE
:1007D000823021F4809178008F5F09C0813049F424
:1007E00080917800811102C08DE001C0815080931A
:1007F0007800089540E051E0BC0180E091E0BFCA7C
:100800008F929F92AF92BF92CF92DF92EF92FF9220
:100810000F931F93CF937B016A01C5984FD480E05B
:1008200078D5F701608171818281938116D562D478
:10083000C82F803149F5ACD4F701408151816281E4
:100840007381C601D5DABDDF81E063D5F701808011
:100850009180A280B3809401A50160E070E080E007
:1008600090E000E110DAE0E2AE2EFBE1BF2EC12CF9
:10087000D12CE12CF12C00E010E0BBD9B901CA0168
:10088000F8DD12BA85D405C0843019F460E0C701E0
:1008900014D68C2FCF911F910F91FF90EF90DF9086
:1008A000CF90BF90AF909F908F9090CF20E090E03E
:1008B000E92FF0E0E050FF4F2083280F9F5FC1F742
:1008C0000895CF93DF93CDB7DEB764970FB6F89452
:1008D000DEBF0FBECDBF38B327B381E090E001C0CB
:1008E000880F3A95EAF7822B87BBBD9ABB9A88B3EB
:1008F00018BA8FE185BB12BA8FEF81BB0FEF19EFEA
:1009000020E0015010402040E1F700C0000082E3E9
:100910009A991BC03FEF91EE04E0315090400040A7
:10092000E1F700C00000815099F784E023D44CE443
:1009300050E06EE573E088E790E021DA4CE450E0A7
:1009400060E070E088E790E033DABB9A82E383BD31
:100950008AE185BD1FEF21EE34E011502040304088
:10096000E1F700C00000E6D7E1D74CE450E060E0DA
:1009700070E088E790E00CDAE09178008E2F90E04C
:100980008E30910508F08FC3FC01ED5EFF4F099496
:100990008EE592E02FDF41E050E069E770E087E507
:1009A00091E008C081E082DF45E050E06DE770E053
:1009B0008CE491E025DFE0CF8FEF78DF49E050E075
:1009C00061E870E080E491E0F5CF91E081E0E82F0C
:1009D000F0E0E050FF4F908387FD02C09E5F01C0B2
:1009E00092508F5FA1F7109200014DE050E065E852
:1009F00070E085E391E0DECF8EE591E0FBDE41E142
:100A000050E069E870E08FE291E0D4CFC59888E0CB
:100A100091E054D380E07DD46DD3182F803109F05C
:100A2000F4C1B6D3CEDE81E074D49C9B03C098D9C8
:100A300082BBFBCF12BAE0C1C59A8AEF90E03ED3E9
:100A400080E067D460918D0070918E0080918F005E
:100A50009091900002D44ED3782E80E178123BC062
:100A600097D3AFDE40918D0050918E0060918F0042
:100A70007091900085E190E0BBD981E04AD48091EB
:100A80008D0090918E00A0918F00B0919000C2983F
:100A9000BA9A4C015D019C01A50160E070E080E024
:100AA00090E000E1F0D810E2A12E0BE1B02EC12CB5
:100AB000D12CE12CF12C00E010E09BD849015A0127
:100AC000C501B4019695879577956795E2DCC29844
:100AD000BA985ED307C094E0791204C060E08DE854
:100AE00090E0EBD4872DDDC2C59A84EF90E0E6D28A
:100AF000809176000ED46091910070919200809167
:100B0000930090919400A9D380EF90E0D7D26091A8
:100B1000950070E080E090E040E03CD3809196004A
:100B2000813019F48BEE90E004C0823019F486EE27
:100B300090E0C4D2DFD2182F803131F529D38091D3
:100B40007600882339F01FBC1EBCC298BA98109258
:100B500076002BC081E080937600DBD3609191001A
:100B60007091920080919300909194002091960052
:100B70004091950066DD25DE46E050E069E170E0D9
:100B800081E990E015D911C0843079F46091760044
:100B900081E990E092D48091760094D4809176009F
:100BA000811103C007D68093960080917600811151
:100BB000E3CE2BC1C59A89ED90E080D280E0A9D325
:100BC00060919700709198008091990090919A009F
:100BD00044D390D2182F803109F5DAD2F2DD40915A
:100BE0009700509198006091990070919A008FE160
:100BF00090E0FED881E08DD36091970070919800CD
:100C00008091990090919A0020E042E31ADD9C992E
:100C1000FECF1FBC1EBCC298BA98EEC0843009F04B
:100C2000F4C0EBD5F2C0C59881ED90E047D280E0EA
:100C300070D38EEC90E042D24091A3005091A4007A
:100C40006091A5007091A60080919B0090919C00FE
:100C5000A0919D00B0919E00480F591F6A1F7B1FF5
:100C600080919F009091A000A091A100B091A2005E
:100C7000480F591F6A1F7B1F8091A7009091A80001
:100C8000A091A900B091AA008A019B01080F191F29
:100C90002A1F3B1FC901B80140E07CD28AEC90E0DA
:100CA0000DD28091AD00813019F486EC90E004C043
:100CB000823019F482EC90E001D21CD2182F8031DE
:100CC00009F04BC065D27DDD43E150E063E270E0A6
:100CD0008BE990E06DD88DE027D68091AD00813012
:100CE00069F48EEB90E0EAD19D9B05C09C99FCCF06
:100CF00083C09C9B81C09D9BFCCF09C0823039F48E
:100D00008AEB90E0DBD19D9B22C09D9923C081E0BE
:100D100000D36BE970E0CE01019611DD6FE970E060
:100D2000CE0105960CDD63EA70E0CE01099607DD81
:100D300067EA70E0CE010D9602DD8091AB009091E4
:100D4000AC009A8B898BCE010196B5DB55C09C997E
:100D5000DACF52C09C99D9CF4FC0843009F055C02A
:100D600062EB70E08BE990E0E2D36CEA70E08FE92F
:100D700090E0DDD364EA70E083EA90E0D8D36DE9D7
:100D800070E087EA90E0D3D363D4F1D48093AD00D0
:100D90003CC02FE830E03A83298387E890E09C83C9
:100DA0008B830CE710E01E830D83C5988091AE0005
:100DB000833010F01092AE0081E790E07FD18091F7
:100DC000AE00FE013196E80FF11DE80FF11D8081A4
:100DD000918174D180E09DD28DD1182F803171F432
:100DE000D7D1EFDC6091AE0086E390E0F0D781E0F0
:100DF00090D28091AE0096D6CBD107C0843029F432
:100E00008091AE008F5F8093AE00812F4AC1C5985C
:100E10008BE690E053D180E07CD26091AF0070917E
:100E2000B0008091B1009091B20017D280E23ED123
:100E30006091B3007091B4008091B5009091B600BC
:100E40000CD258D1482E10E181135BC0A1D1B9DC7E
:100E500048E050E067E370E08FEA90E0A9D781E0D6
:100E600058D28EE592E0C6DC8091B3009091B40038
:100E7000A091B500B091B6004C015D019C01A501A7
:100E800060E070E080E090E000E1FDD6E0E2AE2EB0
:100E9000FBE1BF2EC12CD12CE12CF12C00E010E0A5
:100EA000A8D6522E632E742E852E8091AF0090917D
:100EB000B000A091B100B091B2005C016D019C0145
:100EC000A60160E070E080E090E000E1DCD6A0E206
:100ED000AA2EBBE1BB2EC12CD12CE12CF12C00E0C1
:100EE00010E087D6B22FA32FF42FE52F252D362D16
:100EF000472D582D6B2F7A2F8F2F9E2F3BDB48D1FC
:100F00000FC024E082130CC040E06FEA70E086E678
:100F100090E00CD240E063EB70E081E690E006D216
:100F2000842DBFC0C598BA9A89E590E0C7D080E00B
:100F3000F0D16091B7007091B8008091B9009091A4
:100F4000BA008BD18EE3B2D06091BB007091BC002F
:100F50008091BD009091BE0080D1CCD08B8B803130
:100F600009F084C015D12DDC8EE592E043DC4CE025
:100F700050E06FE370E087EB90E01AD781E0C9D1D1
:100F80008091BF009091C000A091C100B091C200BB
:100F90004C015D019C01A50160E070E080E090E003
:100FA00000E171D6E0E2AE2EFBE1BF2EC12CD12CC8
:100FB000E12CF12C00E010E01CD6322E432E542EF2
:100FC000652E8091BB009091BC00A091BD00B091B6
:100FD000BE004C015D019C01A50160E070E080E075
:100FE00090E000E150D6A0E2AA2EBBE1BB2EC12CBE
:100FF000D12CE12CF12C00E0FCD5722E832E242E76
:101000005C8B8091B7009091B800A091B900B0912D
:10101000BA005C016D019C01A60160E070E080E017
:1010200090E000E130D610E2A12E0BE1B02EC12CF1
:10103000D12CE12CF12C00E010E0DBD5B22FA32F56
:10104000F42FE52FE32CF42C052D162D272D382D0C
:10105000422D5C896B2F7A2F8F2F9E2FB4DA9C99AB
:101060008FCF12BA80E055D193D015C03B89343070
:1010700091F440E067EB70E080E590E057D140E00C
:101080006BEB70E089E490E051D140E06FEB70E0F1
:1010900082E490E04BD18B8904C080E191E00ED0D6
:1010A00029D094DB69CC1092780066CC8D3009F49D
:1010B0003DC48A3011F480E437C43AC4CF93DF933F
:1010C000FC018491EF012196882319F0EFDFFE01E6
:1010D000F8CFDF91CF91089588E091E0292F2F710B
:1010E00019F023B3292321F0990F8150B9F70895FE
:1010F000892F0895CF93DF93D5B3C4B384B3807E93
:1011000084BB85B38F6185BB80917700882381F094
:1011100093B3982319F01092770027C02FEF33EC88
:1011200099E0215030409040E1F700C000001DC020
:10113000D3DF80937700882339F395E02FEF31EEEA
:1011400084E0215030408040E1F700C0000023B32C
:1011500080917700282319F4915081F706C09923D4
:1011600021F010927700953079F2D5BBC4BBDF91A6
:10117000CF91089593B3982351F42FEF39EF90E076
:10118000215030409040E1F700C00000F3CF0895B7
:1011900080E1F0CF8F929F92AF92BF92CF92DF9279
:1011A000EF92FF920F931F93CF93DF93CDB7DEB7EC
:1011B00029970FB6F894DEBF0FBECDBFD42E8E0197
:1011C000075F1F4F9E012F5F3F4F79012AE0822E5C
:1011D000912CA12CB12CA5019401DDD4605DF80106
:1011E0006083B901CA01015011090E151F0599F755
:1011F000FE01329610E01F5F8191803331F089E06B
:10120000882E912CCD2CD12C03C01830A1F7F7CF0C
:10121000A12EB12CF701EA0DFB1D808147DFC4012F
:101220008A199B098C159D0511F48CE281D31F5FEF
:10123000193071F729960FB6F894DEBF0FBECDBFF7
:10124000DF91CF911F910F91FF90EF90DF90CF90A2
:10125000BF90AF909F908F900895CF92DF92EF92C2
:10126000FF920F931F93CF93DF93603127E27207B2
:101270008105910558F420917800273011F5693ED9
:1012800023E072078105910528F51BC0603A26E826
:10129000720721E08207910540F420917800273001
:1012A000A1F0CAE0D0E01BE40AC0603422E4720777
:1012B0002FE08207910570F0C0E1D7E21DE403E062
:1012C0000DC0C1E0D0E010E003C0C8EED3E01BE4E5
:1012D00000E004C0C4E6D0E01BE402E06E01E12CB3
:1012E000F12CA701960157D4CA01B901402F52DF52
:1012F000112311F0812FDADE87E394E0DFDECE01E7
:10130000DF91CF911F910F91FF90EF90DF90CF90E1
:101310000895CF93C82F8DE007D3CC2319F082E333
:1013200094E002C08DE294E0CF91C8CE2F923F921C
:101330004F925F926F927F928F929F92AF92BF92E5
:10134000CF92DF92EF92FF921F93CF93DF9300D063
:1013500000D000D0CDB7DEB79E838D831B01142F44
:10136000DB01CD90DD90ED90FC908091780086506F
:101370008630A0F490E0FC01EE0FFF1F8E0F9F1F40
:10138000FC01EC59FF4F80819181A2819C014A2F81
:1013900050E029833A834B835C8308C087E092EB5B
:1013A000A1E0B0E089839A83AB83BC83812C912C2C
:1013B00054018D819E8182DEC701B6014EDF2C0172
:1013C000612C712CC701B601A3019201E4D3C61AA6
:1013D000D70AE80AF90A81149104A104B10411F4AE
:1013E0005301420185E294E069DEC501B40135DFB5
:1013F00081DE813051F48C149D04AE04BF0480F56D
:10140000C818D908EA08FB082BC0823091F48981FA
:101410009A81AB81BC8188199909AA09BB09C816B0
:10142000D906EA06FB06E0F4C80CD91CEA1CFB1C32
:1014300017C0883099F4AAE0B0E0A5019401CDD39B
:101440004B015C0129813A814B815C81261737076A
:101450004807590728F45301420102C0843079F04B
:1014600080917800873009F0A4CF112309F4A1CF2F
:1014700020E040919500C701B601E3D89ACFD10191
:10148000CD92DD92ED92FC92139726960FB6F894CA
:10149000DEBF0FBECDBFDF91CF911F91FF90EF90C8
:1014A000DF90CF90BF90AF909F908F907F906F9084
:1014B0005F904F903F902F900895462FBC0181E29E
:1014C00094E034CFCF93DF93D82FC09195008CE177
:1014D00094E0F4DD8C2F90E0A0E0B0E040E0BC01AF
:1014E000CD0158DE80E194E0E9DD04DE813021F4B5
:1014F000C23050F0C15008C0823021F4C33620F40D
:10150000CF5F02C0843071F0DD2309F36091910058
:1015100070919200809193009091940020E04C2F64
:1015200090D8D5CFC0939500DF91CF9108954F9279
:101530005F926F927F928F929F92AF92BF92CF9263
:10154000DF92EF92FF920F931F93CF93DF93EC0103
:101550008B01C880D980EA80FB8081E4C81682E4D0
:10156000D8068FE0E806F10428F032E0C32ED12C33
:10157000E12CF12C412C512C3201439420E4822E99
:1015800022E4922E2FE0A22EB12CC80197DD40E07C
:10159000C701B601FFDD86E094E090DD40E0C301C5
:1015A000B201F8DD83E094E089DDA4DD813079F4D7
:1015B000D301C2010296A11DB11D8C159D05AE057A
:1015C000BF0518F7C418D508E608F708DECF823043
:1015D00081F4D501C40184199509A609B709C81673
:1015E000D906EA06FB0688F6C40CD51CE61CF71CD7
:1015F000CCCF8830A9F4AAE0B0E0A3019201EDD2EB
:101600002B013C0181E4481682E458068FE068060D
:10161000710408F4BACF412C512C32014394B5CF58
:10162000843009F0B2CFC882D982EA82FB82DF918E
:10163000CF911F910F91FF90EF90DF90CF90BF90CF
:10164000AF909F908F907F906F905F904F90089594
:10165000FF920F931F93CF93DF93C091AB00D09174
:10166000AC0001E010E08AE0F82E8FEF93E026DD79
:10167000209741F0CE01A0E0B0E040E0BC01CD01F8
:1016800089DD03C08CEF93E019DD84EF93E016DD74
:10169000C801A0E0B0E040E0BC01CD017BDD2ADD67
:1016A000813031F4C017D10700F3C01BD10BDDCF5F
:1016B000823049F4C80180959095C817D907A8F6DB
:1016C000C00FD11FD2CF883071F4003187E21807E4
:1016D00018F001E010E0C9CFC801F89E8001F99E22
:1016E000100D1124C2CF843009F0BFCFD093AC00CD
:1016F000C093AB00DF91CF911F910F91FF900895A0
:10170000AF92BF92CF92DF92EF92FF920F931F930F
:10171000CF937C016B01C0E0042F10E00150110950
:10172000C701CCDCAC2EB12CF501EE0FFF1FEC0D88
:10173000FD1D80819181C2DCDDDC813021F4CC2370
:1017400079F3C150EDCF823029F4A016B10644F7E9
:10175000CF5FE6CF843021F78C2FCF911F910F916F
:10176000FF90EF90DF90CF90BF90AF900895CF9310
:10177000DF9300D000D000D0CDB7DEB781EF93E08B
:101780009A8389838BEE93E09C838B8385EE93E031
:101790009E838D8343E0BE016F5F7F4F8AED93E0B0
:1017A000AFDF26960FB6F894DEBF0FBECDBFDF9138
:1017B000CF910895CF93DF9300D000D000D0CDB764
:1017C000DEB787ED93E09A83898382ED93E09C8373
:1017D0008B838EEC93E09E838D8343E0BE016F5F2D
:1017E0007F4F82EC93E08CDF26960FB6F894DEBF35
:1017F0000FBECDBFDF91CF910895CF93DF93CDB7CB
:10180000DEB728970FB6F894DEBF0FBECDBF8DEBC5
:1018100093E09A83898388EB93E09C838B8383EBAB
:1018200093E09E838D838EEA93E098878F8344E0D4
:10183000BE016F5F7F4F8AEA93E062DFA1E001C0E3
:10184000AA0F8A95EAF7B0E020E432E44FE050E0D6
:10185000C4D16093970070939800809399009093FF
:101860009A0028960FB6F894DEBF0FBECDBFDF9169
:10187000CF910895C1980895C19A0895CF93DF93A9
:10188000C82FD62F662311F0C09A01C0C098C7FF99
:1018900002C0A89A01C0A898C6FF02C0A99A01C0B8
:1018A000A998C5FF02C0AA9A01C0AA98C4FF02C0A5
:1018B000AB9A01C0AB9800C0DFDF82E08A95F1F7F8
:1018C00000C0D8DFC3FF02C0A89A01C0A898C2FF19
:1018D00002C0A99A01C0A998C1FF02C0AA9A01C07A
:1018E000AA98C0FF02C0AB9A01C0AB9800C0C4DF89
:1018F00092E09A95F1F700C0BDDFA89AA99AAA9A3A
:10190000AB9AD11108C0C43030F48FE999E1019746
:10191000F1F700C003C095ED9A95F1F70000DF9153
:10192000CF91089560E0AACF8058FCCF81E0FACF34
:1019300061E0A4CFB99AB89AA09AA19AA29AA39A60
:1019400099DFC098A89AA99AAA9AAB9A8FE59AEEBD
:101950000197F1F700C00000A898A99800C08CDF9B
:1019600092E09A95F1F700C085DF8FE090E401974F
:10197000F1F700C0000080DF92E09A95F1F700C017
:1019800079DF8FE891E00197F1F700C0000074DF84
:1019900092E09A95F1F700C06DDF85ED8A95F1F739
:1019A0000000AB9800C068DF92E09A95F1F700C0A4
:1019B00061DF85ED8A95F1F70000AB9800C05CDF30
:1019C00092E09A95F1F700C055DF82E08A95F1F731
:1019D00000C0A89A00C050DF92E09A95F1F700C0CD
:1019E00049DF85ED8A95F1F7000088E09BDF9EDFF7
:1019F00086E098DF8CE096CF12BA80EA8A95F1F7FC
:101A00008FE082BB8AE08A95F1F700C0089512BA90
:101A10008AE08A95F1F700C08FE082BB80EA8A9560
:101A2000F1F7089512BA8AE18A95F1F700C08FE0C4
:101A300082BB85E28A95F1F700000895CF93DF938A
:101A4000C1E3D1E0EFDF83E382BB855090E29A955A
:101A5000F1F78B30C9F785E08A95F1F700002197FF
:101A600089F7DF91CF910895AF92BF92CF92DF9225
:101A7000EF92FF920F931F93CF93DF9300D01F92AB
:101A8000CDB7DEB791E3E92EFF24F39423E3A22E32
:101A900010E00FE03FE0D32E3C2D4B2D9A2D11236B
:101AA00039F416E2082E892F902D3FE04FE007C051
:101AB00000001A950000382F0000492F0000C32EA7
:101AC000B42EA92E3A834B838983ACDF24E089812D
:101AD0004B813A8102BB0000000032BB90E29A9534
:101AE000F1F702BB0000000042BB90E29A95F1F7CB
:101AF000215081F7D2BA91E0E91AF10809F0CCCF70
:101B00000F900F900F90DF91CF911F910F91FF9049
:101B1000EF90DF90CF90BF90AF90089583E3A4CF74
:101B20008FE0A2CFCF93DF93813031F040F082304D
:101B300079F5C0E9DDE005C0CEE8DDE002C0CEE128
:101B4000DDE012BA9C9B23C057DF56DF55DF54DF20
:101B500053DF5DDF5CDF5BDF5ADF59DFFE01099594
:101B600056DF55DF54DF53DF52DF46DF45DF44DF0A
:101B700043DF42DF4CDF4BDF4ADF49DFFE010995DF
:101B800046DF45DF44DF43DF42DF41DFDBCF12BA10
:101B9000DF91CF910895A1E21A2EAA1BBB1BFD0174
:101BA0000DC0AA1FBB1FEE1FFF1FA217B307E4073C
:101BB000F50720F0A21BB30BE40BF50B661F771F94
:101BC000881F991F1A9469F7609570958095909574
:101BD0009B01AC01BD01CF0108956ED0A59F900D72
:101BE000B49F900DA49F800D911D112408956894B9
:101BF00001C0E8948F929F92CF93DF9305D0DF913D
:101C0000CF919F908F90089588249924F401E40146
:101C1000B0E41B2ED4019D158E049F04E007F1074C
:101C200038F4FC014B01CA01B901AD019E011694C3
:101C3000220F331F441F551F661F771F881F991FD0
:101C4000881C991CEE1FFF1FCC1FDD1FAA1FBB1F86
:101C50008A149B04EC05FD05CE05DF05A007B1073E
:101C600048F08A189B08EC09FD09CE09DF09A00B92
:101C7000B10B21601A94E1F62EF49401AF01BE017C
:101C8000CD01000C08950F93083090F0982F872F06
:101C9000762F652F542F432F322F22270850F4CF51
:101CA000220F331F441F551F661F771F881F991F60
:101CB0000A95B2F70F910895A29FB001B39FC0019A
:101CC000A39F01D0B29F700D811D1124911D089515
:101CD0008F929F92AF92BF92CF92DF92EF92FF923C
:101CE000CF93DF93EC01688179818A819B816115B3
:101CF00071058105910521F464E279ED8BE597E0AA
:101D00002DE133EF41E050E07BD049015A019B01C6
:101D1000AC01A7EAB1E461DF6B017C01ACEEB4EF8A
:101D2000A50194018BD0DC01CB018C0D9D1DAE1D56
:101D3000BF1DB7FF03C00197A109B04888839983ED
:101D4000AA83BB839F77DF91CF91FF90EF90DF90C5
:101D5000CF90BF90AF909F908F900895B9DF089576
:101D600080E690E0B5DF0895A0E0B0E080936000E9
:101D700090936100A0936200B09363000895FB010B
:101D8000DC0102C005900D9241505040D8F70895F3
:101D9000DC01CB01FC01E199FECF06C0FFBBEEBB2D
:101DA000E09A31960DB20D9241505040B8F7089527
:101DB000DC01A40FB51F4150504040F0CB01840F0F
:101DC000951F2E9105D041505040D8F70895262FE9
:101DD000E199FECF9FBB8EBBE09A01970DB2021630
:101DE00031F02DBB0FB6F894E29AE19A0FBE089538
:101DF0000396272FEDDFEBDF252FEADF242FE8CF37
:101E0000052E97FB16F400940FD057FD05D0C3DEC6
:101E100007FC02D046F408C05095409530952195B6
:101E20003F4F4F4F5F4F0895909580957095619506
:101E30007F4F8F4F9F4F0895B7FFCFCECEDE821BCF
:081E4000930B0895F894FFCF05
:101E48000100000020A107A0860107B20107B20126
:061E580007B20110270093
:00000001FF
