:100000001CC236C235C234C233C232C231C230C25F
:100010002FC22EC22DC22CC22BC22AC229C228C274
:1000200027C226C225C2BAC4C3C4CCC4D4C4EAC43D
:10003000F3C408C55FC5C4C5FCC5B1C6EDC64BC792
:1000400005C80D46696E633D000D46656E643D0052
:100050000D4673746172743D000D53574545502031
:10006000000D46323D000D46313D000D44544D46D5
:10007000000D545620564944454F0A004348455305
:1000800053424F415244004C415454494345005659
:100090004552544943414C2042415253000D546F44
:1000A00066663D000D5466616C6C3D000D546F6ECC
:1000B0003D000D54726973653D00573A4600573A4A
:1000C0005200543A4600543A520075732000543D91
:1000D000000D50554C534520000D484947482053CA
:1000E00050454544200020453D4C0020453D4800FA
:1000F00020443D000D50574D20000D5351554152A5
:1001000045205741564520000D4E4F49534520008C
:100110000D4E44445320564552302E31360A534931
:10012000474E414C2047454E455241544F52000DD9
:1001300045434720000D545249414E474C4520004D
:100140000D52534157544F4F544820000D534157BF
:10015000544F4F544820000D53494E452000494A02
:100160004B4B4A4949494948474544434343444422
:1001700043413E3D3B3938373736363637373737E8
:100180003737363533323131343D4D6584A9CFEEC2
:10019000FFFEEAC69A6D442511050001060D141CE8
:1001A000242D34393D404142434444454647474766
:1001B000474747474748484849494A4B4B4C4D4EAB
:1001C0004F505152535456585B5D60626466686B81
:1001D0006D707376797B7D7E7F7F7F7F7F7E7D7C78
:1001E000797774716D6966625F5C595754514F4DF0
:1001F0004C4B4A494846454443434344444445459F
:10020000454545454546474849494A4A4B4B4B4B6E
:100210004B4B4A4A49494949484848474747474755
:100220004747464646454545454546464645444476
:1002300043434343424242414141414141414140A4
:10024000403F3F40404141414141414140404040A9
:1002500040404040414141424344454748498083F2
:1002600086898C8F9295989C9FA2A5A8ABAEB0B3BF
:10027000B6B9BCBFC1C4C7C9CCCED1D3D5D8DADCDE
:10028000DEE0E2E4E6E8EAECEDEFF0F2F3F5F6F7B3
:10029000F8F9FAFBFCFCFDFEFEFFFFFFFFFFFFFF8E
:1002A000FFFFFFFFFEFEFDFCFCFBFAF9F8F7F6F599
:1002B000F3F2F0EFEDECEAE8E6E4E2E0DEDCDAD8D7
:1002C000D5D3D1CECCC9C7C4C1BFBCB9B6B3B0AE0B
:1002D000ABA8A5A29F9C9895928F8C898683807CE1
:1002E000797673706D6A6763605D5A5754514F4CED
:1002F000494643403E3B383633312E2C2A272523AE
:10030000211F1D1B1917151312100F0D0C0A0908B8
:1003100007060504030302010100000000000000BD
:100320000000000001010203030405060708090A92
:100330000C0D0F1012131517191B1D1F2123252734
:100340002A2C2E313336383B3E404346494C4F51E0
:1003500054575A5D6063676A6D707376797C00E804
:10036000030000E8030000E8030000E8030000E8E1
:10037000030000E8030000E8030000320040420FE1
:1003800000640000006400000064000000640000DD
:100390000000000000B9020000B9040000140000D1
:1003A00000204E00000A000000000D463D00384DC0
:1003B000487A00344D487A00324D487A00314D4831
:1003C0007A000D4558542053594E433A20004C4F63
:1003D000570048494748004E4F000D5472696767FF
:1003E00065723A200046414C4C200052495345204A
:1003F000004E4F000A282B2F2D2920004E44000DBF
:100400004E3D0075730075730A282B2F2D2920008F
:10041000250A282B2F2D2920312520000D44433D6E
:10042000000D463D000A282B2F2D2920004F46465F
:100430000A004F4E200A00487A0011241FBECFE563
:10044000D4E0DEBFCDBF10E0A0E6B0E0E0EEFDE11D
:1004500002C005900D92A637B107D9F720E0A6E7B4
:10046000B0E001C01D92A33CB207E1F72AD2B6CC9E
:10047000C7CD2F933F93F1E0E0E022273327260FEB
:10048000371FE81F008002BA9C99F9CF3F913F9136
:1004900008952F933F93F4E0E0E02227332708B23A
:1004A000260F371FE81F08F40F2608BA9C99F8CFCB
:1004B0003F913F910895AF93BF937F936F935F9365
:1004C0004F933F932F93F92FE82FA089B189E89498
:1004D000BB2319F4AA2309F46894508161817281C5
:1004E000222733274427250F361F471F28F00000F7
:1004F00042BB9C99F8CF34C02FEF22BB5481658159
:100500007681222733274427250F361F471F28F0DF
:10051000000000009C99F8CF23C05085618572854A
:100520002FEF3FEF4FEF251B360B470B442329F0EE
:10053000000042BB9C99F7CF13C054856585768532
:10054000222733274427250F361F471F28F0000096
:1005500000009C99F8CF04C016F0119709F0BDCFA8
:1005600012BA2F913F914F915F916F917F91BF91FF
:10057000AF910895AF93BF931F930F93FF92EF92A4
:1005800012BAF1E0E0E0BF2FAE2F112D012DF12CBA
:10059000E12C060F171FE81F00800694902D06948B
:1005A00006949019E20EF31EA41F5C915695590F04
:1005B00052BB9C99EECF12BAEF90FF900F911F9112
:1005C000BF91AF910895E0E0F1E0912D512DC29AD5
:1005D000960F571FE81F18F0008002BAF9CF00806D
:1005E00002BA6E0D7F1D801F481748F131F437178E
:1005F00030F131F4261718F116C000000000000099
:10060000000000000000960F571FE81F960F571FAD
:10061000E81F960F571FE81F960F571FE81F960FEA
:10062000571FE81F000039F4960F571FE81F0000FE
:1006300000000000F8CF008002BA9C99C9CFC29890
:100640000895CF92DF92EF92FF92CF93DF936B01E9
:100650007C01D42FC22FC298BA9A60E074E284EF72
:1006600090E0A701960163DA21503109410951094F
:100670008FB582608FBD8EB588618EBD8DE2C81644
:1006800081E0D806E104F104E8F037BD26BD809191
:100690007700883049F4DA01C901B695A795979596
:1006A000879599BD88BD0AC0AD2FB0E062DA24E617
:1006B00030E040E050E03BDA39BD28BD8EB5887FA0
:1006C000816013C0232F342F452F552737BD26BDFA
:1006D000AD2FB0E04EDA24E630E040E050E027DA1B
:1006E00039BD28BD8EB5887F84608EBD8FB5806290
:1006F0008FBDC13059F49C9B0DC09D9B03C08FB52D
:10070000806202C08FB58F7D8FBDF5CFC23081F47E
:100710009C9905C01FBC1EBCC298BA9809C09D997F
:1007200003C08FB5806202C08FB58F7D8FBDF0CFC3
:10073000DF91CF91FF90EF90DF90CF9008958F924F
:100740009F92AF92BF92CF92DF92EF92FF920F9360
:100750001F93CF93DF93EC01FB0180809180A280F7
:10076000B3809401A50160E070E080E090E000E1DA
:1007700056DAA12CE0E9BE2EC12CD12CE12CF12CB3
:1007800000E010E002DA59016A017B018C0120E0EF
:1007900030E040E051E060E070E080E090E0F5D9CA
:1007A000288339834A835B83DF91CF911F910F9117
:1007B000FF90EF90DF90CF90BF90AF909F908F9081
:1007C00008956091770080E090E0CDCA883011F004
:1007D000823021F4809177008F5F09C0813049F425
:1007E00080917700811102C08DE001C0815080931B
:1007F0007700089540E051E0BC0180E091E08BCAB1
:100800008F929F92AF92BF92CF92DF92EF92FF9220
:100810000F931F93CF937B016A01C59828D480E082
:1008200044D5F7016081718182819381E2D43DD406
:10083000C82F803149F537D4F70140815181628159
:100840007381C601A1DABDDF81E02FD5F701808079
:100850009180A280B3809401A50160E070E080E007
:1008600090E000E1DCD9E0E2AE2EFBE1BF2EC12C2E
:10087000D12CE12CF12C00E010E087D9B901CA019C
:10088000F8DD12BA10D405C0843019F460E0C70155
:10089000E0D58C2FCF911F910F91FF90EF90DF90BB
:1008A000CF90BF90AF909F908F9090CF20E090E03E
:1008B000E92FF0E0E050FF4F2083280F9F5FC1F742
:1008C0000895CF93DF93CDB7DEB767970FB6F8944F
:1008D000DEBF0FBECDBF38B327B381E090E001C0CB
:1008E000880F3A95EAF7822B87BBBD9ABB9A88B3EB
:1008F00018BA8FE185BB12BA8FEF81BB0FEF19EFEA
:1009000020E0015010402040E1F700C0000082E3E9
:100910009C991BC03FEF91EE04E0315090400040A5
:10092000E1F700C00000815099F780E1AED34CE4BC
:1009300050E06EE573E087E790E0EDD94CE450E0DD
:1009400060E070E087E790E0FFD9BB9A82E383BD67
:100950008AE185BD1FEF21EE34E011502040304088
:10096000E1F700C00000B2D7ADD74CE450E060E042
:1009700070E087E790E0D8D9B0EA4B2EBBE05B2E61
:10098000612C712CE09177008E2F90E08E309105D4
:1009900008F062C3FC01ED5EFF4F09948EE592E022
:1009A00029DF41E050E068E770E087E591E008C0AA
:1009B00081E07CDF45E050E06CE770E08CE491E0A2
:1009C0001FDFE0CF8FEF72DF49E050E060E870E0BA
:1009D00080E491E0F5CF91E081E0E82FF0E0E05095
:1009E000FF4F908387FD02C09E5F01C092508F5FD2
:1009F000A1F7109200014DE050E064E870E085E35B
:100A000091E0DECF8EE591E0F5DE41E150E068E86F
:100A100070E08FE291E0D4CFC59888E091E027D3D1
:100A200080E043D442D3182F803109F052C23BD327
:100A3000C8DE81E03AD49C9B03C05ED982BBFBCF69
:100A400012BA37C2C59A8AEF90E011D380E02DD454
:100A500060918C0070918D0080918E0090918F003C
:100A6000C8D323D3382E80E138123BC01CD3A9DE73
:100A700040918C0050918D0060918E0070918F009C
:100A800085E190E081D981E010D480918C00909133
:100A90008D00A0918E00B0918F00C298BA9A4C013F
:100AA0005D019C01A50160E070E080E090E000E164
:100AB000B6D8E0E2AE2EFBE1BF2EC12CD12CE12C4A
:100AC000F12C00E010E061D849015A01C501B401E0
:100AD000660F771F881F991FDCDCC298BA98E3D293
:100AE00007C094E0391204C060E08CE890E0B1D413
:100AF000832DB0C2C59A84EF90E0B9D28091760080
:100B0000D4D3609190007091910080919200909167
:100B100093006FD380EF90E0AAD26091940070E0D0
:100B200080E090E040E002D380919500813019F49C
:100B30008BEE90E004C0823019F486EE90E097D2FC
:100B4000B4D2182F803131F5AED28091760088234F
:100B500039F01FBC1EBCC298BA98109276002BC008
:100B600081E080937600A1D3609190007091910014
:100B70008091920090919300209195004091940073
:100B800060DD1FDE46E050E069E170E080E990E062
:100B9000DBD811C0843079F46091760080E990E070
:100BA00058D4809176005AD480917600811103C088
:100BB000CDD580939500809176008111E3CE89C1D7
:100BC000C59A89ED90E053D280E06FD36091960092
:100BD0007091970080919800909199000AD365D206
:100BE000182F803109F55FD2ECDD409196005091CD
:100BF000970060919800709199008FE190E0C4D8BF
:100C000081E053D360919600709197008091980095
:100C10009091990020E042E314DD9C99FECF1FBC27
:100C20001EBCC298BA9845C1843009F052C1B1D5F2
:100C300050C1C59881ED90E01AD280E036D38EEC99
:100C400090E015D24091A2005091A3006091A400C1
:100C50007091A50080919A0090919B00A0919C00BA
:100C6000B0919D00480F591F6A1F7B1F80919E0005
:100C700090919F00A091A000B091A100480F591F32
:100C80006A1F7B1F8091A6009091A700A091A800E9
:100C9000B091A9008A019B01080F191F2A1F3B1F51
:100CA000C901B80140E042D28AEC90E0E0D18091E5
:100CB000AC00813019F486EC90E004C0823019F465
:100CC00082EC90E0D4D1F1D1182F803109F04BC0E3
:100CD000EAD177DD43E150E063E270E08AE990E039
:100CE00033D88DE0EDD58091AC00813069F48EEB86
:100CF00090E0BDD19D9B05C09C99FCCFDAC09C9B28
:100D0000D8C09D9BFCCF09C0823039F48AEB90E0BB
:100D1000AED19D9B22C09D9923C081E0C6D26AE9D5
:100D200070E0CE0101960BDD6EE970E0CE01059614
:100D300006DD62EA70E0CE01099601DD66EA70E048
:100D4000CE010D96FCDC8091AA009091AB009A8BAD
:100D5000898BCE010196AFDBACC09C99DACFA9C0DC
:100D60009C99D9CFA6C0843009F0B3C062EB70E083
:100D70008AE990E0A8D36CEA70E08EE990E0A3D312
:100D800064EA70E082EA90E09ED36DE970E086EA62
:100D900090E099D329D4B7D48093AC009AC02FE8BF
:100DA00030E03A83298387E890E09C838B830CE7CB
:100DB00010E01E830D83C5988091AD00833010F044
:100DC0001092AD0081E790E052D18091AD00FE011C
:100DD0003196E80FF11DE80FF11D8081918147D117
:100DE00080E063D262D1182F803169F45CD1E9DCF4
:100DF0006091AD0086E390E0B6D781E056D2809155
:100E0000AD005CD656C0843009F063C08091AD005F
:100E10008F5F8093AD005DC0C5988BE690E027D1D1
:100E200080E043D26091AE007091AF008091B0003D
:100E30009091B100DED180E212D16091B200709148
:100E4000B3008091B4009091B500D3D12ED1182F6A
:100E5000803189F528D1B5DC48E050E067E370E0E7
:100E60008EEA90E071D781E020D28EE592E0C2DC7C
:100E70008091B2009091B300A091B400B091B50000
:100E800077276627A301920152D669017A018091E2
:100E9000AE009091AF00A091B000B091B100772763
:100EA0006627A301920143D6CA01B901A7019601A1
:100EB00061DBF9D00EC0843061F440E06EEA70E08E
:100EC00086E690E0FFD140E062EB70E081E690E0E2
:100ED000F9D1812FBFC0C598BA9A89E590E0C7D0F3
:100EE00080E0E3D16091B6007091B7008091B800C6
:100EF0009091B9007ED18EE3B2D06091BA0070912A
:100F0000BB008091BC009091BD0073D1CED08B8B83
:100F1000803109F084C0C7D054DC8EE592E06ADCF1
:100F20004CE050E06FE370E086EB90E00DD781E09D
:100F3000BCD18091BE009091BF00A091C000B09143
:100F4000C1004C015D019C01A50160E070E080E002
:100F500090E000E164D6E0E2AE2EFBE1BF2EC12CB2
:100F6000D12CE12CF12C00E010E00FD6322E3C8B7E
:100F7000242E5D8B8091BA009091BB00A091BC00A3
:100F8000B091BD004C015D019C01A50160E070E0E5
:100F900080E090E000E143D6A0E2AA2EBBE1BB2EA8
:100FA000C12CD12CE12CF12C00E0EFD52E8B3F8B06
:100FB000942E852E8091B6009091B700A091B80034
:100FC000B091B9005C016D019C01A60160E070E088
:100FD00080E090E000E123D610E2A12E0BE1B02EDC
:100FE000C12CD12CE12CF12C00E010E0CED5B22F99
:100FF000A32FF42FE52FE32CFC88022D1D892E89C9
:101000003F89492D582D6B2F7A2F8F2F9E2FDBDA9A
:101010009C998FCF12BA80E048D145D015C01B896A
:10102000143091F440E066EB70E080E590E04AD146
:1010300040E06AEB70E089E490E044D140E06EEB80
:1010400070E082E490E03ED18B8904C080E191E0C1
:101050000ED02BD0BBDB96CC1092770093CC8D308A
:1010600009F430C48A3011F480E42AC42DC4CF932B
:10107000DF93FC018491EF012196882319F0EFDFC3
:10108000FE01F8CFDF91CF91089593B3982351F4E7
:101090002FEF39EF90E0215030409040E1F700C051
:1010A0000000F3CF089580E1F0CF0F931F93CF930B
:1010B000DF931F92CDB7DEB715B304B384B3807E40
:1010C00084BB85B38F6185BB999B02C09C99FCCF83
:1010D0008FE19EE40197F1F700C00000999902C0EA
:1010E0009C99FCCF9C9915C085E09FEF21EE34E0E0
:1010F000915020403040E1F700C000009C9904C0AE
:10110000815099F784E001C080E18983CCDF898137
:1011100005C0989B02C082E001C081E015BB04BB02
:101120000F90DF91CF911F910F9108958F929F9211
:10113000AF92BF92CF92DF92EF92FF920F931F93E5
:10114000CF93DF93CDB7DEB729970FB6F894DEBF04
:101150000FBECDBFD42E8E01075F1F4F9E012F5FA4
:101160003F4F79012AE0822E912CA12CB12CA501B0
:101170009401DDD4605DF8016083B901CA010150BA
:1011800011090E151F0599F7FE01329610E01F5F39
:101190008191803331F089E0882E912CCD2CD12C97
:1011A00003C01830A1F7F7CFA12EB12CF701EA0D3B
:1011B000FB1D808154DFC4018A199B098C159D0594
:1011C00011F48CE281D31F5F193071F729960FB6A5
:1011D000F894DEBF0FBECDBFDF91CF911F910F916D
:1011E000FF90EF90DF90CF90BF90AF909F908F9047
:1011F0000895CF92DF92EF92FF920F931F93CF93B8
:10120000DF93603127E272078105910558F4209140
:101210007700273011F5693E23E0720781059105BB
:1012200028F51BC0603A26E8720721E08207910585
:1012300040F4209177002730A1F0CAE0D0E01BE411
:101240000AC0603422E472072FE08207910570F033
:10125000C0E1D7E21DE403E00DC0C1E0D0E010E042
:1012600003C0C8EED3E01BE400E004C0C4E6D0E055
:101270001BE402E06E01E12CF12CA701960157D48A
:10128000CA01B901402F52DF112311F0812FE7DE8F
:1012900087E394E0ECDECE01DF91CF911F910F91B7
:1012A000FF90EF90DF90CF900895CF93C82F8DE0FF
:1012B00007D3CC2319F082E394E002C08DE294E0DE
:1012C000CF91D5CE2F923F924F925F926F927F92A5
:1012D0008F929F92AF92BF92CF92DF92EF92FF9246
:1012E0001F93CF93DF9300D000D000D0CDB7DEB7EF
:1012F0009E838D831B01142FDB01CD90DD90ED903B
:10130000FC908091770086508630A0F490E0FC013C
:10131000EE0FFF1F8E0F9F1FFC01EC59FF4F8081C6
:101320009181A2819C014A2F50E029833A834B830B
:101330005C8308C087E092EBA1E0B0E089839A83E8
:10134000AB83BC83812C912C54018D819E818FDED7
:10135000C701B6014EDF2C01612C712CC701B6010B
:10136000A3019201E4D3C61AD70AE80AF90A811444
:101370009104A104B10411F45301420185E294E007
:1013800076DEC501B40135DF90DE813051F48C1476
:101390009D04AE04BF0480F5C818D908EA08FB080C
:1013A0002BC0823091F489819A81AB81BC818819EC
:1013B0009909AA09BB09C816D906EA06FB06E0F492
:1013C000C80CD91CEA1CFB1C17C0803199F4AAE098
:1013D000B0E0A5019401CDD34B015C0129813A8194
:1013E0004B815C81261737074807590728F45301BA
:1013F000420102C0843079F080917700873009F093
:10140000A4CF112309F4A1CF20E040919400C7019B
:10141000B60117D99ACFD101CD92DD92ED92FC920F
:10142000139726960FB6F894DEBF0FBECDBFDF919F
:10143000CF911F91FF90EF90DF90CF90BF90AF9032
:101440009F908F907F906F905F904F903F902F90E4
:101450000895462FBC0181E294E034CFCF93DF930F
:10146000D82FC09194008CE194E001DE8C2F90E0A5
:10147000A0E0B0E040E0BC01CD0158DE80E194E0A6
:10148000F6DD13DE813021F4C23050F0C15008C0C7
:10149000823021F4C33620F4CF5F02C0843071F073
:1014A000DD2309F36091900070919100809192008A
:1014B0009091930020E04C2FC4D8D5CFC0939400D6
:1014C000DF91CF9108954F925F926F927F928F92AA
:1014D0009F92AF92BF92CF92DF92EF92FF920F93C3
:1014E0001F93CF93DF93EC018B01C880D980EA80F2
:1014F000FB8081E4C81682E4D8068FE0E806F10498
:1015000028F032E0C32ED12CE12CF12C412C512CAF
:101510003201439420E4822E22E4922E2FE0A22E68
:10152000B12CC801A4DD40E0C701B601FFDD86E0B3
:1015300094E09DDD40E0C301B201F8DD83E094E07A
:1015400096DDB3DD813079F4D301C2010296A11D8D
:10155000B11D8C159D05AE05BF0518F7C418D5083B
:10156000E608F708DECF823081F4D501C401841982
:101570009509A609B709C816D906EA06FB0688F632
:10158000C40CD51CE61CF71CCCCF8031A9F4AAE012
:10159000B0E0A3019201EDD22B013C0181E4481699
:1015A00082E458068FE06806710408F4BACF412C33
:1015B000512C32014394B5CF843009F0B2CFC882A8
:1015C000D982EA82FB82DF91CF911F910F91FF9028
:1015D000EF90DF90CF90BF90AF909F908F907F90D3
:1015E0006F905F904F900895FF920F931F93CF934A
:1015F000DF93C091AA00D091AB0001E010E08AE037
:10160000F82E8FEF93E033DD209741F0CE01A0E07C
:10161000B0E040E0BC01CD0189DD03C08CEF93E078
:1016200026DD84EF93E023DDC801A0E0B0E040E0D8
:10163000BC01CD017BDD39DD813031F4C017D1072C
:1016400000F3C01BD10BDDCF823049F4C801809577
:101650009095C817D907A8F6C00FD11FD2CF8031F7
:1016600071F4003187E2180718F001E010E0C9CFEB
:10167000C801F89E8001F99E100D1124C2CF84305C
:1016800009F0BFCFD093AB00C093AA00DF91CF91F8
:101690001F910F91FF900895AF92BF92CF92DF926A
:1016A000EF92FF920F931F93CF937C016B01C0E0E9
:1016B000042F10E001501109C701D9DCAC2EB12C68
:1016C000F501EE0FFF1FEC0DFD1D80819181CFDC38
:1016D000ECDC813021F4CC2379F3C150EDCF8230A2
:1016E00029F4A016B10644F7CF5FE6CF843021F786
:1016F0008C2FCF911F910F91FF90EF90DF90CF90A3
:10170000BF90AF900895CF93DF9300D000D000D06A
:10171000CDB7DEB781EF93E09A8389838BEE93E0B8
:101720009C838B8385EE93E09E838D8343E0BE0193
:101730006F5F7F4F8AED93E0AFDF26960FB6F89488
:10174000DEBF0FBECDBFDF91CF910895CF93DF9362
:1017500000D000D000D0CDB7DEB787ED93E09A83FC
:10176000898382ED93E09C838B838EEC93E09E8350
:101770008D8343E0BE016F5F7F4F82EC93E08CDF8F
:1017800026960FB6F894DEBF0FBECDBFDF91CF9186
:101790000895CF93DF93CDB7DEB728970FB6F894AF
:1017A000DEBF0FBECDBF8DEB93E09A83898388EBBC
:1017B00093E09C838B8383EB93E09E838D838EEAFF
:1017C00093E098878F8344E0BE016F5F7F4F8AEA82
:1017D00093E062DFA1E001C0AA0F8A95EAF7B0E0CA
:1017E00020E432E44FE050E0C4D16093960070935F
:1017F0009700809398009093990028960FB6F894DC
:10180000DEBF0FBECDBFDF91CF910895C19808957F
:10181000C19A0895CF93DF93C82FD62F662311F076
:10182000C09A01C0C098C7FF02C0A89A01C0A8987A
:10183000C6FF02C0A99A01C0A998C5FF02C0AA9A12
:1018400001C0AA98C4FF02C0AB9A01C0AB9800C007
:10185000DFDF82E08A95F1F700C0D8DFC3FF02C066
:10186000A89A01C0A898C2FF02C0A99A01C0A9986D
:10187000C1FF02C0AA9A01C0AA98C0FF02C0AB9AD9
:1018800001C0AB9800C0C4DF92E09A95F1F700C0A8
:10189000BDDFA89AA99AAA9AAB9AD11108C0C43000
:1018A00030F48FE999E10197F1F700C003C095ED9D
:1018B0009A95F1F70000DF91CF91089560E0AACFEB
:1018C0008058FCCF81E0FACF61E0A4CFB99AB89AF2
:1018D000A09AA19AA29AA39A99DFC098A89AA99AC5
:1018E000AA9AAB9A8FE59AEE0197F1F700C0000033
:1018F000A898A99800C08CDF92E09A95F1F700C0F3
:1019000085DF8FE090E40197F1F700C0000080DFF1
:1019100092E09A95F1F700C079DF8FE891E00197A6
:10192000F1F700C0000074DF92E09A95F1F700C073
:101930006DDF85ED8A95F1F70000AB9800C068DF98
:1019400092E09A95F1F700C061DF85ED8A95F1F795
:101950000000AB9800C05CDF92E09A95F1F700C000
:1019600055DF82E08A95F1F700C0A89A00C050DFE9
:1019700092E09A95F1F700C049DF85ED8A95F1F77D
:10198000000088E09BDF9EDF86E098DF8CE096CF4A
:1019900012BA80EA8A95F1F78FE082BB8AE08A95D5
:1019A000F1F700C0089512BA8AE08A95F1F700C0F5
:1019B0008FE082BB80EA8A95F1F7089512BA8AE136
:1019C0008A95F1F700C08FE082BB85E28A95F1F736
:1019D00000000895CF93DF93C1E3D1E0EFDF83E30D
:1019E00082BB855090E29A95F1F78B30C9F785E07C
:1019F0008A95F1F70000219789F7DF91CF9108953B
:101A0000AF92BF92CF92DF92EF92FF920F931F930C
:101A1000CF93DF9300D01F92CDB7DEB791E3E92ECD
:101A2000FF24F39423E3A22E10E00FE03FE0D32E37
:101A30003C2D4B2D9A2D112339F416E2082E892FB7
:101A4000902D3FE04FE007C000001A950000382FAE
:101A50000000492F0000C32EB42EA92E3A834B83D9
:101A60008983ACDF24E089814B813A8102BB00008D
:101A7000000032BB90E29A95F1F702BB0000000033
:101A800042BB90E29A95F1F7215081F7D2BA91E0EA
:101A9000E91AF10809F0CCCF0F900F900F90DF9169
:101AA000CF911F910F91FF90EF90DF90CF90BF905B
:101AB000AF90089583E3A4CF8FE0A2CFCF93DF93BD
:101AC000813031F040F0823079F5CCE5DDE005C0C1
:101AD000CAE5DDE002C0CAEEDCE012BA9C9B23C07E
:101AE00057DF56DF55DF54DF53DF5DDF5CDF5BDF41
:101AF0005ADF59DFFE01099556DF55DF54DF53DF0A
:101B000052DF46DF45DF44DF43DF42DF4CDF4BDFA0
:101B10004ADF49DFFE01099546DF45DF44DF43DF49
:101B200042DF41DFDBCF12BADF91CF910895A1E20E
:101B30001A2EAA1BBB1BFD010DC0AA1FBB1FEE1F47
:101B4000FF1FA217B307E407F50720F0A21BB30B92
:101B5000E40BF50B661F771F881F991F1A9469F70E
:101B600060957095809590959B01AC01BD01CF016A
:101B700008956ED0A59F900DB49F900DA49F800DE9
:101B8000911D11240895689401C0E8948F929F924A
:101B9000CF93DF9305D0DF91CF919F908F900895E1
:101BA00088249924F401E401B0E41B2ED4019D158E
:101BB0008E049F04E007F10738F4FC014B01CA01D1
:101BC000B901AD019E011694220F331F441F551F0A
:101BD000661F771F881F991F881C991CEE1FFF1F07
:101BE000CC1FDD1FAA1FBB1F8A149B04EC05FD053B
:101BF000CE05DF05A007B10748F08A189B08EC095D
:101C0000FD09CE09DF09A00BB10B21601A94E1F6A2
:101C10002EF49401AF01BE01CD01000C08950F9385
:101C2000083090F0982F872F762F652F542F432F51
:101C3000322F22270850F4CF220F331F441F551F85
:101C4000661F771F881F991F0A95B2F70F91089595
:101C5000A29FB001B39FC001A39F01D0B29F700D9E
:101C6000811D1124911D08958F929F92AF92BF9272
:101C7000CF92DF92EF92FF92CF93DF93EC016881D6
:101C800079818A819B81611571058105910521F416
:101C900064E279ED8BE597E02DE133EF41E050E030
:101CA0007BD049015A019B01AC01A7EAB1E461DF95
:101CB0006B017C01ACEEB4EFA50194018BD0DC018B
:101CC000CB018C0D9D1DAE1DBF1DB7FF03C001973D
:101CD000A109B04888839983AA83BB839F77DF914A
:101CE000CF91FF90EF90DF90CF90BF90AF909F90FB
:101CF0008F900895B9DF089580E690E0B5DF0895EC
:101D0000A0E0B0E08093600090936100A093620037
:101D1000B09363000895FB01DC0102C005900D92B1
:101D200041505040D8F70895DC01CB01FC01E19906
:101D3000FECF06C0FFBBEEBBE09A31960DB20D920E
:101D400041505040B8F70895DC01A40FB51F415031
:101D5000504040F0CB01840F951F2E9105D041508B
:101D60005040D8F70895262FE199FECF9FBB8EBB38
:101D7000E09A01970DB2021631F02DBB0FB6F89420
:101D8000E29AE19A0FBE08950396272FEDDFEBDF6D
:101D9000252FEADF242FE8CF052E97FB16F40094B9
:101DA0000FD057FD05D0C3DE07FC02D046F408C0B3
:101DB00050954095309521953F4F4F4F5F4F089577
:101DC00090958095709561957F4F8F4F9F4F0895A7
:101DD000B7FFCFCECEDE821B930B0895F894FFCFD2
:101DE0000100000020A107A0860107B20107B2018F
:061DF00007B201102700FC
:00000001FF
