:100000007FC399C398C397C396C395C394C393C33F
:1000100092C391C390C38FC38EC38DC38CC38BC354
:100020008AC389C388C398C5A0C5A9C5B1C5B9C5C8
:10003000C1C5D4C523C688C6C0C617C851C8AFC875
:100040000D44544D46000D545620564944454F0A20
:10005000004348455353424F415244004C4154548D
:1000600049434500564552544943414C2042415270
:1000700053000D546F66663D000D5466616C6C3D17
:10008000000D546F6E3D000D54726973653D00574D
:100090003A4600573A5200543A4600543A520075D4
:1000A000732000543D000D50554C534520000D4821
:1000B000494748205350454544200020453D4C00C9
:1000C00020453D480020443D000D50574D20000D77
:1000D000535155415245205741564520000D4E4F32
:1000E00049534520000D4E44445320564552302E6E
:1000F00031350A5349474E414C2047454E45524100
:10010000544F52000D45434720000D545249414E73
:10011000474C4520000D52534157544F544820003E
:100120000D534157544F544820000D53494E45201C
:1001300000494A4B4B4A494949494847454443438A
:1001400043444443413E3D3B3938373736363637F2
:100150003737373737363533323131343D4D6584B3
:10016000A9CFEEFFFEEAC69A6D44251105000106EF
:100170000D141C242D34393D40414243444445462E
:10018000474747474747474748484849494A4B4BED
:100190004C4D4E4F505152535456585B5D60626403
:1001A00066686B6D707376797B7D7E7F7F7F7F7FE6
:1001B0007E7D7C797774716D6966625F5C59575496
:1001C000514F4D4C4B4A49484645444343434444B0
:1001D000444545454545454546474849494A4A4BB2
:1001E0004B4B4B4B4B4A4A4949494948484847477A
:1001F000474747474746464645454545454646469F
:1002000045444443434343424242414141414141C9
:10021000414140403F3F40404141414141414140D7
:1002200040404040404040414141424344454748AE
:100230004900020406080A0C0E10121416181A1CA3
:100240001E20222426282A2C2E30323436383A3CDE
:100250003E40424446484A4C4E50525456585A5CCE
:100260005E60626466686A6C6E70727476787A7CBE
:100270007E80828486888A8C8E90929496989A9CAE
:100280009EA0A2A4A6A8AAACAEB0B2B4B6B8BABC9E
:10029000BEC0C2C4C6C8CACCCED0D2D4D6D8DADC8E
:1002A000DEE0E2E4E6E8EAECEEF0F2F4F6F8FAFC7E
:1002B000FEFFFDFBF9F7F5F3F1EFEFEBE9E7E5E31F
:1002C000E1DFDDDBD9D7D5D3D1CFCFCBC9C7C5C30C
:1002D000C1BFBDBBB9B7B5B3B1AFAFABA9A7A5A3FC
:1002E000A19F9D9B99979593918F8F8B89878583EC
:1002F000817F7D7B79777573716F6F6B69676563DC
:10030000615F5D5B59575553514F4F4B49474543CB
:10031000413F3D3B39373533312F2F2B29272523BB
:10032000211F1D1B19171513110F0F0B09070503AB
:1003300001FFFEFDFCFBFAF9F8F7F6F5F4F3F2F134
:10034000F0EFEEEDECEBEAE9E8E7E6E5E4E3E2E125
:10035000E0DFDEDDDCDBDAD9D8D7D6D5D4D3D2D115
:10036000D0CFCECDCCCBCAC9C8C7C6C5C4C3C2C105
:10037000C0BFBEBDBCBBBAB9B8B7B6B5B4B3B2B1F5
:10038000B0AFAEADACABAAA9A8A7A6A5A4A3A2A1E5
:10039000A09F9E9D9C9B9A999897969594939291D5
:1003A000908F8E8D8C8B8A898887868584838281C5
:1003B000807F7E7D7C7B7A797877767574737271B5
:1003C000706F6E6D6C6B6A696867666564636261A5
:1003D000605F5E5D5C5B5A59585756555453525195
:1003E000504F4E4D4C4B4A49484746454443424185
:1003F000403F3E3D3C3B3A39383736353433323175
:10040000302F2E2D2C2B2A29282726252423222164
:10041000201F1E1D1C1B1A19181716151413121154
:10042000100F0E0D0C0B0A09080706050403020144
:1004300000000102030405060708090A0B0C0D0E53
:100440000F101112131415161718191A1B1C1D1E44
:100450001F202122232425262728292A2B2C2D2E34
:100460002F303132333435363738393A3B3C3D3E24
:100470003F404142434445464748494A4B4C4D4E14
:100480004F505152535455565758595A5B5C5D5E04
:100490005F606162636465666768696A6B6C6D6EF4
:1004A0006F707172737475767778797A7B7C7D7EE4
:1004B0007F808182838485868788898A8B8C8D8ED4
:1004C0008F909192939495969798999A9B9C9D9EC4
:1004D0009FA0A1A2A3A4A5A6A7A8A9AAABACADAEB4
:1004E000AFB0B1B2B3B4B5B6B7B8B9BABBBCBDBEA4
:1004F000BFC0C1C2C3C4C5C6C7C8C9CACBCCCDCE94
:10050000CFD0D1D2D3D4D5D6D7D8D9DADBDCDDDE83
:10051000DFE0E1E2E3E4E5E6E7E8E9EAEBECEDEE73
:10052000EFF0F1F2F3F4F5F6F7F8F9FAFBFCFDFE63
:10053000FF808386898C8F9295989C9FA2A5A8ABFB
:10054000AEB0B3B6B9BCBFC1C4C7C9CCCED1D3D588
:10055000D8DADCDEE0E2E4E6E8EAECEDEFF0F2F334
:10056000F5F6F7F8F9FAFBFCFCFDFEFEFFFFFFFFD6
:10057000FFFFFFFFFFFFFFFEFEFDFCFCFBFAF9F8AB
:10058000F7F6F5F3F2F0EFEDECEAE8E6E4E2E0DEB0
:10059000DCDAD8D5D3D1CECCC9C7C4C1BFBCB9B6BB
:1005A000B3B0AEABA8A5A29F9C9895928F8C89867C
:1005B00083807C797673706D6A6763605D5A575487
:1005C000514F4C494643403E3B383633312E2C2A5E
:1005D000272523211F1D1B1917151312100F0D0C92
:1005E0000A090807060504030302010100000000D0
:1005F00000000000000000010102030304050607DB
:1006000008090A0C0D0F1012131517191B1D1F21B5
:100610002325272A2C2E313336383B3E404346498A
:100620004C4F5154575A5D6063676A6D70737679A9
:100630007C00E8030000E8030000E8030000E80392
:100640000000E8030000E8030000E80300003200B7
:1006500040420F00640000006400000064000000DD
:100660006400000000000000B9020000B9040000AE
:100670000D463D00384D487A00344D487A00324DE1
:10068000487A00314D487A000D4558542053594E50
:10069000433A20004C4F570048494748004E4F000E
:1006A0000D547269676765723A200046414C4C20D0
:1006B000005249534520004E4F000A282B2F2D2968
:1006C00020004E44000D4E3D0075730075730A28DE
:1006D0002B2F2D292000250A282B2F2D29203125CD
:1006E00020000D44433D000A282B2F2D2920000D0A
:1006F000463D004F46460A004F4E200A00487A0009
:1007000011241FBECFE5D4E0DEBFCDBF20E0A4E6BC
:10071000B0E001C01D92A53AB207E1F710E0A0E6F3
:10072000B0E0E4EAFFE102C005900D92A436B10703
:10073000D9F7A1D135CC64CC2F933F93F1E0E0E021
:1007400022273327260F371FE81F008002BA9C9903
:10075000F9CF3F913F9108952F933F93F4E0E0E06C
:100760002227332708B2260F371FE81F08F40F2669
:1007700008BA9C99F8CF3F913F910895AF93BF93EA
:100780007F936F935F934F933F932F93F92FE82FAE
:10079000A089B189E894BB2319F4AA2309F46894C9
:1007A000508161817281222733274427250F361F0C
:1007B000471F28F0000042BB9C99F8CF34C02FEFB0
:1007C00022BB548165817681222733274427250F58
:1007D000361F471F28F0000000009C99F8CF23C067
:1007E0005085618572852FEF3FEF4FEF251B360B4C
:1007F000470B442329F0000042BB9C99F7CF13C05C
:10080000548565857685222733274427250F361F93
:10081000471F28F0000000009C99F8CF04C016F094
:10082000119709F0BDCF12BA2F913F914F915F916F
:100830006F917F91BF91AF910895AF93BF931F9335
:100840000F93FF92EF9212BAF1E0E0E0BF2FAE2FCC
:10085000112D012DF12CE12C060F171FE81F008030
:100860000694902D069406949019E20EF31EA41F90
:100870005C915695590F52BB9C99EECF12BAEF90EE
:10088000FF900F911F91BF91AF910895CF92DF928A
:10089000EF92FF92CF93DF936B017C01D42FC22F95
:1008A000C298BA9A60E074E284EF90E0A7019601E2
:1008B00020DA21503109410951098FB582608FBD7D
:1008C0008EB588618EBD8DE2C81681E0D806E10440
:1008D000F104E8F037BD26BD80916600883049F408
:1008E000DA01C901B695A7959795879599BD88BDF9
:1008F0000AC0AD2FB0E01FDA24E630E040E050E05F
:10090000F8D939BD28BD8EB5887F816013C0232FEB
:10091000342F452F552737BD26BDAD2FB0E00BDA5C
:1009200024E630E040E050E0E4D939BD28BD8EB582
:10093000887F84608EBD8FB580628FBDC13059F4D1
:100940009C9B0DC09D9B03C08FB5806202C08FB57C
:100950008F7D8FBDF5CFC23081F49C9905C01FBC3F
:100960001EBCC298BA9809C09D9903C08FB5806219
:1009700002C08FB58F7D8FBDF0CFDF91CF91FF90FB
:10098000EF90DF90CF9008956091660080E090E056
:10099000CCCA883011F0823021F4809166008F5FDC
:1009A00009C0813049F480916600811102C08CE059
:1009B00001C081508093660008958F929F92AF92FC
:1009C000BF92CF92DF92EF92FF920F931F93CF933C
:1009D0006B017A015901C598F3D380E01CD5F7016A
:1009E0006081718182819381BAD406D4C82F80310D
:1009F00081F550D4F7014081518162817381C50135
:100A0000A5DAC2DF81E007D540E051E0B60180E021
:100A100091E063DAF70180809180A280B380940135
:100A2000A50160E070E080E090E000E1DAD9E0E26A
:100A3000AE2EFBE1BF2EC12CD12CE12CF12C00E01D
:100A400010E085D9B901CA0112BA76DE12BA22D4F1
:100A500005C0843019F460E0C701EAD48C2FCF912F
:100A60001F910F91FF90EF90DF90CF90BF90AF90CC
:100A70009F908F908ECFCF93DF93CDB7DEB76397E4
:100A80000FB6F894DEBF0FBECDBF38B327B381E0F9
:100A900090E001C0880F3A95EAF7822B87BBBD9A98
:100AA000BB9A88B318BA14BA8FE185BB12BA8FEF1C
:100AB00081BB0FEF19EF20E0015010402040E1F71B
:100AC00000C000009A991BC03FEF83E294EF3150C1
:100AD00080409040E1F700C000009A9910C084E087
:100AE000CBD34FE350E061E376E086E690E0F5D9C2
:100AF0004FE350E060E070E086E690E007DABB9AF2
:100B000082E383BD8AE185BD0FEF11EE24E0015041
:100B100010402040E1F700C00000A4D79FD74FE36A
:100B200050E060E070E086E690E0E0D980EA282EB0
:100B30008BE0382E412C512C91E5692E90E0792ED6
:100B4000E09166008E2F90E08D30910508F02DC366
:100B5000FC01ED5EFF4F099421E030E047E650E0F4
:100B600061E375E08AE291E008C025E030E04BE601
:100B700050E061E374E080E291E01FDFE1CF29E023
:100B800030E04FE650E061E373E085E191E0F5CFBE
:100B90002DE030E043E750E061E372E08AE091E06D
:100BA000ECCF21E130E047E750E061E371E084E021
:100BB00091E0E3CFC5988DED90E002D380E02BD497
:100BC0001BD3182F803109F0E8C264D3DDDE81E049
:100BD00022D49C9BD6C272D982BBFBCFC59A8FEC24
:100BE00090E0EED280E017D460917B0070917C00A1
:100BF00080917D0090917E00B2D3FED28B8B8031AC
:100C0000A1F548D3C1DE40917B0050917C006091FA
:100C10007D0070917E0085E190E098D981E0FBD362
:100C200080917B0090917C00A0917D00B0917E002E
:100C30004C015D019C01A50160E070E080E090E066
:100C400000E1CFD810E9A12E0DE0B02EC12CD12C9F
:100C5000E12CF12C00E010E07AD8B901CA01C29869
:100C6000BA9A7ADDC298BA98E1C13B89343009F06A
:100C7000FAC160E08BE790E0DBD3F5C1C59A89EC5F
:100C800090E09ED280916400C6D360917F00709105
:100C90008000809181009091820061D385EC90E08A
:100CA0008FD26091830070E080E090E040E0F4D269
:100CB00080918400813019F480EC90E004C082308F
:100CC00019F48BEB90E07CD297D2182F803131F55C
:100CD000E1D280916400882339F01FBC1EBCC29809
:100CE000BA98109264002BC081E08093640093D383
:100CF00060917F00709180008091810090918200CE
:100D00002091840040918300C1DD3EDE46E050E04A
:100D100069E170E08FE790E0F9D811C0843079F490
:100D2000609164008FE790E083D38091640062D487
:100D300080916400811103C0D5D580938400809197
:100D400064008111FDCE29C2C59A8EEA90E038D2A6
:100D500080E061D36091850070918600809187006A
:100D600090918800FCD248D2182F803109F592D298
:100D70000BDE409185005091860060918700709154
:100D800088008FE190E0E2D881E045D36091850052
:100D900070918600809187009091880020E042E366
:100DA00075DD9C99FECF1FBC1EBCC298BA98E9C1E4
:100DB000843009F0F2C1B9D5F0C1C59886EA90E057
:100DC000FFD180E028D383EA90E0FAD140919100EE
:100DD00050919200609193007091940080918900ED
:100DE00090918A00A0918B00B0918C00480F591F00
:100DF0006A1F7B1F80918D0090918E00A0918F00C3
:100E0000B0919000480F591F6A1F7B1F8091950079
:100E100090919600A0919700B09198008A019B0153
:100E2000080F191F2A1F3B1FC901B80140E034D227
:100E30008FE990E0C5D180919B00813019F48BE956
:100E400090E004C0823019F487E990E0B9D1D4D1A0
:100E50008B8B803109F0ECC01DD296DD43E150E070
:100E600063E270E089E890E051D88DE0F5D580919B
:100E70009B00813069F483E990E0A2D19D9B05C07D
:100E80009C99FCCFD3C09C9BD1C09D9BFCCF09C03B
:100E9000823039F48FE890E093D19D9BC2C09D9938
:100EA000C3C081E0B8D28091890090918A00A0915E
:100EB0008B00B0918C004C015D019C01A50160E0AC
:100EC00070E080E090E000E18CD7A12CE0E9BE2E3C
:100ED000C12CD12CE12CF12C00E010E038D75901C5
:100EE0006A017B018C0120E030E040E051E060E0ED
:100EF00070E080E090E02BD729833A834B835C83BA
:100F000080918D0090918E00A0918F00B091900003
:100F10004C015D019C01A50160E070E080E090E083
:100F200000E15FD7A12CF0E9BF2EC12CD12CE12C20
:100F3000F12C00E010E00BD759016A017B018C0114
:100F400020E030E040E051E060E070E080E090E0E0
:100F5000FED62D833E834F835887809191009091D8
:100F60009200A0919300B09194004C015D019C010E
:100F7000A50160E070E080E090E000E132D7A12CB4
:100F8000A0E9BA2EC12CD12CE12CF12C00E010E00C
:100F9000DED659016A017B018C0120E030E040E09F
:100FA00051E060E070E080E090E0D1D629873A8798
:100FB0004B875C878091950090919600A091970057
:100FC000B09198004C015D019C01A50160E070E0CA
:100FD00080E090E000E105D7A12CB0E9BB2EC12C48
:100FE000D12CE12CF12C00E010E0B1D659016A01BE
:100FF0007B018C0120E030E040E051E060E070E0F7
:1010000080E090E0A4D62D873E874F87588B809153
:10101000990090919A009A8B898BCE010196AEDB54
:1010200005C09C993ACF02C09C9939CF33D11BC0DF
:101030001B891430C1F467E870E089E890E00FD3B1
:1010400061E870E08DE890E00AD369E770E081E93B
:1010500090E005D362E770E085E990E000D390D39B
:101060001ED480939B008B899EC024E630E03A8397
:1010700029838CE590E09C838B837E826D82C5986A
:1010800080919C00833010F010929C0086E490E0E8
:1010900097D080919C00FE013196E80FF11DE80F7A
:1010A000F11D808191818CD080E0B5D1A5D0182F21
:1010B000803169F4EFD068DC60919C0086E390E0B9
:1010C00034D781E0A8D180919C00DAD55AC0843011
:1010D00009F063C080919C008F5F80939C005DC08D
:1010E000C59880E490E06CD080E095D160919D003F
:1010F00070919E0080919F009091A00030D180E27D
:1011000057D06091A1007091A2008091A3009091AE
:10111000A40025D171D0182F8031A9F5BBD034DCC3
:1011200048E050E067E370E08DE990E0EFD681E0C1
:1011300072D140E051E061E375E080E091E0CDD60E
:101140008091A1009091A200A091A300B091A40071
:1011500077276627A2019101CCD569017A01809198
:101160009D0090919E00A0919F00B091A0007727D4
:101170006627A2019101BDD5CA01B901A701960157
:101180005CDB88D00AC0843041F460E08DE990E0F7
:101190004FD160E081EA90E04BD1812F04C085EE11
:1011A00090E00ED029D0F5DBCBCC10926600C8CCF5
:1011B0008D3009F453C48A3011F480E44DC450C416
:1011C000CF93DF93FC018491EF012196882319F0DE
:1011D000EFDFFE01F8CFDF91CF91089588E091E035
:1011E000292F2F7119F023B3292321F0990F815052
:1011F000B9F70895892F0895CF93DF93D5B3C4B37A
:1012000084B3807E84BB85B38F6185BB809165008C
:10121000882381F093B3982319F01092650027C0BA
:101220002FEF33EC99E0215030409040E1F700C0BF
:1012300000001DC0D3DF80936500882339F395E05B
:101240002FEF31EE84E0215030408040E1F700C0C4
:10125000000023B380916500282319F4915081F791
:1012600006C0992321F010926500953079F2D5BB24
:10127000C4BBDF91CF91089593B3982351F42FEF1E
:1012800039EF90E0215030409040E1F700C000007D
:10129000F3CF089580E1F0CF8F929F92AF92BF92EB
:1012A000CF92DF92EF92FF920F931F93CF93DF9332
:1012B000CDB7DEB729970FB6F894DEBF0FBECDBF0E
:1012C000D42E8E01075F1F4F9E012F5F3F4F790184
:1012D0002AE0822E912CA12CB12CA501940109D5D4
:1012E000605DF8016083B901CA01015011090E1552
:1012F0001F0599F7FE01329610E01F5F8191803340
:1013000031F089E0882E912CCD2CD12C03C01830DF
:10131000A1F7F7CFA12EB12CF701EA0DFB1D8081BB
:1013200047DFC4018A199B098C159D0511F48CE2D5
:1013300097D31F5F193071F729960FB6F894DEBF67
:101340000FBECDBFDF91CF911F910F91FF90EF9016
:10135000DF90CF90BF90AF909F908F900895CF92E5
:10136000DF92EF92FF920F931F93CF93DF93603141
:1013700027E272078105910558F420916600273015
:1013800011F5693E23E072078105910528F51BC020
:10139000603A26E8720721E08207910540F4209127
:1013A00066002730A1F0CAE0D0E01BE40AC0603438
:1013B00022E472072FE08207910570F0C0E1D7E2C6
:1013C0001DE403E00DC0C1E0D0E010E003C0C8EEB2
:1013D000D3E01BE400E004C0C4E6D0E01BE402E07C
:1013E0006E01E12CF12CA701960183D4CA01B90149
:1013F000402F52DF112311F0812FDADE8DEF96E0BE
:10140000DFDECE01DF91CF911F910F91FF90EF9022
:10141000DF90CF900895CF93C82F8DE01DD3CC23BC
:1014200019F088EF96E002C083EF96E0CF91C8CE26
:101430002F923F924F925F926F927F928F929F92E4
:10144000AF92BF92CF92DF92EF92FF921F93CF9312
:10145000DF93CDB7DEB728970FB6F894DEBF0FBE87
:10146000CDBF1C01162FDC01CD90DD90ED90FC90DE
:1014700080916600873061F0863091F08B30C1F04A
:1014800037E0432E32EB532E66246394712C16C042
:1014900020EA422E26E8522E66246394712C0EC058
:1014A00090E2492E91EA592E97E0692E712C06C0E0
:1014B00080E1482E87E2582E612C712CC301B201C5
:1014C0002AE030E040E050E014D42D833E834F8387
:1014D0005887812C912C54018FEE96E071DEC70164
:1014E000B6013DDF9C0140E050E029833A834B8305
:1014F0005C83C701B601FDD3C61AD70AE80AF90A08
:1015000081149104A104B10421F489809A80AB80F4
:10151000BC8087EE96E054DEC501B40120DF6CDEAE
:10152000813079F4D501C4010196A11DB11D8C153E
:101530009D05AE05BF0588F5C818D908EA08FB085F
:101540002CC0823081F4D301C20188199909AA09FB
:10155000BB09C816D906EA06FB06F8F4C80CD91C64
:10156000EA1CFB1C1AC0883089F48D819E81AF81F2
:10157000B88588169906AA06BB0658F4AAE0B0E01A
:10158000A5019401D8D34B015C0107C0843029F434
:1015900013C089809A80AB80BC80809166008730C0
:1015A00009F09ACF112309F497CF20E040918300EE
:1015B000C701B6016BD990CFD101CD92DD92ED92EA
:1015C000FC92139728960FB6F894DEBF0FBECDBFDE
:1015D000DF91CF911F91FF90EF90DF90CF90BF9060
:1015E000AF909F908F907F906F905F904F903F90C3
:1015F0002F900895CF93DF93D82FC091830082EE70
:1016000096E0DEDD8C2F90E0A0E0B0E040E0BC0191
:10161000CD0142DE86ED96E0D3DDEEDD813021F4B2
:10162000C23050F0C15008C0823021F4C33620F4DB
:10163000CF5F02C0843071F0DD2309F360917F0039
:1016400070918000809181009091820020E04C2F69
:101650001DD9D5CFC0938300DF91CF9108954F92CC
:101660005F926F927F928F929F92AF92BF92CF9232
:10167000DF92EF92FF920F931F93CF93DF93EC01D2
:101680008B01C880D980EA80FB8081E4C81682E49F
:10169000D8068FE0E806F10428F032E0C32ED12C02
:1016A000E12CF12C412C512C3201439420E4822E68
:1016B00022E4922E2FE0A22EB12CC80181DD40E061
:1016C000C701B601E9DD8CEC96E07ADD40E0C301AC
:1016D000B201E2DD89EC96E073DD8EDD813079F4D4
:1016E000D301C2010296A11DB11D8C159D05AE0549
:1016F000BF0518F7C418D508E608F708DECF823012
:1017000081F4D501C40184199509A609B709C81641
:10171000D906EA06FB0688F6C40CD51CE61CF71CA5
:10172000CCCF8830A9F480E4481682E458068FE0D4
:101730006806710428F0412C512C32014394BDCF2E
:10174000AAE0B0E0A3019201F6D22B013C01B5CF93
:10175000843009F0B2CFC882D982EA82FB82DF915D
:10176000CF911F910F91FF90EF90DF90CF90BF909E
:10177000AF909F908F907F906F905F904F90089563
:10178000FF920F931F93CF93DF93C0919900D09155
:101790009A0001E010E08AE0F82E85EC96E010DD7A
:1017A000209741F0CE01A0E0B0E040E0BC01CD01C7
:1017B00073DD03C082EC96E003DD8AEB96E000DD8A
:1017C000C801A0E0B0E040E0BC01CD0165DD14DD62
:1017D000813031F4C017D10700F3C01BD10BDDCF2E
:1017E000823049F4C80180959095C817D907A8F6AA
:1017F000C00FD11FD2CF883071F4003187E21807B3
:1018000018F001E010E0C9CFC801F89E8001F99EF0
:10181000100D1124C2CF843009F0BFCFD0939A00AD
:10182000C0939900DF91CF911F910F91FF90089580
:10183000AF92BF92CF92DF92EF92FF920F931F93DE
:10184000CF937C016B01C0E0042F10E0015011091F
:10185000C701B6DCAC2EB12CF501EE0FFF1FEC0D6D
:10186000FD1D80819181ACDCC7DC813021F4CC236B
:1018700079F3C150EDCF823029F4A016B10644F7B8
:10188000CF5FE6CF843021F78C2FCF911F910F913E
:10189000FF90EF90DF90CF90BF90AF900895CF93DF
:1018A000DF9300D000D000D0CDB7DEB787EB96E055
:1018B0009A83898381EB96E09C838B838BEA96E005
:1018C0009E838D8343E0BE016F5F7F4F80EA96E089
:1018D000AFDF26960FB6F894DEBF0FBECDBFDF9107
:1018E000CF910895CF93DF9300D000D000D0CDB733
:1018F000DEB78DE996E09A83898388E996E09C8338
:101900008B8384E996E09E838D8343E0BE016F5F05
:101910007F4F88E896E08CDF26960FB6F894DEBFFE
:101920000FBECDBFDF91CF910895CF93DF93CDB799
:10193000DEB728970FB6F894DEBF0FBECDBF83E8A1
:1019400096E09A8389838EE796E09C838B8389E770
:1019500096E09E838D8384E796E098878F8344E0AA
:10196000BE016F5F7F4F80E796E062DFA1E001C0BC
:10197000AA0F8A95EAF7B0E020E432E44FE050E0A5
:10198000DAD16093850070938600809387009093EE
:10199000880028960FB6F894DEBF0FBECDBFDF914A
:1019A000CF910895C1980895C19A0895CF93DF9378
:1019B000C82FD62F662311F0C09A01C0C098C7FF68
:1019C00002C0A89A01C0A898C6FF02C0A99A01C087
:1019D000A998C5FF02C0AA9A01C0AA98C4FF02C074
:1019E000AB9A01C0AB9800C0DFDF82E08A95F1F7C7
:1019F00000C0D8DFC3FF02C0A89A01C0A898C2FFE8
:101A000002C0A99A01C0A998C1FF02C0AA9A01C048
:101A1000AA98C0FF02C0AB9A01C0AB9800C0C4DF57
:101A200092E09A95F1F700C0BDDFA89AA99AAA9A08
:101A3000AB9AD11108C0C43030F48FE999E1019715
:101A4000F1F700C003C095ED9A95F1F70000DF9122
:101A5000CF91089560E0AACF8058FCCF81E0FACF03
:101A600061E0A4CFB99AB89AA09AA19AA29AA39A2F
:101A700099DFC098A89AA99AAA9AAB9A8FE59AEE8C
:101A80000197F1F700C00000A898A99800C08CDF6A
:101A900092E09A95F1F700C085DF8FE090E401971E
:101AA000F1F700C0000080DF92E09A95F1F700C0E6
:101AB00079DF8FE891E00197F1F700C0000074DF53
:101AC00092E09A95F1F700C06DDF85ED8A95F1F708
:101AD0000000AB9800C068DF92E09A95F1F700C073
:101AE00061DF85ED8A95F1F70000AB9800C05CDFFF
:101AF00092E09A95F1F700C055DF82E08A95F1F700
:101B000000C0A89A00C050DF92E09A95F1F700C09B
:101B100049DF85ED8A95F1F7000088E09BDF9EDFC5
:101B200086E098DF8CE096CF12BA80EA8A95F1F7CA
:101B30008FE082BB8AE08A95F1F700C0089512BA5F
:101B40008AE08A95F1F700C08FE082BB80EA8A952F
:101B5000F1F7089512BA8AE18A95F1F700C08FE093
:101B600082BB85E28A95F1F700000895FF920F93FA
:101B70001F93CF93DF93C1E3D1E01EE10FE083E336
:101B8000F82EE8DF12BB8AE28A95F1F700C002BBAB
:101B90008AE48A95F1F700C0F2BA8AE28A95F1F7F1
:101BA00000C002BB8AE48A95F1F700C012BB8AE24A
:101BB0008A95F1F700C0219721F7DF91CF911F910E
:101BC0000F91FF900895CF92DF92FF920F931F9392
:101BD000CF93DF9300D01F92CDB7DEB792E3C92E2B
:101BE000DD24D39403E310E04FE0F42E91E0C91A12
:101BF000D10809F436C0112339F41CE4082E802FD3
:101C0000002D2FE03FE007C000001A950000282FAC
:101C10000000302F000029833A838B839BDF2981CA
:101C200022BB90E49A95F1F7F2BA000000003A81E5
:101C300032BB90E49A95F1F7F2BA0000000022BBA3
:101C400090E49A95F1F7F2BA0000000032BB90E4FC
:101C50009A95F1F7F2BA9AE09A95F1F700C08B8164
:101C6000C5CF0F900F900F90DF91CF911F910F91E3
:101C7000FF90DF90CF90089583E3A5CF8FE0A3CFAF
:101C8000CF93DF93813031F040F0823079F5CEE3AD
:101C9000DEE005C0CCE3DEE002C0C6EBDDE012BA58
:101CA0009C9B23C041DF40DF3FDF3EDF3DDF47DF5E
:101CB00046DF45DF44DF43DFFE01099540DF3FDFBC
:101CC0003EDF3DDF3CDF30DF2FDF2EDF2DDF2CDF7F
:101CD00036DF35DF34DF33DFFE01099530DF2FDFFC
:101CE0002EDF2DDF2CDF2BDFDBCF12BADF91CF9180
:101CF0000895A1E21A2EAA1BBB1BFD010DC0AA1F4D
:101D0000BB1FEE1FFF1FA217B307E407F50720F064
:101D1000A21BB30BE40BF50B661F771F881F991FDF
:101D20001A9469F760957095809590959B01AC0128
:101D3000BD01CF0108956ED0A59F900DB49F900D69
:101D4000A49F800D911D11240895689401C0E8940A
:101D50008F929F92CF93DF9305D0DF91CF919F9089
:101D60008F90089588249924F401E401B0E41B2E97
:101D7000D4019D158E049F04E007F10738F4FC019F
:101D80004B01CA01B901AD019E011694220F331F08
:101D9000441F551F661F771F881F991F881C991C99
:101DA000EE1FFF1FCC1FDD1FAA1FBB1F8A149B0441
:101DB000EC05FD05CE05DF05A007B10748F08A1840
:101DC0009B08EC09FD09CE09DF09A00BB10B2160CE
:101DD0001A94E1F62EF49401AF01BE01CD01000C7E
:101DE00008950F93083090F0982F872F762F652F46
:101DF000542F432F322F22270850F4CF220F331FA6
:101E0000441F551F661F771F881F991F0A95B2F739
:101E10000F910895A29FB001B39FC001A39F01D06D
:101E2000B29F700D811D1124911D08958F929F9274
:101E3000AF92BF92CF92DF92EF92FF92CF93DF9358
:101E4000EC01688179818A819B8161157105810529
:101E5000910521F464E279ED8BE597E02DE133EF14
:101E600041E050E07BD049015A019B01AC01A7EA57
:101E7000B1E461DF6B017C01ACEEB4EFA50194012C
:101E80008BD0DC01CB018C0D9D1DAE1DBF1DB7FF9E
:101E900003C00197A109B04888839983AA83BB83B3
:101EA0009F77DF91CF91FF90EF90DF90CF90BF9021
:101EB000AF909F908F900895B9DF089580E690E0ED
:101EC000B5DF0895A0E0B0E08093600090936100DA
:101ED000A0936200B09363000895FB01DC0102C08F
:101EE00005900D9241505040D8F70895DC01CB0188
:101EF000FC01E199FECF06C0FFBBEEBBE09A319634
:101F00000DB20D9241505040B8F70895DC01A40F76
:101F1000B51F4150504040F0CB01840F951F2E91CA
:101F200005D041505040D8F70895262FE199FECFB3
:101F30009FBB8EBBE09A01970DB2021631F02DBB0C
:101F40000FB6F894E29AE19A0FBE08950396272FF0
:101F5000EDDFEBDF252FEADF242FE8CF052E97FBFF
:101F600016F400940FD057FD05D0C3DE07FC02D055
:101F700046F408C050954095309521953F4F4F4FFE
:101F80005F4F089590958095709561957F4F8F4F25
:101F90009F4F0895B7FFCFCECEDE821B930B0895DF
:041FA000F894FFCFE3
:041FA4000100000038
:00000001FF
