:100000007FC399C398C397C396C395C394C393C33F
:1000100092C391C390C38FC38EC38DC38CC38BC354
:100020008AC389C388C398C5A0C5A9C5B1C5B9C5C8
:10003000C1C5D4C523C688C6C0C617C851C8AFC875
:100040000D44544D46000D545620564944454F0A20
:10005000004348455353424F415244004C4154548D
:1000600049434500564552544943414C2042415270
:1000700053000D546F66663D000D5466616C6C3D17
:10008000000D546F6E3D000D54726973653D00574D
:100090003A4600573A5200543A4600543A520075D4
:1000A000732000543D000D50554C534520000D4821
:1000B000494748205350454544200020453D4C00C9
:1000C00020453D480020443D000D50574D20000D77
:1000D000535155415245205741564520000D4E4F32
:1000E00049534520000D4E44445320564552302E6E
:1000F00031350A5349474E414C2047454E45524100
:10010000544F52000D45434720000D545249414E73
:10011000474C4520000D52534157544F544820003E
:100120000D534157544F544820000D53494E45201C
:1001300000494A4B4B4A494949494847454443438A
:1001400043444443413E3D3B3938373736363637F2
:100150003737373737363533323131343D4D6584B3
:10016000A9CFEEFFFEEAC69A6D44251105000106EF
:100170000D141C242D34393D40414243444445462E
:10018000474747474747474748484849494A4B4BED
:100190004C4D4E4F505152535456585B5D60626403
:1001A00066686B6D707376797B7D7E7F7F7F7F7FE6
:1001B0007E7D7C797774716D6966625F5C59575496
:1001C000514F4D4C4B4A49484645444343434444B0
:1001D000444545454545454546474849494A4A4BB2
:1001E0004B4B4B4B4B4A4A4949494948484847477A
:1001F000474747474746464645454545454646469F
:1002000045444443434343424242414141414141C9
:10021000414140403F3F40404141414141414140D7
:1002200040404040404040414141424344454748AE
:100230004900020406080A0C0E10121416181A1CA3
:100240001E20222426282A2C2E30323436383A3CDE
:100250003E40424446484A4C4E50525456585A5CCE
:100260005E60626466686A6C6E70727476787A7CBE
:100270007E80828486888A8C8E90929496989A9CAE
:100280009EA0A2A4A6A8AAACAEB0B2B4B6B8BABC9E
:10029000BEC0C2C4C6C8CACCCED0D2D4D6D8DADC8E
:1002A000DEE0E2E4E6E8EAECEEF0F2F4F6F8FAFC7E
:1002B000FEFFFDFBF9F7F5F3F1EFEFEBE9E7E5E31F
:1002C000E1DFDDDBD9D7D5D3D1CFCFCBC9C7C5C30C
:1002D000C1BFBDBBB9B7B5B3B1AFAFABA9A7A5A3FC
:1002E000A19F9D9B99979593918F8F8B89878583EC
:1002F000817F7D7B79777573716F6F6B69676563DC
:10030000615F5D5B59575553514F4F4B49474543CB
:10031000413F3D3B39373533312F2F2B29272523BB
:10032000211F1D1B19171513110F0F0B09070503AB
:1003300001FFFEFDFCFBFAF9F8F7F6F5F4F3F2F134
:10034000F0EFEEEDECEBEAE9E8E7E6E5E4E3E2E125
:10035000E0DFDEDDDCDBDAD9D8D7D6D5D4D3D2D115
:10036000D0CFCECDCCCBCAC9C8C7C6C5C4C3C2C105
:10037000C0BFBEBDBCBBBAB9B8B7B6B5B4B3B2B1F5
:10038000B0AFAEADACABAAA9A8A7A6A5A4A3A2A1E5
:10039000A09F9E9D9C9B9A999897969594939291D5
:1003A000908F8E8D8C8B8A898887868584838281C5
:1003B000807F7E7D7C7B7A797877767574737271B5
:1003C000706F6E6D6C6B6A696867666564636261A5
:1003D000605F5E5D5C5B5A59585756555453525195
:1003E000504F4E4D4C4B4A49484746454443424185
:1003F000403F3E3D3C3B3A39383736353433323175
:10040000302F2E2D2C2B2A29282726252423222164
:10041000201F1E1D1C1B1A19181716151413121154
:10042000100F0E0D0C0B0A09080706050403020144
:1004300000000102030405060708090A0B0C0D0E53
:100440000F101112131415161718191A1B1C1D1E44
:100450001F202122232425262728292A2B2C2D2E34
:100460002F303132333435363738393A3B3C3D3E24
:100470003F404142434445464748494A4B4C4D4E14
:100480004F505152535455565758595A5B5C5D5E04
:100490005F606162636465666768696A6B6C6D6EF4
:1004A0006F707172737475767778797A7B7C7D7EE4
:1004B0007F808182838485868788898A8B8C8D8ED4
:1004C0008F909192939495969798999A9B9C9D9EC4
:1004D0009FA0A1A2A3A4A5A6A7A8A9AAABACADAEB4
:1004E000AFB0B1B2B3B4B5B6B7B8B9BABBBCBDBEA4
:1004F000BFC0C1C2C3C4C5C6C7C8C9CACBCCCDCE94
:10050000CFD0D1D2D3D4D5D6D7D8D9DADBDCDDDE83
:10051000DFE0E1E2E3E4E5E6E7E8E9EAEBECEDEE73
:10052000EFF0F1F2F3F4F5F6F7F8F9FAFBFCFDFE63
:10053000FF808386898C8F9295989C9FA2A5A8ABFB
:10054000AEB0B3B6B9BCBFC1C4C7C9CCCED1D3D588
:10055000D8DADCDEE0E2E4E6E8EAECEDEFF0F2F334
:10056000F5F6F7F8F9FAFBFCFCFDFEFEFFFFFFFFD6
:10057000FFFFFFFFFFFFFFFEFEFDFCFCFBFAF9F8AB
:10058000F7F6F5F3F2F0EFEDECEAE8E6E4E2E0DEB0
:10059000DCDAD8D5D3D1CECCC9C7C4C1BFBCB9B6BB
:1005A000B3B0AEABA8A5A29F9C9895928F8C89867C
:1005B00083807C797673706D6A6763605D5A575487
:1005C000514F4C494643403E3B383633312E2C2A5E
:1005D000272523211F1D1B1917151312100F0D0C92
:1005E0000A090807060504030302010100000000D0
:1005F00000000000000000010102030304050607DB
:1006000008090A0C0D0F1012131517191B1D1F21B5
:100610002325272A2C2E313336383B3E404346498A
:100620004C4F5154575A5D6063676A6D70737679A9
:100630007C00E8030000E8030000E8030000E80392
:100640000000E8030000E8030000E80300003200B7
:1006500040420F00640000006400000064000000DD
:100660006400000000000000B9020000B9040000AE
:100670000D463D00384D487A00344D487A00324DE1
:10068000487A00314D487A000D4558542053594E50
:10069000433A20004C4F570048494748004E4F000E
:1006A0000D547269676765723A200046414C4C20D0
:1006B000005249534520004E4F000A282B2F2D2968
:1006C00020004E44000D4E3D0075730075730A28DE
:1006D0002B2F2D292000250A282B2F2D29203125CD
:1006E00020000D44433D000A282B2F2D2920000D0A
:1006F000463D004F46460A004F4E200A00487A0009
:1007000011241FBECFE5D4E0DEBFCDBF20E0A4E6BC
:10071000B0E001C01D92A43AB207E1F710E0A0E6F4
:10072000B0E0EAE8FFE102C005900D92A436B107FF
:10073000D9F7A1D128CC64CC2F933F93F1E0E0E02E
:1007400022273327260F371FE81F008002BA9C9903
:10075000F9CF3F913F9108952F933F93F4E0E0E06C
:100760002227332708B2260F371FE81F08F40F2669
:1007700008BA9C99F8CF3F913F910895AF93BF93EA
:100780007F936F935F934F933F932F93F92FE82FAE
:10079000A089B189E894BB2319F4AA2309F46894C9
:1007A000508161817281222733274427250F361F0C
:1007B000471F28F0000042BB9C99F8CF34C02FEFB0
:1007C00022BB548165817681222733274427250F58
:1007D000361F471F28F0000000009C99F8CF23C067
:1007E0005085618572852FEF3FEF4FEF251B360B4C
:1007F000470B442329F0000042BB9C99F7CF13C05C
:10080000548565857685222733274427250F361F93
:10081000471F28F0000000009C99F8CF04C016F094
:10082000119709F0BDCF12BA2F913F914F915F916F
:100830006F917F91BF91AF910895AF93BF931F9335
:100840000F93FF92EF9212BAF1E0E0E0BF2FAE2FCC
:10085000112D012DF12CE12C060F171FE81F008030
:100860000694902D069406949019E20EF31EA41F90
:100870005C915695590F52BB9C99EECF12BAEF90EE
:10088000FF900F911F91BF91AF910895CF92DF928A
:10089000EF92FF92CF93DF936B017C01D42FC22F95
:1008A000C298BA9A60E074E284EF90E0A7019601E2
:1008B00013DA21503109410951098FB582608FBD8A
:1008C0008EB588618EBD8DE2C81681E0D806E10440
:1008D000F104E8F037BD26BD80916500883049F409
:1008E000DA01C901B695A7959795879599BD88BDF9
:1008F0000AC0AD2FB0E012DA24E630E040E050E06C
:10090000EBD939BD28BD8EB5887F816013C0232FF8
:10091000342F452F552737BD26BDAD2FB0E0FED96A
:1009200024E630E040E050E0D7D939BD28BD8EB58F
:10093000887F84608EBD8FB580628FBDC13059F4D1
:100940009C9B0DC09D9B03C08FB5806202C08FB57C
:100950008F7D8FBDF5CFC23081F49C9905C01FBC3F
:100960001EBCC298BA9809C09D9903C08FB5806219
:1009700002C08FB58F7D8FBDF0CFDF91CF91FF90FB
:10098000EF90DF90CF9008956091650080E090E057
:10099000BFCA883011F0823021F4809165008F5FEA
:1009A00009C0813049F480916500811102C08CE05A
:1009B00001C081508093650008958F929F92AF92FD
:1009C000BF92CF92DF92EF92FF920F931F93CF933C
:1009D0006B017A015901C598F3D380E00FD5F70177
:1009E0006081718182819381ADD408D4C82F803118
:1009F00081F502D4F7014081518162817381C50183
:100A000098DAC2DF81E0FAD440E051E0B60180E03C
:100A100091E056DAF70180809180A280B380940142
:100A2000A50160E070E080E090E000E1CDD9E0E277
:100A3000AE2EFBE1BF2EC12CD12CE12CF12C00E01D
:100A400010E078D9B901CA0112BA76DE12BAD4D34D
:100A500005C0843019F460E0C701DDD48C2FCF913C
:100A60001F910F91FF90EF90DF90CF90BF90AF90CC
:100A70009F908F908ECFCF93DF93CDB7DEB76397E4
:100A80000FB6F894DEBF0FBECDBF38B327B381E0F9
:100A900090E001C0880F3A95EAF7822B87BBBD9A98
:100AA000BB9A88B318BA14BA8FE185BB12BA8FEF1C
:100AB00081BB0FEF19EF20E0015010402040E1F71B
:100AC00000C000009A991BC03FEF83E294EF3150C1
:100AD00080409040E1F700C000009A9910C084E087
:100AE0007DD34FE350E061E376E085E690E0E8D91E
:100AF0004FE350E060E070E085E690E0FAD9BB9A01
:100B000082E383BD8AE185BD0FEF11EE24E0015041
:100B100010402040E1F700C0000097D792D74FE384
:100B200050E060E070E085E690E0D3D980EA282EBE
:100B30008BE0382E412C512C91E5692E90E0792ED6
:100B4000E09165008E2F90E08D30910508F02DC367
:100B5000FC01ED5EFF4F099421E030E046E650E0F5
:100B600061E375E08AE291E008C025E030E04AE602
:100B700050E061E374E080E291E01FDFE1CF29E023
:100B800030E04EE650E061E373E085E191E0F5CFBF
:100B90002DE030E042E750E061E372E08AE091E06E
:100BA000ECCF21E130E046E750E061E371E084E022
:100BB00091E0E3CFC5988DED90E002D380E01ED4A4
:100BC0001DD3182F803109F0E8C216D3DDDE81E095
:100BD00015D49C9BD6C265D982BBFBCFC59A8FEC3E
:100BE00090E0EED280E00AD460917A0070917B00B0
:100BF00080917C0090917D00A5D300D38B8B8031B8
:100C0000A1F5FAD2C1DE40917A0050917B0060914B
:100C10007C0070917D0085E190E08BD981E0EED37E
:100C200080917A0090917B00A0917C00B0917D0032
:100C30004C015D019C01A50160E070E080E090E066
:100C400000E1C2D810E9A12E0DE0B02EC12CD12CAC
:100C5000E12CF12C00E010E06DD8B901CA01C29876
:100C6000BA9A7ADDC298BA98E1C13B89343009F06A
:100C7000FAC160E08AE790E0CED3F5C1C59A89EC6D
:100C800090E09ED280916400B9D360917E00709113
:100C90007F00809180009091810054D385EC90E09A
:100CA0008FD26091820070E080E090E040E0E7D277
:100CB00080918300813019F480EC90E004C0823090
:100CC00019F48BEB90E07CD299D2182F803131F55A
:100CD00093D280916400882339F01FBC1EBCC29857
:100CE000BA98109264002BC081E08093640086D390
:100CF00060917E0070917F008091800090918100D2
:100D00002091830040918200C1DD3EDE46E050E04C
:100D100069E170E08EE790E0ECD811C0843079F49E
:100D2000609164008EE790E076D38091640055D4A2
:100D300080916400811103C0C8D5809383008091A5
:100D400064008111FDCE29C2C59A8EEA90E038D2A6
:100D500080E054D36091840070918500809186007A
:100D600090918700EFD24AD2182F803109F544D2F2
:100D70000BDE409184005091850060918600709157
:100D800087008FE190E0D5D881E038D3609184006E
:100D900070918500809186009091870020E042E369
:100DA00075DD9C99FECF1FBC1EBCC298BA98E9C1E4
:100DB000843009F0F2C1ACD5F0C1C59886EA90E064
:100DC000FFD180E01BD383EA90E0FAD140919000FC
:100DD00050919100609192007091930080918800F1
:100DE00090918900A0918A00B0918B00480F591F03
:100DF0006A1F7B1F80918C0090918D00A0918E00C6
:100E0000B0918F00480F591F6A1F7B1F809194007B
:100E100090919500A0919600B09197008A019B0156
:100E2000080F191F2A1F3B1FC901B80140E027D234
:100E30008FE990E0C5D180919A00813019F48BE957
:100E400090E004C0823019F487E990E0B9D1D6D19E
:100E50008B8B803109F0ECC0CFD196DD43E150E0BF
:100E600063E270E088E890E044D88DE0E8D58091B6
:100E70009A00813069F483E990E0A2D19D9B05C07E
:100E80009C99FCCFD3C09C9BD1C09D9BFCCF09C03B
:100E9000823039F48FE890E093D19D9BC2C09D9938
:100EA000C3C081E0ABD28091880090918900A0916D
:100EB0008A00B0918B004C015D019C01A50160E0AE
:100EC00070E080E090E000E17FD7A12CE0E9BE2E49
:100ED000C12CD12CE12CF12C00E010E02BD75901D2
:100EE0006A017B018C0120E030E040E051E060E0ED
:100EF00070E080E090E01ED729833A834B835C83C7
:100F000080918C0090918D00A0918E00B0918F0007
:100F10004C015D019C01A50160E070E080E090E083
:100F200000E152D7A12CF0E9BF2EC12CD12CE12C2D
:100F3000F12C00E010E0FED659016A017B018C0122
:100F400020E030E040E051E060E070E080E090E0E0
:100F5000F1D62D833E834F835887809190009091E6
:100F60009100A0919200B09193004C015D019C0111
:100F7000A50160E070E080E090E000E125D7A12CC1
:100F8000A0E9BA2EC12CD12CE12CF12C00E010E00C
:100F9000D1D659016A017B018C0120E030E040E0AC
:100FA00051E060E070E080E090E0C4D629873A87A5
:100FB0004B875C878091940090919500A09196005A
:100FC000B09197004C015D019C01A50160E070E0CB
:100FD00080E090E000E1F8D6A12CB0E9BB2EC12C56
:100FE000D12CE12CF12C00E010E0A4D659016A01CB
:100FF0007B018C0120E030E040E051E060E070E0F7
:1010000080E090E097D62D873E874F87588B809160
:101010009800909199009A8B898BCE010196AEDB56
:1010200005C09C993ACF02C09C9939CFE5D01BC02E
:101030001B891430C1F467E870E088E890E002D3BF
:1010400061E870E08CE890E0FDD269E770E080E94B
:1010500090E0F8D262E770E084E990E0F3D283D3C5
:1010600011D480939A008B899EC024E630E03A83A5
:1010700029838CE590E09C838B837E826D82C5986A
:1010800080919B00833010F010929B0086E490E0EA
:1010900097D080919B00FE013196E80FF11DE80F7B
:1010A000F11D808191818CD080E0A8D1A7D0182F2C
:1010B000803169F4A1D068DC60919B0086E390E008
:1010C00027D781E09BD180919B00CDD55AC0843039
:1010D00009F063C080919B008F5F80939B005DC08F
:1010E000C59880E490E06CD080E088D160919C004D
:1010F00070919D0080919E0090919F0023D180E28D
:1011000057D06091A0007091A1008091A2009091B1
:10111000A30018D173D0182F8031A9F56DD034DC1D
:1011200048E050E067E370E08CE990E0E2D681E0CF
:1011300065D140E051E061E375E080E091E0C0D628
:101140008091A0009091A100A091A200B091A30075
:1011500077276627A2019101BFD569017A018091A5
:101160009C0090919D00A0919E00B0919F007727D8
:101170006627A2019101B0D5CA01B901A701960164
:101180005CDB3AD00AC0843041F460E08CE990E046
:1011900042D160E080EA90E03ED1812F04C085EE2C
:1011A00090E00ED02BD0F5DBCBCC10926500C8CCF4
:1011B0008D3009F446C48A3011F480E440C443C43D
:1011C000CF93DF93FC018491EF012196882319F0DE
:1011D000EFDFFE01F8CFDF91CF91089593B398230D
:1011E00051F42FEF39EF90E0215030409040E1F77B
:1011F00000C00000F3CF089580E1F0CF0F931F935C
:10120000CF93DF931F92CDB7DEB715B304B384B38A
:10121000807E84BB85B38F6185BB999B02C09C99FE
:10122000FCCF8FE19EE40197F1F700C0000099998F
:1012300002C09C99FCCF9C9915C085E09FEF21EEE0
:1012400034E0915020403040E1F700C000009C990C
:1012500004C0815099F784E001C080E18983CCDF2C
:10126000898105C0989B02C082E001C081E015BB66
:1012700004BB0F90DF91CF911F910F9108958F9232
:101280009F92AF92BF92CF92DF92EF92FF920F9315
:101290001F93CF93DF93CDB7DEB729970FB6F8949E
:1012A000DEBF0FBECDBFD42E8E01075F1F4F9E0144
:1012B0002F5F3F4F79012AE0822E912CA12CB12C77
:1012C000A501940109D5605DF8016083B901CA01E7
:1012D000015011090E151F0599F7FE01329610E015
:1012E0001F5F8191803331F089E0882E912CCD2CC5
:1012F000D12C03C01830A1F7F7CFA12EB12CF701E4
:10130000EA0DFB1D808154DFC4018A199B098C15ED
:101310009D0511F48CE297D31F5F193071F7299660
:101320000FB6F894DEBF0FBECDBFDF91CF911F91F6
:101330000F91FF90EF90DF90CF90BF90AF909F9074
:101340008F900895CF92DF92EF92FF920F931F93A9
:10135000CF93DF93603127E272078105910558F43E
:1013600020916500273011F5693E23E07207810561
:10137000910528F51BC0603A26E8720721E0820734
:10138000910540F4209165002730A1F0CAE0D0E03B
:101390001BE40AC0603422E472072FE08207910543
:1013A00070F0C0E1D7E21DE403E00DC0C1E0D0E081
:1013B00010E003C0C8EED3E01BE400E004C0C4E6C4
:1013C000D0E01BE402E06E01E12CF12CA7019601B4
:1013D00083D4CA01B901402F52DF112311F0812FAC
:1013E000E7DE8DEF96E0ECDECE01DF91CF911F912D
:1013F0000F91FF90EF90DF90CF900895CF93C82F7B
:101400008DE01DD3CC2319F088EF96E002C083EF66
:1014100096E0CF91D5CE2F923F924F925F926F92EE
:101420007F928F929F92AF92BF92CF92DF92EF9274
:10143000FF921F93CF93DF93CDB7DEB728970FB6F8
:10144000F894DEBF0FBECDBF1C01162FDC01CD907E
:10145000DD90ED90FC9080916500873061F08630E2
:1014600091F08B30C1F037E0432E32EB532E6624DF
:101470006394712C16C020EA422E26E8522E662470
:101480006394712C0EC090E2492E91EA592E97E098
:10149000692E712C06C080E1482E87E2582E612CFF
:1014A000712CC301B2012AE030E040E050E014D4D6
:1014B0002D833E834F835887812C912C54018FEECE
:1014C00096E07EDEC701B6013DDF9C0140E050E0C2
:1014D00029833A834B835C83C701B601FDD3C61AC7
:1014E000D70AE80AF90A81149104A104B10421F48D
:1014F00089809A80AB80BC8087EE96E061DEC50172
:10150000B40120DF7BDE813079F4D501C40101967E
:10151000A11DB11D8C159D05AE05BF0588F5C81828
:10152000D908EA08FB082CC0823081F4D301C2013B
:1015300088199909AA09BB09C816D906EA06FB0643
:10154000F8F4C80CD91CEA1CFB1C1AC0803189F4C1
:101550008D819E81AF81B88588169906AA06BB0643
:1015600058F4AAE0B0E0A5019401D8D34B015C0186
:1015700007C0843029F413C089809A80AB80BC8076
:1015800080916500873009F09ACF112309F497CF35
:1015900020E040918200C701B60178D990CFD101F7
:1015A000CD92DD92ED92FC92139728960FB6F894A7
:1015B000DEBF0FBECDBFDF91CF911F91FF90EF90A7
:1015C000DF90CF90BF90AF909F908F907F906F9063
:1015D0005F904F903F902F900895CF93DF93D82F37
:1015E000C091820082EE96E0EBDD8C2F90E0A0E0CF
:1015F000B0E040E0BC01CD0142DE86ED96E0E0DDEA
:10160000FDDD813021F4C23050F0C15008C082307D
:1016100021F4C33620F4CF5F02C0843071F0DD23A3
:1016200009F360917E0070917F008091800090911D
:10163000810020E04C2F2AD9D5CFC0938200DF91C2
:10164000CF9108954F925F926F927F928F929F9267
:10165000AF92BF92CF92DF92EF92FF920F931F93C0
:10166000CF93DF93EC018B01C880D980EA80FB80A7
:1016700081E4C81682E4D8068FE0E806F10428F079
:1016800032E0C32ED12CE12CF12C412C512C320113
:10169000439420E4822E22E4922E2FE0A22EB12C3D
:1016A000C8018EDD40E0C701B601E9DD8CEC96E0B3
:1016B00087DD40E0C301B201E2DD89EC96E080DD28
:1016C0009DDD813079F4D301C2010296A11DB11DC7
:1016D0008C159D05AE05BF0518F7C418D508E6089A
:1016E000F708DECF823081F4D501C4018419950951
:1016F000A609B709C816D906EA06FB0688F6C40C7F
:10170000D51CE61CF71CCCCF8031A9F480E4481628
:1017100082E458068FE06806710428F0412C512CB1
:1017200032014394BDCFAAE0B0E0A3019201F6D20A
:101730002B013C01B5CF843009F0B2CFC882D982E9
:10174000EA82FB82DF91CF911F910F91FF90EF9082
:10175000DF90CF90BF90AF909F908F907F906F90D1
:101760005F904F900895FF920F931F93CF93DF9355
:10177000C0919800D091990001E010E08AE0F82E25
:1017800085EC96E01DDD209741F0CE01A0E0B0E0B1
:1017900040E0BC01CD0173DD03C082EC96E010DDBA
:1017A0008AEB96E00DDDC801A0E0B0E040E0BC01AE
:1017B000CD0165DD23DD813031F4C017D10700F3A1
:1017C000C01BD10BDDCF823049F4C80180959095C4
:1017D000C817D907A8F6C00FD11FD2CF803171F436
:1017E000003187E2180718F001E010E0C9CFC80106
:1017F000F89E8001F99E100D1124C2CF843009F0AB
:10180000BFCFD0939900C0939800DF91CF911F91E3
:101810000F91FF900895AF92BF92CF92DF92EF9217
:10182000FF920F931F93CF937C016B01C0E0042FB5
:1018300010E001501109C701C3DCAC2EB12CF50139
:10184000EE0FFF1FEC0DFD1D80819181B9DCD6DC10
:10185000813021F4CC2379F3C150EDCF823029F4CB
:10186000A016B10644F7CF5FE6CF843021F78C2F66
:10187000CF911F910F91FF90EF90DF90CF90BF908D
:10188000AF900895CF93DF9300D000D000D0CDB7B4
:10189000DEB787EB96E09A83898381EB96E09C83A1
:1018A0008B838BEA96E09E838D8343E0BE016F5F5E
:1018B0007F4F80EA96E0AFDF26960FB6F894DEBF42
:1018C0000FBECDBFDF91CF910895CF93DF9300D0AE
:1018D00000D000D0CDB7DEB78DE996E09A8389833A
:1018E00088E996E09C838B8384E996E09E838D83D0
:1018F00043E0BE016F5F7F4F88E896E08CDF26965D
:101900000FB6F894DEBF0FBECDBFDF91CF91089523
:10191000CF93DF93CDB7DEB728970FB6F894DEBF2D
:101920000FBECDBF83E896E09A8389838EE796E069
:101930009C838B8389E796E09E838D8384E796E082
:1019400098878F8344E0BE016F5F7F4F80E796E00A
:1019500062DFA1E001C0AA0F8A95EAF7B0E020E4B7
:1019600032E44FE050E0DAD1609384007093850058
:10197000809386009093870028960FB6F894DEBF78
:101980000FBECDBFDF91CF910895C1980895C19A40
:101990000895CF93DF93C82FD62F662311F0C09AF6
:1019A00001C0C098C7FF02C0A89A01C0A898C6FF8E
:1019B00002C0A99A01C0A998C5FF02C0AA9A01C095
:1019C000AA98C4FF02C0AB9A01C0AB9800C0DFDF89
:1019D00082E08A95F1F700C0D8DFC3FF02C0A89A61
:1019E00001C0A898C2FF02C0A99A01C0A998C1FF6E
:1019F00002C0AA9A01C0AA98C0FF02C0AB9A01C057
:101A0000AB9800C0C4DF92E09A95F1F700C0BDDF4B
:101A1000A89AA99AAA9AAB9AD11108C0C43030F4F6
:101A20008FE999E10197F1F700C003C095ED9A9510
:101A3000F1F70000DF91CF91089560E0AACF8058C0
:101A4000FCCF81E0FACF61E0A4CFB99AB89AA09A0E
:101A5000A19AA29AA39A99DFC098A89AA99AAA9A39
:101A6000AB9A8FE59AEE0197F1F700C00000A898B5
:101A7000A99800C08CDF92E09A95F1F700C085DF4D
:101A80008FE090E40197F1F700C0000080DF92E062
:101A90009A95F1F700C079DF8FE891E00197F1F7AF
:101AA00000C0000074DF92E09A95F1F700C06DDF8E
:101AB00085ED8A95F1F70000AB9800C068DF92E0F1
:101AC0009A95F1F700C061DF85ED8A95F1F7000086
:101AD000AB9800C05CDF92E09A95F1F700C055DF4B
:101AE00082E08A95F1F700C0A89A00C050DF92E02A
:101AF0009A95F1F700C049DF85ED8A95F1F700006E
:101B000088E09BDF9EDF86E098DF8CE096CF12BAFC
:101B100080EA8A95F1F78FE082BB8AE08A95F1F737
:101B200000C0089512BA8AE08A95F1F700C08FE0EC
:101B300082BB80EA8A95F1F7089512BA8AE18A9504
:101B4000F1F700C08FE082BB85E28A95F1F70000D3
:101B50000895FF920F931F93CF93DF93C1E3D1E0DA
:101B60001EE10FE083E3F82EE8DF12BB8AE28A95DC
:101B7000F1F700C002BB8AE48A95F1F700C0F2BA1F
:101B80008AE28A95F1F700C002BB8AE48A95F1F7F0
:101B900000C012BB8AE28A95F1F700C0219721F7B5
:101BA000DF91CF911F910F91FF900895CF92DF9217
:101BB000FF920F931F93CF93DF9300D01F92CDB767
:101BC000DEB792E3C92EDD24D39403E310E04FE0A7
:101BD000F42E91E0C91AD10809F436C0112339F462
:101BE0001CE4082E802F002D2FE03FE007C00000EE
:101BF0001A950000282F0000302F000029833A8317
:101C00008B839BDF298122BB90E49A95F1F7F2BA8E
:101C1000000000003A8132BB90E49A95F1F7F2BAE5
:101C20000000000022BB90E49A95F1F7F2BA0000A0
:101C3000000032BB90E49A95F1F7F2BA9AE09A95D7
:101C4000F1F700C08B81C5CF0F900F900F90DF91FF
:101C5000CF911F910F91FF90DF90CF90089583E374
:101C6000A5CF8FE0A3CFCF93DF93813031F040F049
:101C7000823079F5C1E3DEE005C0CFE2DEE002C0EC
:101C8000C9EADDE012BA9C9B23C041DF40DF3FDFA1
:101C90003EDF3DDF47DF46DF45DF44DF43DFFE0158
:101CA000099540DF3FDF3EDF3DDF3CDF30DF2FDFE8
:101CB0002EDF2DDF2CDF36DF35DF34DF33DFFE01B3
:101CC000099530DF2FDF2EDF2DDF2CDF2BDFDBCF81
:101CD00012BADF91CF910895A1E21A2EAA1BBB1B65
:101CE000FD010DC0AA1FBB1FEE1FFF1FA217B307E8
:101CF000E407F50720F0A21BB30BE40BF50B661FFE
:101D0000771F881F991F1A9469F7609570958095C1
:101D100090959B01AC01BD01CF0108956ED0A59FA8
:101D2000900DB49F900DA49F800D911D11240895D6
:101D3000689401C0E8948F929F92CF93DF9305D06F
:101D4000DF91CF919F908F90089588249924F4017A
:101D5000E401B0E41B2ED4019D158E049F04E0071E
:101D6000F10738F4FC014B01CA01B901AD019E0134
:101D70001694220F331F441F551F661F771F881F9D
:101D8000991F881C991CEE1FFF1FCC1FDD1FAA1F67
:101D9000BB1F8A149B04EC05FD05CE05DF05A007DB
:101DA000B10748F08A189B08EC09FD09CE09DF0944
:101DB000A00BB10B21601A94E1F62EF49401AF014F
:101DC000BE01CD01000C08950F93083090F0982FBC
:101DD000872F762F652F542F432F322F222708501D
:101DE000F4CF220F331F441F551F661F771F881F14
:101DF000991F0A95B2F70F910895A29FB001B39F62
:101E0000C001A39F01D0B29F700D811D1124911DAF
:101E100008958F929F92AF92BF92CF92DF92EF92EE
:101E2000FF92CF93DF93EC01688179818A819B8156
:101E3000611571058105910521F464E279ED8BE569
:101E400097E02DE133EF41E050E07BD049015A01AA
:101E50009B01AC01A7EAB1E461DF6B017C01ACEE50
:101E6000B4EFA50194018BD0DC01CB018C0D9D1D3D
:101E7000AE1DBF1DB7FF03C00197A109B0488883FD
:101E80009983AA83BB839F77DF91CF91FF90EF90D7
:101E9000DF90CF90BF90AF909F908F900895B9DF63
:101EA000089580E690E0B5DF0895A0E0B0E080936B
:101EB000600090936100A0936200B0936300089566
:101EC000FB01DC0102C005900D9241505040D8F753
:101ED0000895DC01CB01FC01E199FECF06C0FFBBF8
:101EE000EEBBE09A31960DB20D9241505040B8F7DA
:101EF0000895DC01A40FB51F4150504040F0CB01C4
:101F0000840F951F2E9105D041505040D8F7089569
:101F1000262FE199FECF9FBB8EBBE09A01970DB2B1
:101F2000021631F02DBB0FB6F894E29AE19A0FBE7B
:101F300008950396272FEDDFEBDF252FEADF242F0F
:101F4000E8CF052E97FB16F400940FD057FD05D06F
:101F5000C3DE07FC02D046F408C05095409530958A
:101F600021953F4F4F4F5F4F089590958095709505
:101F700061957F4F8F4F9F4F0895B7FFCFCECEDE35
:0A1F8000821B930B0895F894FFCF25
:041F8A000100000052
:00000001FF
