:1000000025C23FC23EC23DC23CC23BC23AC239C217
:1000100038C237C236C235C234C233C232C231C22C
:1000200030C22FC22EC255C45EC467C46FC485C41B
:100030008EC4A1C4EFC446C57BC551C68DC6EEC6ED
:1000400092C715C80D54303D000D445041545445DD
:10005000524E0A54303D000D46696E633D000D4618
:10006000656E643D000D4673746172743D000D53FE
:1000700057454550000D46323D000D46313D000DBF
:1000800044544D46000D545620564944454F0A00ED
:100090004348455353424F415244004C4154544904
:1000A000434500564552544943414C204241525326
:1000B000000D546F66663D000D5466616C6C3D002A
:1000C0000D546F6E3D000D54726973653D00573AD3
:1000D0004600573A5200543A4600543A52000D50E6
:1000E000554C534520000D4849474820535045453D
:1000F000440020453D4C0020453D480020443D0043
:100100000D50574D000D5351554152452057415602
:1001100045000D4E4F49534520000D4E4444532099
:10012000564552302E31370A5349474E414C2047ED
:10013000454E455241544F52000D45434720000D56
:10014000545249414E474C4520000D52534157549B
:100150004F4F544820000D534157544F4F5448209F
:10016000000D53494E452000494A4B4B4A494949E5
:100170004948474544434343444443413E3D3B395A
:10018000383737363636373737373737363533320D
:100190003131343D4D6584A9CFEEFFFEEAC69A6D3C
:1001A000442511050001060D141C242D34393D4051
:1001B00041424344444546474747474747474748E6
:1001C000484849494A4B4B4C4D4E4F50515253545D
:1001D00056585B5D60626466686B6D707376797BA0
:1001E0007D7E7F7F7F7F7F7E7D7C797774716D6977
:1001F00066625F5C595754514F4D4C4B4A494846D3
:1002000045444343434444444545454545454546A7
:10021000474849494A4A4B4B4B4B4B4B4A4A494941
:10022000494948484847474747474747464646455C
:10023000454545454646464544444343434342427B
:1002400042414141414141414140403F3F404041A5
:100250004141414141414040404040404040414196
:100260004142434445474849808386898C8F929513
:10027000989C9FA2A5A8ABAEB0B3B6B9BCBFC1C491
:10028000C7C9CCCED1D3D5D8DADCDEE0E2E4E6E8EB
:10029000EAECEDEFF0F2F3F5F6F7F8F9FAFBFCFC17
:1002A000FDFEFEFFFFFFFFFFFFFFFFFFFFFFFEFE64
:1002B000FDFCFCFBFAF9F8F7F6F5F3F2F0EFEDECE4
:1002C000EAE8E6E4E2E0DEDCDAD8D5D3D1CECCC988
:1002D000C7C4C1BFBCB9B6B3B0AEABA8A5A29F9C02
:1002E0009895928F8C898683807C797673706D6AFD
:1002F0006763605D5A5754514F4C494643403E3BFB
:10030000383633312E2C2A272523211F1D1B191780
:10031000151312100F0D0C0A090807060504030334
:1003200002010100000000000000000000000101C7
:100330000203030405060708090A0C0D0F10121327
:100340001517191B1D1F212325272A2C2E31333663
:10035000383B3E404346494C4F5154575A5D6063C9
:10036000676A6D707376797C00E8030000E803002B
:1003700000E8030000E8030000E8030000E80300D1
:1003800000E8030000320040420F006400000064F7
:10039000000000640000006400000000000000B9DC
:1003A000020000B904000014000000204E00000C00
:1003B0000000000A0000000120543D002E2E2E0AED
:1003C0003A005245500042524B000A282B2F2D294B
:1003D000207832000D463D000D4558542053594EAB
:1003E000433A20004C4F570048494748004E4F00C1
:1003F0000D547269676765723A200046414C4C2083
:10040000005249534520004E4F000A282B2F2D291A
:1004100020004E44000D4E3D000A282B2F2D292090
:1004200000250A282B2F2D2920312520000D44439B
:100430003D000D463D000A282B2F2D2920004F4658
:10044000460A004F4E200A00487A000011241FBEC1
:10045000CFE5D4E0DEBFCDBF10E0A0E6B0E0E4EA37
:10046000FFE102C005900D92A637B107D9F720E051
:10047000A6E7B0E001C01D92A73CB207E1F7CCD1DE
:100480008FCDBECD2F933F93F1E0E0E022273327BD
:10049000260F371FE81F008002BA9C99F9CF3F91C1
:1004A0003F910895F4E0E0E02227332708B2260FB9
:1004B000371FE81F08F40F2608BA9C99F8CF089553
:1004C000AF93BF931F930F93F92FE82FA089B189A2
:1004D000E894BB2319F4AA2309F46894408151815C
:1004E000628173810027112722273327040F151FEC
:1004F000261F371F20F032BB9C99F8CF39C02FEF51
:1005000022BB4481558166817781002711272227EC
:100510003327040F151F261F371F20F000009C995A
:10052000F8CF26C040855185628573850FEF1FEF98
:100530002FEF3FEF041B150B260B370B20F032BBC0
:100540009C99F8CF15C04485558566857785002729
:10055000112722273327040F151F261F371F20F0CE
:1005600012BA9C99F8CF04C016F0119709F0B6CFD3
:100570000F911F91BF91AF910895AF93BF931F93B8
:100580000F93FF92EF9212BAF1E0E0E0BF2FAE2F8F
:10059000112D012DF12CE12C060F171FE81F0080F3
:1005A0000694902D069406949019E20EF31EA41F53
:1005B0005C915695590F52BB9C99EECFEF90FF90EE
:1005C0000F911F91BF91AF910895E0E0F1E0912D5F
:1005D000512DC29A960F571FE81F18F0008002BADB
:1005E000F9CF008002BA6E0D7F1D801F481748F1B9
:1005F00031F4371730F131F4261718F116C0000026
:1006000000000000000000000000960F571FE81FC8
:10061000960F571FE81F960F571FE81F960F571F7B
:10062000E81F960F571FE81F000039F4960F571F59
:10063000E81F000000000000F8CF008002BA9C997B
:10064000C9CFC2980895A598AD9AC298BA9A12BA1D
:100650008FEF81BB08951FBC1EBCF5CFCF92DF92F8
:10066000EF92FF921F93CF93DF936B017C01142FC6
:10067000D22F8FB582608FBD8EB588618EBD60E050
:1006800074E284EF90E0A70196011DDB215031094F
:1006900041095109CEB5C87F2F3F8FEF380741057B
:1006A000510510F4C16005C0232F342F452F552765
:1006B000C46037BD26BDA12FB0E027DB24E630E0C3
:1006C00040E050E000DB39BD28BDCEBD8FB5806273
:1006D0008FBDD13059F49C9B16C09D9B03C08FB534
:1006E000806202C08FB58F7D8FBDF5CFD23059F4B7
:1006F0009C9B09C09D9903C08FB5806202C08FB5D5
:100700008F7D8FBDF5CFDF91CF911F91FF90EF903F
:10071000DF90CF9008959EB581E0911101C080E0F7
:1007200008956091770080E091E005CC883011F069
:10073000823021F4809177008F5F09C0813049F4C5
:1007400080917700811102C08EE001C081508093BA
:100750007700089540E051E0BC0180E091E0C3CB18
:100760009F92AF92BF92CF92DF92EF92FF920F9340
:100770001F93CF93DF93EB018A01C59889D480E062
:10078000BED5688179818A819B8148D59DD4982E78
:1007900080E1981224C0E6D4488159816A817B8126
:1007A000C801DADBBEDF81E0AAD5688179818A8160
:1007B0009B8120E030E040E059E0B7DAA12CE4E290
:1007C000BE2EF4EFCF2ED12CE12CF12C00E010E066
:1007D000D5DAB901CA0156DE36DFC4D405C084E0DB
:1007E000981202C0CE0158D6892DDF91CF911F916A
:1007F0000F91FF90EF90DF90CF90BF90AF909F90C0
:1008000095CF20E090E0E92FF0E0E050FF4F20830B
:10081000280F9F5FC1F70895CF93DF93CDB7DEB761
:100820006E970FB6F894DEBF0FBECDBF0CDFBD9A3A
:10083000BB9A8FE185BB0FEF19EF20E0015010400C
:100840002040E1F700C0000082E39A991BC03FEF0F
:1008500041EE54E0315040405040E1F700C000000C
:10086000815099F784E070D440E550E068E673E089
:1008700087E790E038DB40E550E060E071E087E733
:1008800090E04ADB82E383BD8AE185BD8FEF91EE84
:1008900004E0815090400040E1F700C00000E2D841
:1008A000DDD840E550E060E071E087E790E024DBD0
:1008B000412C512C612CB0E97B2EE09177008E2FDA
:1008C00090E08F30910508F0D8C3FC01ED5EFF4F3A
:1008D000099488E692E03EDF41E051E068E770E08D
:1008E00081E691E008C081E08CDF45E051E06CE7F3
:1008F00070E086E591E034DFE0CF8FEF82DF49E002
:1009000051E060E870E08AE491E0F5CF91E081E0A9
:10091000E82FF0E0E050FF4F908387FD02C09E5F1C
:1009200001C092508F5FA1F7109200014DE051E09D
:1009300064E870E08FE391E0DECF88E691E00ADFC3
:1009400041E151E068E870E089E391E0D4CFC598D7
:1009500082E191E09DD380E0D2D4B6D3182F8031CC
:1009600009F05AC2FFD3DDDE81E0C9D49C9B45C2A9
:10097000ABDA82BBFBCFC59A85E091E089D380E0FA
:10098000BED460918C0070918D0080918E0090910A
:100990008F0044D499D3382E10E1811333C0E2D3B1
:1009A000C0DE40918C0050918D0060918E0070915E
:1009B0008F0085E191E0D0DA81E0A1D460918C00D4
:1009C00070918D0080918E0090918F0020E030E03A
:1009D00040E059E0AAD9A12CE4E2BE2EF4EFCF2EDC
:1009E000D12CE12CF12C00E010E0C8D949015A01CA
:1009F000C501B401660F771F881F991F53DD23DEE1
:100A0000B1D306C024E0821303C08CE890E044D543
:100A1000832D31C3C59A17DE80E091E039D39EB5AE
:100A200081E0911101C080E06AD4609190007091E2
:100A300091008091920090919300F0D38CEF90E020
:100A400027D380919400E5D380919500813019F4EB
:100A500087EF90E004C0823019F482EF90E018D361
:100A600033D3182F8031F1F47DD38EB5882311F064
:100A7000F2DD24C081E043D4609190007091910038
:100A80008091920090919300209195004091940064
:100A9000E5DD47DE46E050E069E171E080E990E0A5
:100AA0003BDA0CC0843051F480E990E0F5D4F8D4FE
:100AB0008EB5811103C05BD6809395008EB58111F0
:100AC000FCCEAAC1C59A86EE90E0E2D280E017D4AF
:100AD0006091960070919700809198009091990094
:100AE0009DD3F2D2182F8031F1F43CD31ADE40911D
:100AF00096005091970060919800709199008FE155
:100B000091E02ADA81E0FBD3609196007091970022
:100B1000809198009091990020E042E39FDD9C999C
:100B2000FECF99DD6BC1843009F076C143D674C124
:100B3000C5988EED90E0ACD28091AC00813019F474
:100B40008AED90E004C0823019F486ED90E0A0D2E6
:100B500080E0D5D34091A2005091A3006091A40001
:100B60007091A50080919A0090919B00A0919C00AB
:100B7000B0919D00480F591F6A1F7B1F80919E00F6
:100B800090919F00A091A000B091A100480F591F23
:100B90006A1F7B1F8091A6009091A700A091A800DA
:100BA000B091A9008A019B01080F191F2A1F3B1F42
:100BB000C901B80181D388D2182F803109F073C0E0
:100BC000D1D2AFDD43E150E063E271E08AE990E029
:100BD000A3D98DE041D78091AC00813069F482EDDA
:100BE00090E056D29D9B05C09C99FCCF07C19C9B71
:100BF00005C19D9BFCCF09C0823039F48EEC90E09A
:100C000047D29D9B4AC09D994BC081E078D32091EB
:100C10009A0030919B0040919C0050919D00C3012F
:100C2000B20151D829833A834B835C8320919E0083
:100C300030919F004091A0005091A100C301B201EA
:100C400042D82D833E834F8358872091A200309154
:100C5000A3004091A4005091A500C301B20133D874
:100C600029873A874B875C872091A6003091A7009F
:100C70004091A8005091A900C301B20124D82D874A
:100C80003E874F87588B8091AA009091AB009A8B3A
:100C9000898BCE01019614DCB0C09C99B2CFAEC056
:100CA0009C99B1CFABC0843009F0B6C066EC70E05F
:100CB0008AE990E025D460EC70E08EE990E020D4E1
:100CC00068EB70E082EA90E01BD461EB70E086EAAA
:100CD00090E016D4A1D428D58093AC009DC023EA1F
:100CE00030E03A8329834BE950E05C834B8380E911
:100CF00090E09E838D83C5988091AD00833010F085
:100D00001092AD0085E890E0C3D18091AD00FE0166
:100D10003196E80FF11DE80FF11D80819181B8D166
:100D200080E0EDD2D1D1182F803169F41BD2F9DCEB
:100D30006091AD0086E391E0FED881E0E0D2809141
:100D4000AD0088D75BC0843009F066C08091AD00EB
:100D50008F5F8093AD0060C0C5988FE790E098D119
:100D600080E0CDD26091AE007091AF008091B00074
:100D70009091B10053D280E283D16091B200709122
:100D8000B3008091B4009091B50048D29DD1182F46
:100D90008031B1F5E7D1C5DC48E050E067E371E0B0
:100DA0008EEA90E0B9D881E0AAD288E692E0D2DC5F
:100DB0008091B2009091B300A091B400B091B500C1
:100DC0007727662720EA3BE040E050E07CD76901C6
:100DD0007A018091AE009091AF00A091B000B091E7
:100DE000B1007727662720EA3BE040E050E06BD770
:100DF000CA01B901A7019601C0DB25DCB3D10CC043
:100E0000843051F46EEA70E08AE790E085D262EBBC
:100E100070E085E790E080D2812F2DC1C5988EE6E5
:100E200090E036D180E06BD26091B6007091B7004F
:100E30008091B8009091B900F1D18EE321D16091F9
:100E4000BA007091BB008091BC009091BD00E6D1CA
:100E50003BD1982E90E1891372C084D162DC88E680
:100E600092E078DC4CE050E06FE371E086EB90E0DC
:100E700053D881E044D26091BE007091BF00809150
:100E8000C0009091C1000091BA001091BB00209168
:100E9000BC003091BD000B8B1C8B2D8B3E8B2091A9
:100EA000B6003091B7004091B8005091B9002F8B37
:100EB000388F498F5A8F20E030E040E059E035D735
:100EC000A12CE4E2BE2EF4EFCF2ED12CE12CF12C9C
:100ED00000E010E053D7822E332E242E5B8F6B89D7
:100EE0007C898D899E8920E030E040E059E01DD763
:100EF00045D72B8B3C8F4D8F5E8F6F89788D898D79
:100F00009A8D20E030E040E059E00FD737D7B22F7C
:100F1000A32FF42FE52FE82CF32C022D1B8D2B890A
:100F20003C8D4D8D5E8D6B2F7A2F8F2F9E2F4DDB3D
:100F30009C99A1CF88DB80E0E2D114D112C034E0CB
:100F400083130FC066EB70E085E690E0E5D16AEBB5
:100F500070E08EE590E0E0D16EEB70E087E590E028
:100F6000DBD1892D88C0C59ABA98C29889E490E0EF
:100F70008FD06091C2007091C3008091C4009091A5
:100F8000C5009AD180E0BBD19FD0182F803109F0E5
:100F90005DC0E8D040E051E060E070E080E091E0CA
:100FA000ABD7BFDB4091C2005091C3006091C40039
:100FB0007091C5008BE491E0CFD781E0A0D1409142
:100FC000C2005091C3006091C4007091C5001FBC65
:100FD00094E0440F551F661F771F9A95D1F7415033
:100FE0005109610971094F3F8FEF5807610571057C
:100FF00018F499E09EBD06C00CE00EBD452F562F9B
:10100000672F77275BBD4ABD80E0E82FF0E0E05016
:10101000FF4F90819038C1F39923A1F014F0BA9852
:1010200009C0BA9A919506C09C9B0CC008B604FEF4
:10103000FBCF9150992321F028B7206128BFF6CF2C
:101040008F5FE3CFBA981EBC8DD008C0843031F4D6
:1010500064E470E082EC90E053D20AD4812F66DB26
:10106000809177008D3009F428CCEDDA26CC8AE126
:1010700091E00ED029D05ADB20CC109277001DCC05
:101080008D3009F4EBC48A3011F480E4E5C4E8C47F
:10109000CF93DF93FC018491EF012196882319F00F
:1010A000EFDFFE01F8CFDF91CF91089588E091E066
:1010B000292F2F7119F023B3292321F0990F815083
:1010C000B9F70895892F0895CF93DF93D5B3C4B3AB
:1010D00084B3807E84BB85B38F6185BB80917600AD
:1010E000882381F093B3982319F01092760027C0DB
:1010F0002FEF33EC99E0215030409040E1F700C0F1
:1011000000001DC0D3DF80937600882339F395E07B
:101110002FEF31EE84E0215030408040E1F700C0F5
:10112000000023B380917600282319F4915081F7B1
:1011300006C0992321F010927600953079F2D5BB44
:10114000C4BBDF91CF91089593B3982351F42FEF4F
:1011500039EF90E0215030409040E1F700C00000AE
:10116000F3CF089580E1F0CF8F929F92AF92BF921C
:10117000DF92EF92FF920F931F93CF93DF93CDB740
:10118000DEB72C970FB6F894DEBF0FBECDBFD42EBE
:10119000022F10E03AE0832E912CA12CB12C1F5F7E
:1011A000EE24E394F12CEC0EFD1EE10EF11CA501E2
:1011B000940189D5605DF7016083B901CA016115A9
:1011C00071058105910559F7011770F4E1E0F0E030
:1011D000EC0FFD1FE10FF11D808152DF1D1102C0D8
:1011E0008EE23ED41150F0CF2C960FB6F894DEBFAD
:1011F0000FBECDBFDF91CF911F910F91FF90EF9068
:10120000DF90BF90AF909F908F90089520E040E0D6
:10121000ABCF682F70E080E090E0F8CFCF93DF9302
:10122000603127E272078105910558F4209177001B
:10123000273001F5693E23E0720781059105D0F062
:101240001FC0603A26E8720721E08207910538F452
:1012500020917700DBE4273081F0C1E013C06034D7
:1012600022E472072FE08207910550F0DDE4C4E02C
:1012700047E009C0D0E0C0E001C0C3E040E003C0E7
:10128000DBE4C2E044E02C2F6FDFDD2311F08D2F73
:10129000F7DE88E494E0FCDE61E070E080E090E05E
:1012A000CC2339F0AAE0B0E09B01AC012ED5C150AF
:1012B000F7CFDF91CF910895CF93DF93683E23E07E
:1012C00072078105910550F0DDE6603127E2720773
:1012D0008105910540F0C4E622E007C0D5E7C1E0F2
:1012E00020E040E003C0CAE021E044E03DDF8D2F74
:1012F000C7DE83E7B5D38C2FDF91CF910895CF93CD
:10130000C82F8DE0A9D3CC2319F083E494E002C068
:101310008EE394E0CF91BCCE2F923F924F925F929A
:101320006F927F928F929F92AF92BF92CF92DF92F5
:10133000EF92FF920F931F93CF93DF9300D000D0D3
:10134000CDB7DEB71C018B01DB01CD90DD90ED90B8
:10135000FC90812C912C540180917700865086302E
:10136000A0F490E0FC01EE0FFF1F8E0F9F1FFC0109
:10137000EC59FF4F80819181A2819C014A2F50E05E
:1013800029833A834B835C8308C087E092EBA1E01A
:10139000B0E089839A83AB83BC83C10179DEC70146
:1013A000B6013CDF2B013C01C701B601A30192014C
:1013B0008AD4C61AD70AE80AF90A84149504A6043E
:1013C000B70410F45301420186E394E061DEC501E5
:1013D000B40124DF79DE813051F48C149D04AE0415
:1013E000BF0468F5C818D908EA08FB0828C0498076
:1013F0005A806B807C80481859086A087B088230C4
:1014000051F4C414D504E604F704C8F4C80CD91C7C
:10141000EA1CFB1C14C0883081F4AAE0B0E0A501EE
:10142000940173D44B015C01461657066806790691
:1014300030F4812C912C540102C0843081F08091D1
:101440007700873009F088CF66D9882309F484CFE4
:1014500020E040919400C701B60100D97DCFD801AA
:10146000CD92DD92ED92FC9213970F900F900F901A
:101470000F90DF91CF911F910F91FF90EF90DF9030
:10148000CF90BF90AF909F908F907F906F905F9024
:101490004F903F902F900895BC0182E394E03CCFA1
:1014A000CF93C09194008DE294E0F2DD6C2F70E058
:1014B00080E090E0ABDE81E294E0EADD05DE8130A1
:1014C00021F4C23050F0C15008C0823021F4C3363C
:1014D00020F4CF5F02C0843079F01DD9882319F33E
:1014E0006091900070919100809192009091930092
:1014F00020E04C2FB3D8D7CFC0939400CF9108955C
:101500004F925F926F927F928F929F92AF92BF9213
:10151000CF92DF92EF92FF920F931F93CF93DF93BF
:10152000EC018B01C880D980EA80FB80812C912C52
:1015300054018394C801ACDDC701B601BDDE482E5D
:10154000512C612C712CC701B601A3019201BBD3B0
:10155000C61AD70AE80AF90A84149504A604B7043F
:1015600010F45301420189E194E092DDC501B40118
:10157000A3DEAADD813079F4D501C4010296A11D54
:10158000B11DC816D906EA06FB06A0F2C818D9088C
:10159000EA08FB08CFCF8230A1F4C80CD91CEA1CA2
:1015A000FB1C81E4C81682E4D8068FE0E806F1044B
:1015B00008F280E4C82E82E4D82E8FE0E82EF12CC9
:1015C000B9CF883089F4AAE0B0E0A50194019DD399
:1015D0004B015C0181EA881686E8980681E0A8063E
:1015E000B10408F4A7CFA2CF843009F0A3CFC882FA
:1015F000D982EA82FB82DF91CF911F910F91FF90F8
:10160000EF90DF90CF90BF90AF909F908F907F90A2
:101610006F905F904F900895FF920F931F93CF9319
:10162000DF93C091AA00D091AB0001E010E08AE006
:10163000F82E85E194E02CDD209729F0BE0180E0B2
:1016400090E0E4DD03C082E194E022DD8AE094E0F2
:101650001FDDB80180E090E0D9DD36DD813031F466
:10166000C017D10730F3C01BD10BE3CF823049F450
:10167000C80180959095C817D907D8F6C00FD11F1B
:10168000D8CF883071F4003187E2180718F001E0F4
:1016900010E0CFCFC801F89E8001F99E100D1124F3
:1016A000C8CF843031F6D093AB00C093AA00DF914D
:1016B000CF911F910F91FF900895AF92BF92CF925B
:1016C000DF92EF92FF920F931F93CF937C016B01F8
:1016D000C0E0042F10E001501109C701D9DCAC2E85
:1016E000B12CF501EE0FFF1FEC0DFD1D80819181E6
:1016F000CFDCEADC813021F4CC2379F3C150EDCF8B
:10170000823029F4A016B10644F7CF5FE6CF8430CB
:1017100021F78C2FCF911F910F91FF90EF90DF90C9
:10172000CF90BF90AF900895CF93DF9300D000D0BB
:1017300000D0CDB7DEB787E094E09A83898381E05B
:1017400094E09C838B838BEF93E09E838D8343E0B7
:10175000BE016F5F7F4F80EF93E0AFDF26960FB63D
:10176000F894DEBF0FBECDBFDF91CF910895CF9328
:10177000DF9300D000D000D0CDB7DEB78DEE93E080
:101780009A83898388EE93E09C838B8384EE93E035
:101790009E838D8343E0BE016F5F7F4F88ED93E0B2
:1017A0008CDF26960FB6F894DEBF0FBECDBFDF915B
:1017B000CF910895CF92DF92EF92FF92C090960062
:1017C000D0909700E0909800F090990084ED93E01D
:1017D0005FDCC701B60122DD8AEC93E059DC74DCE2
:1017E000813069F489E4C81688EED80681E0E806FD
:1017F000F10460F3F694E794D794C794E7CF82306E
:1018000061F4C11482E1D8068AE7E806F104F0F633
:10181000CC0CDD1CEE1CFF1CD9CF8430B9F6C09275
:101820009600D0929700E0929800F0929900FF9075
:10183000EF90DF90CF900895811103C086EC93E084
:1018400004C0803819F482EC93E022CC682F87FF23
:1018500007C0619570E080E090E0D8DC8CE407C0C0
:10186000062E000C770B880B990BD0DC88E4F8C0AF
:10187000CF92DF92EF92FF920F931F93CF93DF935C
:1018800040E051E060E070E080E091E035D312E0AC
:1018900000E0E4D0C02FD0E0CE0180509F4F7C010B
:1018A000FC018081C9DF111102C08CE303C011303B
:1018B00011F48EE3D5D0CE018F5F9E4F6C01FC01F9
:1018C0008081BADF8CE2CCD0F7018281B5DFF701ED
:1018D0008381B2DF8CEB93E0DBDB602F669570E0F9
:1018E00080E090E093DC88EB93E0D2DB2091C200B3
:1018F0003091C3004091C4005091C500F701A08110
:10190000A03809F4A0E00A2E000CBB0BB7FF03C0FF
:10191000B195A195B109F6019081903809F490E054
:10192000892F990F990B97FF03C091958195910984
:10193000A80FB91FF4D1C0DCC7DB813059F41230D5
:1019400011F40250A6CFC10FD11DC050DF4F8881C6
:1019500081500CC0823061F4123011F40E5F99CFC7
:10196000C10FD11DC050DF4F88818F5F888391CF19
:10197000883031F4111102C012E08BCF115089CFA1
:10198000843009F086CF40E051E060E070E080E014
:1019900091E0DF91CF911F910F91FF90EF90DF9039
:1019A000CF90BAC2C1980895C19A0895CF93DF939A
:1019B000C82FD62F662311F0C09A01C0C098C7FF68
:1019C00002C0A89A01C0A898C6FF02C0A99A01C087
:1019D000A998C5FF02C0AA9A01C0AA98C4FF02C074
:1019E000AB9A01C0AB9800C0DFDF82E08A95F1F7C7
:1019F00000C0D8DFC3FF02C0A89A01C0A898C2FFE8
:101A000002C0A99A01C0A998C1FF02C0AA9A01C048
:101A1000AA98C0FF02C0AB9A01C0AB9800C0C4DF57
:101A200092E09A95F1F700C0BDDFA89AA99AAA9A08
:101A3000AB9AD11108C0C43030F48FE999E1019715
:101A4000F1F700C003C095ED9A95F1F70000DF9122
:101A5000CF91089560E0AACF8058FCCF81E0FACF03
:101A600061E0A4CFB99AB89AA09AA19AA29AA39A2F
:101A700099DFC098A89AA99AAA9AAB9A8FE59AEE8C
:101A80000197F1F700C00000A898A99800C08CDF6A
:101A900092E09A95F1F700C085DF8FE090E401971E
:101AA000F1F700C0000080DF92E09A95F1F700C0E6
:101AB00079DF8FE891E00197F1F700C0000074DF53
:101AC00092E09A95F1F700C06DDF85ED8A95F1F708
:101AD0000000AB9800C068DF92E09A95F1F700C073
:101AE00061DF85ED8A95F1F70000AB9800C05CDFFF
:101AF00092E09A95F1F700C055DF82E08A95F1F700
:101B000000C0A89A00C050DF92E09A95F1F700C09B
:101B100049DF85ED8A95F1F7000088E09BDF9EDFC5
:101B200086E098DF8CE096CF12BA80EA8A95F1F7CA
:101B30008FE082BB8AE08A95F1F700C0089512BA5F
:101B40008AE08A95F1F700C08FE082BB80EA8A952F
:101B5000F1F7089512BA8AE18A95F1F700C08FE093
:101B600082BB85E28A95F1F700000895CF93DF9359
:101B7000C1E3D1E0EFDF83E382BB855090E29A9529
:101B8000F1F78B30C9F785E08A95F1F700002197CE
:101B900089F7DF91CF910895AF92BF92CF92DF92F4
:101BA000EF92FF920F931F93CF93DF9300D01F927A
:101BB000CDB7DEB791E3E92EFF24F39423E3A22E01
:101BC00010E00FE03FE0D32E3C2D4B2D9A2D11233A
:101BD00039F416E2082E892F902D3FE04FE007C020
:101BE00000001A950000382F0000492F0000C32E76
:101BF000B42EA92E3A834B838983ACDF24E08981FC
:101C00004B813A8102BB0000000032BB90E29A9502
:101C1000F1F702BB0000000042BB90E29A95F1F799
:101C2000215081F7D2BA91E0E91AF10809F0CCCF3E
:101C30000F900F900F90DF91CF911F910F91FF9018
:101C4000EF90DF90CF90BF90AF90089583E3A4CF43
:101C50008FE0A2CFCF93DF93813031F040F082301C
:101C600079F5C8E2DEE005C0C6E2DEE002C0C6EB00
:101C7000DDE012BA9C9B23C057DF56DF55DF54DFEF
:101C800053DF5DDF5CDF5BDF5ADF59DFFE01099563
:101C900056DF55DF54DF53DF52DF46DF45DF44DFD9
:101CA00043DF42DF4CDF4BDF4ADF49DFFE010995AE
:101CB00046DF45DF44DF43DF42DF41DFDBCF12BADF
:101CC000DF91CF910895A1E21A2EAA1BBB1BFD0143
:101CD0000DC0AA1FBB1FEE1FFF1FA217B307E4070B
:101CE000F50720F0A21BB30BE40BF50B661F771F63
:101CF000881F991F1A9469F7609570958095909543
:101D00009B01AC01BD01CF01089582D0A59F900D2C
:101D1000B49F900DA49F800D911D11240895B7FFCD
:101D2000F4CFF3DF821B930B0895E894DF93CF93F6
:101D3000FC01DB016DD07F936F93E9019A01AC0147
:101D4000BF93AF933F932F93DF0162D026F46C1BB8
:101D50007D0B820B930B9E01EB01FC0165D0AF91D3
:101D6000BF912F913F9160D0BE01CF01F9012F911A
:101D70003F91CF91DF910895689401C0E8948F92CC
:101D80009F92CF93DF9305D0DF91CF919F908F905B
:101D9000089588249924F401E401B0E41B2ED401B1
:101DA0009D158E049F04E007F10738F4FC014B01F8
:101DB000CA01B901AD019E011694220F331F441FC1
:101DC000551F661F771F881F991F881C991CEE1FBF
:101DD000FF1FCC1FDD1FAA1FBB1F8A149B04EC052D
:101DE000FD05CE05DF05A007B10748F08A189B085E
:101DF000EC09FD09CE09DF09A00BB10B21601A9493
:101E0000E1F62EF49401AF01BE01CD01000C08955E
:101E1000A29FB001B39FC001A39F01D0B29F700DDC
:101E2000811D1124911D0895F3DF460F571FC81F10
:101E3000D91F08F4319608958F929F92AF92BF9266
:101E4000CF92DF92EF92FF92CF93DF93EC01688104
:101E500079818A819B81611571058105910521F444
:101E600064E279ED8BE597E02DE133EF41E050E05E
:101E70007BD049015A019B01AC01A7EAB1E445DFDF
:101E80006B017C01ACEEB4EFA50194014ADFDC01EB
:101E9000CB018C0D9D1DAE1DBF1DB7FF03C001976B
:101EA000A109B04888839983AA83BB839F77DF9178
:101EB000CF91FF90EF90DF90CF90BF90AF909F9029
:101EC0008F900895B9DF089580E690E0B5DF08951A
:101ED000A0E0B0E08093600090936100A093620066
:101EE000B09363000895FB01DC0102C005900D92E0
:101EF00041505040D8F70895DC01CB01FC01E19935
:101F0000FECF06C0FFBBEEBBE09A31960DB20D923C
:101F100041505040B8F70895DC01A40FB51F41505F
:101F2000504040F0CB01840F951F2E9105D04150B9
:101F30005040D8F70895262FE199FECF9FBB8EBB66
:101F4000E09A01970DB2021631F02DBB0FB6F8944E
:101F5000E29AE19A0FBE08950396272FEDDFEBDF9B
:101F6000252FEADF242FE8CF052E97FB16F40094E7
:101F70000FD057FD05D0A7DE07FC02D046F408C0FD
:101F800050954095309521953F4F4F4F5F4F0895A5
:101F900090958095709561957F4F8F4F9F4F0895D5
:041FA000F894FFCFE3
:101FA4000100000020A107A0860107B20107B201C9
:061FB40007B20110270036
:00000001FF
